{
  "_format": "hh-sol-artifact-1",
  "contractName": "BatchSender",
  "sourceName": "contracts/peripherals/BatchSender.sol",
  "abi": [
    {
      "inputs": [],
      "stateMutability": "nonpayable",
      "type": "constructor"
    },
    {
      "anonymous": false,
      "inputs": [
        {
          "indexed": true,
          "internalType": "uint256",
          "name": "typeId",
          "type": "uint256"
        },
        {
          "indexed": true,
          "internalType": "address",
          "name": "token",
          "type": "address"
        },
        {
          "indexed": false,
          "internalType": "address[]",
          "name": "accounts",
          "type": "address[]"
        },
        {
          "indexed": false,
          "internalType": "uint256[]",
          "name": "amounts",
          "type": "uint256[]"
        }
      ],
      "name": "BatchSend",
      "type": "event"
    },
    {
      "inputs": [],
      "name": "admin",
      "outputs": [
        {
          "internalType": "address",
          "name": "",
          "type": "address"
        }
      ],
      "stateMutability": "view",
      "type": "function"
    },
    {
      "inputs": [
        {
          "internalType": "contract IERC20",
          "name": "_token",
          "type": "address"
        },
        {
          "internalType": "address[]",
          "name": "_accounts",
          "type": "address[]"
        },
        {
          "internalType": "uint256[]",
          "name": "_amounts",
          "type": "uint256[]"
        }
      ],
      "name": "send",
      "outputs": [],
      "stateMutability": "nonpayable",
      "type": "function"
    },
    {
      "inputs": [
        {
          "internalType": "contract IERC20",
          "name": "_token",
          "type": "address"
        },
        {
          "internalType": "address[]",
          "name": "_accounts",
          "type": "address[]"
        },
        {
          "internalType": "uint256[]",
          "name": "_amounts",
          "type": "uint256[]"
        },
        {
          "internalType": "uint256",
          "name": "_typeId",
          "type": "uint256"
        }
      ],
      "name": "sendAndEmit",
      "outputs": [],
      "stateMutability": "nonpayable",
      "type": "function"
    }
  ],
  "bytecode": "0x608060405234801561001057600080fd5b50600080546001600160a01b03191633179055610530806100326000396000f3fe608060405234801561001057600080fd5b50600436106100415760003560e01c8063745ae40b14610046578063f8129cd21461017d578063f851a440146102b0575b600080fd5b61017b6004803603608081101561005c57600080fd5b6001600160a01b038235169190810190604081016020820135600160201b81111561008657600080fd5b82018360208201111561009857600080fd5b803590602001918460208302840111600160201b831117156100b957600080fd5b9190808060200260200160405190810160405280939291908181526020018383602002808284376000920191909152509295949360208101935035915050600160201b81111561010857600080fd5b82018360208201111561011a57600080fd5b803590602001918460208302840111600160201b8311171561013b57600080fd5b91908080602002602001604051908101604052809392919081815260200183836020028082843760009201919091525092955050913592506102d4915050565b005b61017b6004803603606081101561019357600080fd5b6001600160a01b038235169190810190604081016020820135600160201b8111156101bd57600080fd5b8201836020820111156101cf57600080fd5b803590602001918460208302840111600160201b831117156101f057600080fd5b9190808060200260200160405190810160405280939291908181526020018383602002808284376000920191909152509295949360208101935035915050600160201b81111561023f57600080fd5b82018360208201111561025157600080fd5b803590602001918460208302840111600160201b8311171561027257600080fd5b9190808060200260200160405190810160405280939291908181526020018383602002808284376000920191909152509295506102e6945050505050565b6102b86102f8565b604080516001600160a01b039092168252519081900360200190f35b6102e084848484610307565b50505050565b6102f38383836000610307565b505050565b6000546001600160a01b031681565b6000546001600160a01b0316331461035f576040805162461bcd60e51b81526020600482015260166024820152752130ba31b429b2b73232b91d103337b93134b23232b760511b604482015290519081900360640190fd5b60005b835181101561042d57600084828151811061037957fe5b60200260200101519050600084838151811061039157fe5b602090810291909101810151604080516323b872dd60e01b81523360048201526001600160a01b038681166024830152604482018490529151929450908a16926323b872dd926064808401938290030181600087803b1580156103f357600080fd5b505af1158015610407573d6000803e3d6000fd5b505050506040513d602081101561041d57600080fd5b5050600190920191506103629050565b50836001600160a01b0316817fa1552778fd4edc5098fd82f614c100bf0f42c781e7926907643e2894679da0f38585604051808060200180602001838103835285818151815260200191508051906020019060200280838360005b838110156104a0578181015183820152602001610488565b50505050905001838103825284818151815260200191508051906020019060200280838360005b838110156104df5781810151838201526020016104c7565b5050505090500194505050505060405180910390a35050505056fea264697066735822122039876cc0587450142707254ae6de54beb4841c5292b7e503dc9ba958633895c464736f6c634300060c0033",
  "linkReferences": {},
  "deployedLinkReferences": {}
}