{
  "_format": "hh-sol-artifact-1",
  "contractName": "Vault",
  "sourceName": "contracts/core/Vault.sol",
  "abi": [
    {
      "inputs": [],
      "stateMutability": "nonpayable",
      "type": "constructor"
    },
    {
      "anonymous": false,
      "inputs": [
        {
          "indexed": false,
          "internalType": "address",
          "name": "account",
          "type": "address"
        },
        {
          "indexed": false,
          "internalType": "address",
          "name": "token",
          "type": "address"
        },
        {
          "indexed": false,
          "internalType": "uint256",
          "name": "tokenAmount",
          "type": "uint256"
        },
        {
          "indexed": false,
          "internalType": "uint256",
          "name": "usdgAmount",
          "type": "uint256"
        },
        {
          "indexed": false,
          "internalType": "uint256",
          "name": "feeBasisPoints",
          "type": "uint256"
        }
      ],
      "name": "BuyUSDG",
      "type": "event"
    },
    {
      "anonymous": false,
      "inputs": [
        {
          "indexed": false,
          "internalType": "bytes32",
          "name": "key",
          "type": "bytes32"
        },
        {
          "indexed": false,
          "internalType": "uint256",
          "name": "size",
          "type": "uint256"
        },
        {
          "indexed": false,
          "internalType": "uint256",
          "name": "collateral",
          "type": "uint256"
        },
        {
          "indexed": false,
          "internalType": "uint256",
          "name": "averagePrice",
          "type": "uint256"
        },
        {
          "indexed": false,
          "internalType": "uint256",
          "name": "entryFundingRate",
          "type": "uint256"
        },
        {
          "indexed": false,
          "internalType": "uint256",
          "name": "reserveAmount",
          "type": "uint256"
        },
        {
          "indexed": false,
          "internalType": "int256",
          "name": "realisedPnl",
          "type": "int256"
        }
      ],
      "name": "ClosePosition",
      "type": "event"
    },
    {
      "anonymous": false,
      "inputs": [
        {
          "indexed": false,
          "internalType": "address",
          "name": "token",
          "type": "address"
        },
        {
          "indexed": false,
          "internalType": "uint256",
          "name": "feeUsd",
          "type": "uint256"
        },
        {
          "indexed": false,
          "internalType": "uint256",
          "name": "feeTokens",
          "type": "uint256"
        }
      ],
      "name": "CollectMarginFees",
      "type": "event"
    },
    {
      "anonymous": false,
      "inputs": [
        {
          "indexed": false,
          "internalType": "address",
          "name": "token",
          "type": "address"
        },
        {
          "indexed": false,
          "internalType": "uint256",
          "name": "feeUsd",
          "type": "uint256"
        },
        {
          "indexed": false,
          "internalType": "uint256",
          "name": "feeTokens",
          "type": "uint256"
        }
      ],
      "name": "CollectSwapFees",
      "type": "event"
    },
    {
      "anonymous": false,
      "inputs": [
        {
          "indexed": false,
          "internalType": "address",
          "name": "token",
          "type": "address"
        },
        {
          "indexed": false,
          "internalType": "uint256",
          "name": "amount",
          "type": "uint256"
        }
      ],
      "name": "DecreaseGuaranteedUsd",
      "type": "event"
    },
    {
      "anonymous": false,
      "inputs": [
        {
          "indexed": false,
          "internalType": "address",
          "name": "token",
          "type": "address"
        },
        {
          "indexed": false,
          "internalType": "uint256",
          "name": "amount",
          "type": "uint256"
        }
      ],
      "name": "DecreasePoolAmount",
      "type": "event"
    },
    {
      "anonymous": false,
      "inputs": [
        {
          "indexed": false,
          "internalType": "bytes32",
          "name": "key",
          "type": "bytes32"
        },
        {
          "indexed": false,
          "internalType": "address",
          "name": "account",
          "type": "address"
        },
        {
          "indexed": false,
          "internalType": "address",
          "name": "collateralToken",
          "type": "address"
        },
        {
          "indexed": false,
          "internalType": "address",
          "name": "indexToken",
          "type": "address"
        },
        {
          "indexed": false,
          "internalType": "uint256",
          "name": "collateralDelta",
          "type": "uint256"
        },
        {
          "indexed": false,
          "internalType": "uint256",
          "name": "sizeDelta",
          "type": "uint256"
        },
        {
          "indexed": false,
          "internalType": "bool",
          "name": "isLong",
          "type": "bool"
        },
        {
          "indexed": false,
          "internalType": "uint256",
          "name": "price",
          "type": "uint256"
        },
        {
          "indexed": false,
          "internalType": "uint256",
          "name": "fee",
          "type": "uint256"
        }
      ],
      "name": "DecreasePosition",
      "type": "event"
    },
    {
      "anonymous": false,
      "inputs": [
        {
          "indexed": false,
          "internalType": "address",
          "name": "token",
          "type": "address"
        },
        {
          "indexed": false,
          "internalType": "uint256",
          "name": "amount",
          "type": "uint256"
        }
      ],
      "name": "DecreaseReservedAmount",
      "type": "event"
    },
    {
      "anonymous": false,
      "inputs": [
        {
          "indexed": false,
          "internalType": "address",
          "name": "token",
          "type": "address"
        },
        {
          "indexed": false,
          "internalType": "uint256",
          "name": "amount",
          "type": "uint256"
        }
      ],
      "name": "DecreaseUsdgAmount",
      "type": "event"
    },
    {
      "anonymous": false,
      "inputs": [
        {
          "indexed": false,
          "internalType": "address",
          "name": "token",
          "type": "address"
        },
        {
          "indexed": false,
          "internalType": "uint256",
          "name": "amount",
          "type": "uint256"
        }
      ],
      "name": "DirectPoolDeposit",
      "type": "event"
    },
    {
      "anonymous": false,
      "inputs": [
        {
          "indexed": false,
          "internalType": "address",
          "name": "token",
          "type": "address"
        },
        {
          "indexed": false,
          "internalType": "uint256",
          "name": "amount",
          "type": "uint256"
        }
      ],
      "name": "IncreaseGuaranteedUsd",
      "type": "event"
    },
    {
      "anonymous": false,
      "inputs": [
        {
          "indexed": false,
          "internalType": "address",
          "name": "token",
          "type": "address"
        },
        {
          "indexed": false,
          "internalType": "uint256",
          "name": "amount",
          "type": "uint256"
        }
      ],
      "name": "IncreasePoolAmount",
      "type": "event"
    },
    {
      "anonymous": false,
      "inputs": [
        {
          "indexed": false,
          "internalType": "bytes32",
          "name": "key",
          "type": "bytes32"
        },
        {
          "indexed": false,
          "internalType": "address",
          "name": "account",
          "type": "address"
        },
        {
          "indexed": false,
          "internalType": "address",
          "name": "collateralToken",
          "type": "address"
        },
        {
          "indexed": false,
          "internalType": "address",
          "name": "indexToken",
          "type": "address"
        },
        {
          "indexed": false,
          "internalType": "uint256",
          "name": "collateralDelta",
          "type": "uint256"
        },
        {
          "indexed": false,
          "internalType": "uint256",
          "name": "sizeDelta",
          "type": "uint256"
        },
        {
          "indexed": false,
          "internalType": "bool",
          "name": "isLong",
          "type": "bool"
        },
        {
          "indexed": false,
          "internalType": "uint256",
          "name": "price",
          "type": "uint256"
        },
        {
          "indexed": false,
          "internalType": "uint256",
          "name": "fee",
          "type": "uint256"
        }
      ],
      "name": "IncreasePosition",
      "type": "event"
    },
    {
      "anonymous": false,
      "inputs": [
        {
          "indexed": false,
          "internalType": "address",
          "name": "token",
          "type": "address"
        },
        {
          "indexed": false,
          "internalType": "uint256",
          "name": "amount",
          "type": "uint256"
        }
      ],
      "name": "IncreaseReservedAmount",
      "type": "event"
    },
    {
      "anonymous": false,
      "inputs": [
        {
          "indexed": false,
          "internalType": "address",
          "name": "token",
          "type": "address"
        },
        {
          "indexed": false,
          "internalType": "uint256",
          "name": "amount",
          "type": "uint256"
        }
      ],
      "name": "IncreaseUsdgAmount",
      "type": "event"
    },
    {
      "anonymous": false,
      "inputs": [
        {
          "indexed": false,
          "internalType": "bytes32",
          "name": "key",
          "type": "bytes32"
        },
        {
          "indexed": false,
          "internalType": "address",
          "name": "account",
          "type": "address"
        },
        {
          "indexed": false,
          "internalType": "address",
          "name": "collateralToken",
          "type": "address"
        },
        {
          "indexed": false,
          "internalType": "address",
          "name": "indexToken",
          "type": "address"
        },
        {
          "indexed": false,
          "internalType": "bool",
          "name": "isLong",
          "type": "bool"
        },
        {
          "indexed": false,
          "internalType": "uint256",
          "name": "size",
          "type": "uint256"
        },
        {
          "indexed": false,
          "internalType": "uint256",
          "name": "collateral",
          "type": "uint256"
        },
        {
          "indexed": false,
          "internalType": "uint256",
          "name": "reserveAmount",
          "type": "uint256"
        },
        {
          "indexed": false,
          "internalType": "int256",
          "name": "realisedPnl",
          "type": "int256"
        },
        {
          "indexed": false,
          "internalType": "uint256",
          "name": "markPrice",
          "type": "uint256"
        }
      ],
      "name": "LiquidatePosition",
      "type": "event"
    },
    {
      "anonymous": false,
      "inputs": [
        {
          "indexed": false,
          "internalType": "address",
          "name": "account",
          "type": "address"
        },
        {
          "indexed": false,
          "internalType": "address",
          "name": "token",
          "type": "address"
        },
        {
          "indexed": false,
          "internalType": "uint256",
          "name": "usdgAmount",
          "type": "uint256"
        },
        {
          "indexed": false,
          "internalType": "uint256",
          "name": "tokenAmount",
          "type": "uint256"
        },
        {
          "indexed": false,
          "internalType": "uint256",
          "name": "feeBasisPoints",
          "type": "uint256"
        }
      ],
      "name": "SellUSDG",
      "type": "event"
    },
    {
      "anonymous": false,
      "inputs": [
        {
          "indexed": false,
          "internalType": "address",
          "name": "account",
          "type": "address"
        },
        {
          "indexed": false,
          "internalType": "address",
          "name": "tokenIn",
          "type": "address"
        },
        {
          "indexed": false,
          "internalType": "address",
          "name": "tokenOut",
          "type": "address"
        },
        {
          "indexed": false,
          "internalType": "uint256",
          "name": "amountIn",
          "type": "uint256"
        },
        {
          "indexed": false,
          "internalType": "uint256",
          "name": "amountOut",
          "type": "uint256"
        },
        {
          "indexed": false,
          "internalType": "uint256",
          "name": "amountOutAfterFees",
          "type": "uint256"
        },
        {
          "indexed": false,
          "internalType": "uint256",
          "name": "feeBasisPoints",
          "type": "uint256"
        }
      ],
      "name": "Swap",
      "type": "event"
    },
    {
      "anonymous": false,
      "inputs": [
        {
          "indexed": false,
          "internalType": "address",
          "name": "token",
          "type": "address"
        },
        {
          "indexed": false,
          "internalType": "uint256",
          "name": "fundingRate",
          "type": "uint256"
        }
      ],
      "name": "UpdateFundingRate",
      "type": "event"
    },
    {
      "anonymous": false,
      "inputs": [
        {
          "indexed": false,
          "internalType": "bytes32",
          "name": "key",
          "type": "bytes32"
        },
        {
          "indexed": false,
          "internalType": "bool",
          "name": "hasProfit",
          "type": "bool"
        },
        {
          "indexed": false,
          "internalType": "uint256",
          "name": "delta",
          "type": "uint256"
        }
      ],
      "name": "UpdatePnl",
      "type": "event"
    },
    {
      "anonymous": false,
      "inputs": [
        {
          "indexed": false,
          "internalType": "bytes32",
          "name": "key",
          "type": "bytes32"
        },
        {
          "indexed": false,
          "internalType": "uint256",
          "name": "size",
          "type": "uint256"
        },
        {
          "indexed": false,
          "internalType": "uint256",
          "name": "collateral",
          "type": "uint256"
        },
        {
          "indexed": false,
          "internalType": "uint256",
          "name": "averagePrice",
          "type": "uint256"
        },
        {
          "indexed": false,
          "internalType": "uint256",
          "name": "entryFundingRate",
          "type": "uint256"
        },
        {
          "indexed": false,
          "internalType": "uint256",
          "name": "reserveAmount",
          "type": "uint256"
        },
        {
          "indexed": false,
          "internalType": "int256",
          "name": "realisedPnl",
          "type": "int256"
        },
        {
          "indexed": false,
          "internalType": "uint256",
          "name": "markPrice",
          "type": "uint256"
        }
      ],
      "name": "UpdatePosition",
      "type": "event"
    },
    {
      "inputs": [],
      "name": "BASIS_POINTS_DIVISOR",
      "outputs": [
        {
          "internalType": "uint256",
          "name": "",
          "type": "uint256"
        }
      ],
      "stateMutability": "view",
      "type": "function"
    },
    {
      "inputs": [],
      "name": "FUNDING_RATE_PRECISION",
      "outputs": [
        {
          "internalType": "uint256",
          "name": "",
          "type": "uint256"
        }
      ],
      "stateMutability": "view",
      "type": "function"
    },
    {
      "inputs": [],
      "name": "MAX_FEE_BASIS_POINTS",
      "outputs": [
        {
          "internalType": "uint256",
          "name": "",
          "type": "uint256"
        }
      ],
      "stateMutability": "view",
      "type": "function"
    },
    {
      "inputs": [],
      "name": "MAX_FUNDING_RATE_FACTOR",
      "outputs": [
        {
          "internalType": "uint256",
          "name": "",
          "type": "uint256"
        }
      ],
      "stateMutability": "view",
      "type": "function"
    },
    {
      "inputs": [],
      "name": "MAX_LIQUIDATION_FEE_USD",
      "outputs": [
        {
          "internalType": "uint256",
          "name": "",
          "type": "uint256"
        }
      ],
      "stateMutability": "view",
      "type": "function"
    },
    {
      "inputs": [],
      "name": "MIN_FUNDING_RATE_INTERVAL",
      "outputs": [
        {
          "internalType": "uint256",
          "name": "",
          "type": "uint256"
        }
      ],
      "stateMutability": "view",
      "type": "function"
    },
    {
      "inputs": [],
      "name": "MIN_LEVERAGE",
      "outputs": [
        {
          "internalType": "uint256",
          "name": "",
          "type": "uint256"
        }
      ],
      "stateMutability": "view",
      "type": "function"
    },
    {
      "inputs": [],
      "name": "PRICE_PRECISION",
      "outputs": [
        {
          "internalType": "uint256",
          "name": "",
          "type": "uint256"
        }
      ],
      "stateMutability": "view",
      "type": "function"
    },
    {
      "inputs": [],
      "name": "USDG_DECIMALS",
      "outputs": [
        {
          "internalType": "uint256",
          "name": "",
          "type": "uint256"
        }
      ],
      "stateMutability": "view",
      "type": "function"
    },
    {
      "inputs": [
        {
          "internalType": "address",
          "name": "_router",
          "type": "address"
        }
      ],
      "name": "addRouter",
      "outputs": [],
      "stateMutability": "nonpayable",
      "type": "function"
    },
    {
      "inputs": [
        {
          "internalType": "uint256",
          "name": "_amount",
          "type": "uint256"
        },
        {
          "internalType": "address",
          "name": "_tokenDiv",
          "type": "address"
        },
        {
          "internalType": "address",
          "name": "_tokenMul",
          "type": "address"
        }
      ],
      "name": "adjustForDecimals",
      "outputs": [
        {
          "internalType": "uint256",
          "name": "",
          "type": "uint256"
        }
      ],
      "stateMutability": "view",
      "type": "function"
    },
    {
      "inputs": [
        {
          "internalType": "uint256",
          "name": "",
          "type": "uint256"
        }
      ],
      "name": "allWhitelistedTokens",
      "outputs": [
        {
          "internalType": "address",
          "name": "",
          "type": "address"
        }
      ],
      "stateMutability": "view",
      "type": "function"
    },
    {
      "inputs": [],
      "name": "allWhitelistedTokensLength",
      "outputs": [
        {
          "internalType": "uint256",
          "name": "",
          "type": "uint256"
        }
      ],
      "stateMutability": "view",
      "type": "function"
    },
    {
      "inputs": [
        {
          "internalType": "address",
          "name": "",
          "type": "address"
        },
        {
          "internalType": "address",
          "name": "",
          "type": "address"
        }
      ],
      "name": "approvedRouters",
      "outputs": [
        {
          "internalType": "bool",
          "name": "",
          "type": "bool"
        }
      ],
      "stateMutability": "view",
      "type": "function"
    },
    {
      "inputs": [
        {
          "internalType": "address",
          "name": "",
          "type": "address"
        }
      ],
      "name": "bufferAmounts",
      "outputs": [
        {
          "internalType": "uint256",
          "name": "",
          "type": "uint256"
        }
      ],
      "stateMutability": "view",
      "type": "function"
    },
    {
      "inputs": [
        {
          "internalType": "address",
          "name": "_token",
          "type": "address"
        },
        {
          "internalType": "address",
          "name": "_receiver",
          "type": "address"
        }
      ],
      "name": "buyUSDG",
      "outputs": [
        {
          "internalType": "uint256",
          "name": "",
          "type": "uint256"
        }
      ],
      "stateMutability": "nonpayable",
      "type": "function"
    },
    {
      "inputs": [
        {
          "internalType": "address",
          "name": "_token",
          "type": "address"
        }
      ],
      "name": "clearTokenConfig",
      "outputs": [],
      "stateMutability": "nonpayable",
      "type": "function"
    },
    {
      "inputs": [
        {
          "internalType": "address",
          "name": "",
          "type": "address"
        }
      ],
      "name": "cumulativeFundingRates",
      "outputs": [
        {
          "internalType": "uint256",
          "name": "",
          "type": "uint256"
        }
      ],
      "stateMutability": "view",
      "type": "function"
    },
    {
      "inputs": [
        {
          "internalType": "address",
          "name": "_account",
          "type": "address"
        },
        {
          "internalType": "address",
          "name": "_collateralToken",
          "type": "address"
        },
        {
          "internalType": "address",
          "name": "_indexToken",
          "type": "address"
        },
        {
          "internalType": "uint256",
          "name": "_collateralDelta",
          "type": "uint256"
        },
        {
          "internalType": "uint256",
          "name": "_sizeDelta",
          "type": "uint256"
        },
        {
          "internalType": "bool",
          "name": "_isLong",
          "type": "bool"
        },
        {
          "internalType": "address",
          "name": "_receiver",
          "type": "address"
        }
      ],
      "name": "decreasePosition",
      "outputs": [
        {
          "internalType": "uint256",
          "name": "",
          "type": "uint256"
        }
      ],
      "stateMutability": "nonpayable",
      "type": "function"
    },
    {
      "inputs": [
        {
          "internalType": "address",
          "name": "_token",
          "type": "address"
        }
      ],
      "name": "directPoolDeposit",
      "outputs": [],
      "stateMutability": "nonpayable",
      "type": "function"
    },
    {
      "inputs": [],
      "name": "errorController",
      "outputs": [
        {
          "internalType": "address",
          "name": "",
          "type": "address"
        }
      ],
      "stateMutability": "view",
      "type": "function"
    },
    {
      "inputs": [
        {
          "internalType": "uint256",
          "name": "",
          "type": "uint256"
        }
      ],
      "name": "errors",
      "outputs": [
        {
          "internalType": "string",
          "name": "",
          "type": "string"
        }
      ],
      "stateMutability": "view",
      "type": "function"
    },
    {
      "inputs": [
        {
          "internalType": "address",
          "name": "",
          "type": "address"
        }
      ],
      "name": "feeReserves",
      "outputs": [
        {
          "internalType": "uint256",
          "name": "",
          "type": "uint256"
        }
      ],
      "stateMutability": "view",
      "type": "function"
    },
    {
      "inputs": [],
      "name": "fundingInterval",
      "outputs": [
        {
          "internalType": "uint256",
          "name": "",
          "type": "uint256"
        }
      ],
      "stateMutability": "view",
      "type": "function"
    },
    {
      "inputs": [],
      "name": "fundingRateFactor",
      "outputs": [
        {
          "internalType": "uint256",
          "name": "",
          "type": "uint256"
        }
      ],
      "stateMutability": "view",
      "type": "function"
    },
    {
      "inputs": [
        {
          "internalType": "address",
          "name": "_indexToken",
          "type": "address"
        },
        {
          "internalType": "uint256",
          "name": "_size",
          "type": "uint256"
        },
        {
          "internalType": "uint256",
          "name": "_averagePrice",
          "type": "uint256"
        },
        {
          "internalType": "bool",
          "name": "_isLong",
          "type": "bool"
        },
        {
          "internalType": "uint256",
          "name": "_lastIncreasedTime",
          "type": "uint256"
        }
      ],
      "name": "getDelta",
      "outputs": [
        {
          "internalType": "bool",
          "name": "hasProfit",
          "type": "bool"
        },
        {
          "internalType": "uint256",
          "name": "delta",
          "type": "uint256"
        }
      ],
      "stateMutability": "view",
      "type": "function"
    },
    {
      "inputs": [
        {
          "internalType": "address",
          "name": "_collateralToken",
          "type": "address"
        },
        {
          "internalType": "address",
          "name": "_indexToken",
          "type": "address"
        },
        {
          "internalType": "bool",
          "name": "_isLong",
          "type": "bool"
        }
      ],
      "name": "getEntryFundingRate",
      "outputs": [
        {
          "internalType": "uint256",
          "name": "",
          "type": "uint256"
        }
      ],
      "stateMutability": "view",
      "type": "function"
    },
    {
      "inputs": [
        {
          "internalType": "address",
          "name": "_token",
          "type": "address"
        },
        {
          "internalType": "uint256",
          "name": "_usdgDelta",
          "type": "uint256"
        },
        {
          "internalType": "uint256",
          "name": "_feeBasisPoints",
          "type": "uint256"
        },
        {
          "internalType": "uint256",
          "name": "_taxBasisPoints",
          "type": "uint256"
        },
        {
          "internalType": "bool",
          "name": "_increment",
          "type": "bool"
        }
      ],
      "name": "getFeeBasisPoints",
      "outputs": [
        {
          "internalType": "uint256",
          "name": "",
          "type": "uint256"
        }
      ],
      "stateMutability": "view",
      "type": "function"
    },
    {
      "inputs": [
        {
          "internalType": "address",
          "name": "_account",
          "type": "address"
        },
        {
          "internalType": "address",
          "name": "_collateralToken",
          "type": "address"
        },
        {
          "internalType": "address",
          "name": "_indexToken",
          "type": "address"
        },
        {
          "internalType": "bool",
          "name": "_isLong",
          "type": "bool"
        },
        {
          "internalType": "uint256",
          "name": "_size",
          "type": "uint256"
        },
        {
          "internalType": "uint256",
          "name": "_entryFundingRate",
          "type": "uint256"
        }
      ],
      "name": "getFundingFee",
      "outputs": [
        {
          "internalType": "uint256",
          "name": "",
          "type": "uint256"
        }
      ],
      "stateMutability": "view",
      "type": "function"
    },
    {
      "inputs": [
        {
          "internalType": "address",
          "name": "_token",
          "type": "address"
        }
      ],
      "name": "getGlobalShortDelta",
      "outputs": [
        {
          "internalType": "bool",
          "name": "hasProfit",
          "type": "bool"
        },
        {
          "internalType": "uint256",
          "name": "delta",
          "type": "uint256"
        }
      ],
      "stateMutability": "view",
      "type": "function"
    },
    {
      "inputs": [
        {
          "internalType": "address",
          "name": "_token",
          "type": "address"
        }
      ],
      "name": "getMaxPrice",
      "outputs": [
        {
          "internalType": "uint256",
          "name": "",
          "type": "uint256"
        }
      ],
      "stateMutability": "view",
      "type": "function"
    },
    {
      "inputs": [
        {
          "internalType": "address",
          "name": "_token",
          "type": "address"
        }
      ],
      "name": "getMinPrice",
      "outputs": [
        {
          "internalType": "uint256",
          "name": "",
          "type": "uint256"
        }
      ],
      "stateMutability": "view",
      "type": "function"
    },
    {
      "inputs": [
        {
          "internalType": "address",
          "name": "_indexToken",
          "type": "address"
        },
        {
          "internalType": "uint256",
          "name": "_size",
          "type": "uint256"
        },
        {
          "internalType": "uint256",
          "name": "_averagePrice",
          "type": "uint256"
        },
        {
          "internalType": "bool",
          "name": "_isLong",
          "type": "bool"
        },
        {
          "internalType": "uint256",
          "name": "_nextPrice",
          "type": "uint256"
        },
        {
          "internalType": "uint256",
          "name": "_sizeDelta",
          "type": "uint256"
        },
        {
          "internalType": "uint256",
          "name": "_lastIncreasedTime",
          "type": "uint256"
        }
      ],
      "name": "getNextAveragePrice",
      "outputs": [
        {
          "internalType": "uint256",
          "name": "",
          "type": "uint256"
        }
      ],
      "stateMutability": "view",
      "type": "function"
    },
    {
      "inputs": [
        {
          "internalType": "address",
          "name": "_token",
          "type": "address"
        }
      ],
      "name": "getNextFundingRate",
      "outputs": [
        {
          "internalType": "uint256",
          "name": "",
          "type": "uint256"
        }
      ],
      "stateMutability": "view",
      "type": "function"
    },
    {
      "inputs": [
        {
          "internalType": "address",
          "name": "_indexToken",
          "type": "address"
        },
        {
          "internalType": "uint256",
          "name": "_nextPrice",
          "type": "uint256"
        },
        {
          "internalType": "uint256",
          "name": "_sizeDelta",
          "type": "uint256"
        }
      ],
      "name": "getNextGlobalShortAveragePrice",
      "outputs": [
        {
          "internalType": "uint256",
          "name": "",
          "type": "uint256"
        }
      ],
      "stateMutability": "view",
      "type": "function"
    },
    {
      "inputs": [
        {
          "internalType": "address",
          "name": "_account",
          "type": "address"
        },
        {
          "internalType": "address",
          "name": "_collateralToken",
          "type": "address"
        },
        {
          "internalType": "address",
          "name": "_indexToken",
          "type": "address"
        },
        {
          "internalType": "bool",
          "name": "_isLong",
          "type": "bool"
        }
      ],
      "name": "getPosition",
      "outputs": [
        {
          "internalType": "uint256",
          "name": "size",
          "type": "uint256"
        },
        {
          "internalType": "uint256",
          "name": "collateral",
          "type": "uint256"
        },
        {
          "internalType": "uint256",
          "name": "averagePrice",
          "type": "uint256"
        },
        {
          "internalType": "uint256",
          "name": "entryFundingRate",
          "type": "uint256"
        },
        {
          "internalType": "uint256",
          "name": "reserveAmount",
          "type": "uint256"
        },
        {
          "internalType": "uint256",
          "name": "realisedPnl",
          "type": "uint256"
        },
        {
          "internalType": "bool",
          "name": "hasProfit",
          "type": "bool"
        },
        {
          "internalType": "uint256",
          "name": "lastIncreasedTime",
          "type": "uint256"
        }
      ],
      "stateMutability": "view",
      "type": "function"
    },
    {
      "inputs": [
        {
          "internalType": "address",
          "name": "_account",
          "type": "address"
        },
        {
          "internalType": "address",
          "name": "_collateralToken",
          "type": "address"
        },
        {
          "internalType": "address",
          "name": "_indexToken",
          "type": "address"
        },
        {
          "internalType": "bool",
          "name": "_isLong",
          "type": "bool"
        }
      ],
      "name": "getPositionDelta",
      "outputs": [
        {
          "internalType": "bool",
          "name": "hasProfit",
          "type": "bool"
        },
        {
          "internalType": "uint256",
          "name": "delta",
          "type": "uint256"
        }
      ],
      "stateMutability": "view",
      "type": "function"
    },
    {
      "inputs": [
        {
          "internalType": "address",
          "name": "_account",
          "type": "address"
        },
        {
          "internalType": "address",
          "name": "_collateralToken",
          "type": "address"
        },
        {
          "internalType": "address",
          "name": "_indexToken",
          "type": "address"
        },
        {
          "internalType": "bool",
          "name": "_isLong",
          "type": "bool"
        },
        {
          "internalType": "uint256",
          "name": "_sizeDelta",
          "type": "uint256"
        }
      ],
      "name": "getPositionFee",
      "outputs": [
        {
          "internalType": "uint256",
          "name": "",
          "type": "uint256"
        }
      ],
      "stateMutability": "view",
      "type": "function"
    },
    {
      "inputs": [
        {
          "internalType": "address",
          "name": "_account",
          "type": "address"
        },
        {
          "internalType": "address",
          "name": "_collateralToken",
          "type": "address"
        },
        {
          "internalType": "address",
          "name": "_indexToken",
          "type": "address"
        },
        {
          "internalType": "bool",
          "name": "_isLong",
          "type": "bool"
        }
      ],
      "name": "getPositionKey",
      "outputs": [
        {
          "internalType": "bytes32",
          "name": "",
          "type": "bytes32"
        }
      ],
      "stateMutability": "pure",
      "type": "function"
    },
    {
      "inputs": [
        {
          "internalType": "address",
          "name": "_account",
          "type": "address"
        },
        {
          "internalType": "address",
          "name": "_collateralToken",
          "type": "address"
        },
        {
          "internalType": "address",
          "name": "_indexToken",
          "type": "address"
        },
        {
          "internalType": "bool",
          "name": "_isLong",
          "type": "bool"
        }
      ],
      "name": "getPositionLeverage",
      "outputs": [
        {
          "internalType": "uint256",
          "name": "",
          "type": "uint256"
        }
      ],
      "stateMutability": "view",
      "type": "function"
    },
    {
      "inputs": [
        {
          "internalType": "address",
          "name": "_token",
          "type": "address"
        },
        {
          "internalType": "uint256",
          "name": "_usdgAmount",
          "type": "uint256"
        }
      ],
      "name": "getRedemptionAmount",
      "outputs": [
        {
          "internalType": "uint256",
          "name": "",
          "type": "uint256"
        }
      ],
      "stateMutability": "view",
      "type": "function"
    },
    {
      "inputs": [
        {
          "internalType": "address",
          "name": "_token",
          "type": "address"
        }
      ],
      "name": "getRedemptionCollateral",
      "outputs": [
        {
          "internalType": "uint256",
          "name": "",
          "type": "uint256"
        }
      ],
      "stateMutability": "view",
      "type": "function"
    },
    {
      "inputs": [
        {
          "internalType": "address",
          "name": "_token",
          "type": "address"
        }
      ],
      "name": "getRedemptionCollateralUsd",
      "outputs": [
        {
          "internalType": "uint256",
          "name": "",
          "type": "uint256"
        }
      ],
      "stateMutability": "view",
      "type": "function"
    },
    {
      "inputs": [
        {
          "internalType": "address",
          "name": "_token",
          "type": "address"
        }
      ],
      "name": "getTargetUsdgAmount",
      "outputs": [
        {
          "internalType": "uint256",
          "name": "",
          "type": "uint256"
        }
      ],
      "stateMutability": "view",
      "type": "function"
    },
    {
      "inputs": [
        {
          "internalType": "address",
          "name": "_token",
          "type": "address"
        }
      ],
      "name": "getUtilisation",
      "outputs": [
        {
          "internalType": "uint256",
          "name": "",
          "type": "uint256"
        }
      ],
      "stateMutability": "view",
      "type": "function"
    },
    {
      "inputs": [
        {
          "internalType": "address",
          "name": "",
          "type": "address"
        }
      ],
      "name": "globalShortAveragePrices",
      "outputs": [
        {
          "internalType": "uint256",
          "name": "",
          "type": "uint256"
        }
      ],
      "stateMutability": "view",
      "type": "function"
    },
    {
      "inputs": [
        {
          "internalType": "address",
          "name": "",
          "type": "address"
        }
      ],
      "name": "globalShortSizes",
      "outputs": [
        {
          "internalType": "uint256",
          "name": "",
          "type": "uint256"
        }
      ],
      "stateMutability": "view",
      "type": "function"
    },
    {
      "inputs": [],
      "name": "gov",
      "outputs": [
        {
          "internalType": "address",
          "name": "",
          "type": "address"
        }
      ],
      "stateMutability": "view",
      "type": "function"
    },
    {
      "inputs": [
        {
          "internalType": "address",
          "name": "",
          "type": "address"
        }
      ],
      "name": "guaranteedUsd",
      "outputs": [
        {
          "internalType": "uint256",
          "name": "",
          "type": "uint256"
        }
      ],
      "stateMutability": "view",
      "type": "function"
    },
    {
      "inputs": [],
      "name": "hasDynamicFees",
      "outputs": [
        {
          "internalType": "bool",
          "name": "",
          "type": "bool"
        }
      ],
      "stateMutability": "view",
      "type": "function"
    },
    {
      "inputs": [],
      "name": "inManagerMode",
      "outputs": [
        {
          "internalType": "bool",
          "name": "",
          "type": "bool"
        }
      ],
      "stateMutability": "view",
      "type": "function"
    },
    {
      "inputs": [],
      "name": "inPrivateLiquidationMode",
      "outputs": [
        {
          "internalType": "bool",
          "name": "",
          "type": "bool"
        }
      ],
      "stateMutability": "view",
      "type": "function"
    },
    {
      "inputs": [],
      "name": "includeAmmPrice",
      "outputs": [
        {
          "internalType": "bool",
          "name": "",
          "type": "bool"
        }
      ],
      "stateMutability": "view",
      "type": "function"
    },
    {
      "inputs": [
        {
          "internalType": "address",
          "name": "_account",
          "type": "address"
        },
        {
          "internalType": "address",
          "name": "_collateralToken",
          "type": "address"
        },
        {
          "internalType": "address",
          "name": "_indexToken",
          "type": "address"
        },
        {
          "internalType": "uint256",
          "name": "_sizeDelta",
          "type": "uint256"
        },
        {
          "internalType": "bool",
          "name": "_isLong",
          "type": "bool"
        }
      ],
      "name": "increasePosition",
      "outputs": [],
      "stateMutability": "nonpayable",
      "type": "function"
    },
    {
      "inputs": [
        {
          "internalType": "address",
          "name": "_router",
          "type": "address"
        },
        {
          "internalType": "address",
          "name": "_usdg",
          "type": "address"
        },
        {
          "internalType": "address",
          "name": "_priceFeed",
          "type": "address"
        },
        {
          "internalType": "uint256",
          "name": "_liquidationFeeUsd",
          "type": "uint256"
        },
        {
          "internalType": "uint256",
          "name": "_fundingRateFactor",
          "type": "uint256"
        },
        {
          "internalType": "uint256",
          "name": "_stableFundingRateFactor",
          "type": "uint256"
        }
      ],
      "name": "initialize",
      "outputs": [],
      "stateMutability": "nonpayable",
      "type": "function"
    },
    {
      "inputs": [],
      "name": "isInitialized",
      "outputs": [
        {
          "internalType": "bool",
          "name": "",
          "type": "bool"
        }
      ],
      "stateMutability": "view",
      "type": "function"
    },
    {
      "inputs": [],
      "name": "isLeverageEnabled",
      "outputs": [
        {
          "internalType": "bool",
          "name": "",
          "type": "bool"
        }
      ],
      "stateMutability": "view",
      "type": "function"
    },
    {
      "inputs": [
        {
          "internalType": "address",
          "name": "",
          "type": "address"
        }
      ],
      "name": "isLiquidator",
      "outputs": [
        {
          "internalType": "bool",
          "name": "",
          "type": "bool"
        }
      ],
      "stateMutability": "view",
      "type": "function"
    },
    {
      "inputs": [
        {
          "internalType": "address",
          "name": "",
          "type": "address"
        }
      ],
      "name": "isManager",
      "outputs": [
        {
          "internalType": "bool",
          "name": "",
          "type": "bool"
        }
      ],
      "stateMutability": "view",
      "type": "function"
    },
    {
      "inputs": [],
      "name": "isSwapEnabled",
      "outputs": [
        {
          "internalType": "bool",
          "name": "",
          "type": "bool"
        }
      ],
      "stateMutability": "view",
      "type": "function"
    },
    {
      "inputs": [
        {
          "internalType": "address",
          "name": "",
          "type": "address"
        }
      ],
      "name": "lastFundingTimes",
      "outputs": [
        {
          "internalType": "uint256",
          "name": "",
          "type": "uint256"
        }
      ],
      "stateMutability": "view",
      "type": "function"
    },
    {
      "inputs": [
        {
          "internalType": "address",
          "name": "_account",
          "type": "address"
        },
        {
          "internalType": "address",
          "name": "_collateralToken",
          "type": "address"
        },
        {
          "internalType": "address",
          "name": "_indexToken",
          "type": "address"
        },
        {
          "internalType": "bool",
          "name": "_isLong",
          "type": "bool"
        },
        {
          "internalType": "address",
          "name": "_feeReceiver",
          "type": "address"
        }
      ],
      "name": "liquidatePosition",
      "outputs": [],
      "stateMutability": "nonpayable",
      "type": "function"
    },
    {
      "inputs": [],
      "name": "liquidationFeeUsd",
      "outputs": [
        {
          "internalType": "uint256",
          "name": "",
          "type": "uint256"
        }
      ],
      "stateMutability": "view",
      "type": "function"
    },
    {
      "inputs": [],
      "name": "marginFeeBasisPoints",
      "outputs": [
        {
          "internalType": "uint256",
          "name": "",
          "type": "uint256"
        }
      ],
      "stateMutability": "view",
      "type": "function"
    },
    {
      "inputs": [],
      "name": "maxGasPrice",
      "outputs": [
        {
          "internalType": "uint256",
          "name": "",
          "type": "uint256"
        }
      ],
      "stateMutability": "view",
      "type": "function"
    },
    {
      "inputs": [
        {
          "internalType": "address",
          "name": "",
          "type": "address"
        }
      ],
      "name": "maxGlobalShortSizes",
      "outputs": [
        {
          "internalType": "uint256",
          "name": "",
          "type": "uint256"
        }
      ],
      "stateMutability": "view",
      "type": "function"
    },
    {
      "inputs": [],
      "name": "maxLeverage",
      "outputs": [
        {
          "internalType": "uint256",
          "name": "",
          "type": "uint256"
        }
      ],
      "stateMutability": "view",
      "type": "function"
    },
    {
      "inputs": [
        {
          "internalType": "address",
          "name": "",
          "type": "address"
        }
      ],
      "name": "maxUsdgAmounts",
      "outputs": [
        {
          "internalType": "uint256",
          "name": "",
          "type": "uint256"
        }
      ],
      "stateMutability": "view",
      "type": "function"
    },
    {
      "inputs": [
        {
          "internalType": "address",
          "name": "",
          "type": "address"
        }
      ],
      "name": "minProfitBasisPoints",
      "outputs": [
        {
          "internalType": "uint256",
          "name": "",
          "type": "uint256"
        }
      ],
      "stateMutability": "view",
      "type": "function"
    },
    {
      "inputs": [],
      "name": "minProfitTime",
      "outputs": [
        {
          "internalType": "uint256",
          "name": "",
          "type": "uint256"
        }
      ],
      "stateMutability": "view",
      "type": "function"
    },
    {
      "inputs": [],
      "name": "mintBurnFeeBasisPoints",
      "outputs": [
        {
          "internalType": "uint256",
          "name": "",
          "type": "uint256"
        }
      ],
      "stateMutability": "view",
      "type": "function"
    },
    {
      "inputs": [
        {
          "internalType": "address",
          "name": "",
          "type": "address"
        }
      ],
      "name": "poolAmounts",
      "outputs": [
        {
          "internalType": "uint256",
          "name": "",
          "type": "uint256"
        }
      ],
      "stateMutability": "view",
      "type": "function"
    },
    {
      "inputs": [
        {
          "internalType": "bytes32",
          "name": "",
          "type": "bytes32"
        }
      ],
      "name": "positions",
      "outputs": [
        {
          "internalType": "uint256",
          "name": "size",
          "type": "uint256"
        },
        {
          "internalType": "uint256",
          "name": "collateral",
          "type": "uint256"
        },
        {
          "internalType": "uint256",
          "name": "averagePrice",
          "type": "uint256"
        },
        {
          "internalType": "uint256",
          "name": "entryFundingRate",
          "type": "uint256"
        },
        {
          "internalType": "uint256",
          "name": "reserveAmount",
          "type": "uint256"
        },
        {
          "internalType": "int256",
          "name": "realisedPnl",
          "type": "int256"
        },
        {
          "internalType": "uint256",
          "name": "lastIncreasedTime",
          "type": "uint256"
        }
      ],
      "stateMutability": "view",
      "type": "function"
    },
    {
      "inputs": [],
      "name": "priceFeed",
      "outputs": [
        {
          "internalType": "address",
          "name": "",
          "type": "address"
        }
      ],
      "stateMutability": "view",
      "type": "function"
    },
    {
      "inputs": [
        {
          "internalType": "address",
          "name": "_router",
          "type": "address"
        }
      ],
      "name": "removeRouter",
      "outputs": [],
      "stateMutability": "nonpayable",
      "type": "function"
    },
    {
      "inputs": [
        {
          "internalType": "address",
          "name": "",
          "type": "address"
        }
      ],
      "name": "reservedAmounts",
      "outputs": [
        {
          "internalType": "uint256",
          "name": "",
          "type": "uint256"
        }
      ],
      "stateMutability": "view",
      "type": "function"
    },
    {
      "inputs": [],
      "name": "router",
      "outputs": [
        {
          "internalType": "address",
          "name": "",
          "type": "address"
        }
      ],
      "stateMutability": "view",
      "type": "function"
    },
    {
      "inputs": [
        {
          "internalType": "address",
          "name": "_token",
          "type": "address"
        },
        {
          "internalType": "address",
          "name": "_receiver",
          "type": "address"
        }
      ],
      "name": "sellUSDG",
      "outputs": [
        {
          "internalType": "uint256",
          "name": "",
          "type": "uint256"
        }
      ],
      "stateMutability": "nonpayable",
      "type": "function"
    },
    {
      "inputs": [
        {
          "internalType": "address",
          "name": "_token",
          "type": "address"
        },
        {
          "internalType": "uint256",
          "name": "_amount",
          "type": "uint256"
        }
      ],
      "name": "setBufferAmount",
      "outputs": [],
      "stateMutability": "nonpayable",
      "type": "function"
    },
    {
      "inputs": [
        {
          "internalType": "uint256",
          "name": "_errorCode",
          "type": "uint256"
        },
        {
          "internalType": "string",
          "name": "_error",
          "type": "string"
        }
      ],
      "name": "setError",
      "outputs": [],
      "stateMutability": "nonpayable",
      "type": "function"
    },
    {
      "inputs": [
        {
          "internalType": "address",
          "name": "_errorController",
          "type": "address"
        }
      ],
      "name": "setErrorController",
      "outputs": [],
      "stateMutability": "nonpayable",
      "type": "function"
    },
    {
      "inputs": [
        {
          "internalType": "uint256",
          "name": "_taxBasisPoints",
          "type": "uint256"
        },
        {
          "internalType": "uint256",
          "name": "_stableTaxBasisPoints",
          "type": "uint256"
        },
        {
          "internalType": "uint256",
          "name": "_mintBurnFeeBasisPoints",
          "type": "uint256"
        },
        {
          "internalType": "uint256",
          "name": "_swapFeeBasisPoints",
          "type": "uint256"
        },
        {
          "internalType": "uint256",
          "name": "_stableSwapFeeBasisPoints",
          "type": "uint256"
        },
        {
          "internalType": "uint256",
          "name": "_marginFeeBasisPoints",
          "type": "uint256"
        },
        {
          "internalType": "uint256",
          "name": "_liquidationFeeUsd",
          "type": "uint256"
        },
        {
          "internalType": "uint256",
          "name": "_minProfitTime",
          "type": "uint256"
        },
        {
          "internalType": "bool",
          "name": "_hasDynamicFees",
          "type": "bool"
        }
      ],
      "name": "setFees",
      "outputs": [],
      "stateMutability": "nonpayable",
      "type": "function"
    },
    {
      "inputs": [
        {
          "internalType": "uint256",
          "name": "_fundingInterval",
          "type": "uint256"
        },
        {
          "internalType": "uint256",
          "name": "_fundingRateFactor",
          "type": "uint256"
        },
        {
          "internalType": "uint256",
          "name": "_stableFundingRateFactor",
          "type": "uint256"
        }
      ],
      "name": "setFundingRate",
      "outputs": [],
      "stateMutability": "nonpayable",
      "type": "function"
    },
    {
      "inputs": [
        {
          "internalType": "address",
          "name": "_gov",
          "type": "address"
        }
      ],
      "name": "setGov",
      "outputs": [],
      "stateMutability": "nonpayable",
      "type": "function"
    },
    {
      "inputs": [
        {
          "internalType": "bool",
          "name": "_inManagerMode",
          "type": "bool"
        }
      ],
      "name": "setInManagerMode",
      "outputs": [],
      "stateMutability": "nonpayable",
      "type": "function"
    },
    {
      "inputs": [
        {
          "internalType": "bool",
          "name": "_inPrivateLiquidationMode",
          "type": "bool"
        }
      ],
      "name": "setInPrivateLiquidationMode",
      "outputs": [],
      "stateMutability": "nonpayable",
      "type": "function"
    },
    {
      "inputs": [
        {
          "internalType": "bool",
          "name": "_isLeverageEnabled",
          "type": "bool"
        }
      ],
      "name": "setIsLeverageEnabled",
      "outputs": [],
      "stateMutability": "nonpayable",
      "type": "function"
    },
    {
      "inputs": [
        {
          "internalType": "bool",
          "name": "_isSwapEnabled",
          "type": "bool"
        }
      ],
      "name": "setIsSwapEnabled",
      "outputs": [],
      "stateMutability": "nonpayable",
      "type": "function"
    },
    {
      "inputs": [
        {
          "internalType": "address",
          "name": "_liquidator",
          "type": "address"
        },
        {
          "internalType": "bool",
          "name": "_isActive",
          "type": "bool"
        }
      ],
      "name": "setLiquidator",
      "outputs": [],
      "stateMutability": "nonpayable",
      "type": "function"
    },
    {
      "inputs": [
        {
          "internalType": "address",
          "name": "_manager",
          "type": "address"
        },
        {
          "internalType": "bool",
          "name": "_isManager",
          "type": "bool"
        }
      ],
      "name": "setManager",
      "outputs": [],
      "stateMutability": "nonpayable",
      "type": "function"
    },
    {
      "inputs": [
        {
          "internalType": "uint256",
          "name": "_maxGasPrice",
          "type": "uint256"
        }
      ],
      "name": "setMaxGasPrice",
      "outputs": [],
      "stateMutability": "nonpayable",
      "type": "function"
    },
    {
      "inputs": [
        {
          "internalType": "address",
          "name": "_token",
          "type": "address"
        },
        {
          "internalType": "uint256",
          "name": "_amount",
          "type": "uint256"
        }
      ],
      "name": "setMaxGlobalShortSize",
      "outputs": [],
      "stateMutability": "nonpayable",
      "type": "function"
    },
    {
      "inputs": [
        {
          "internalType": "uint256",
          "name": "_maxLeverage",
          "type": "uint256"
        }
      ],
      "name": "setMaxLeverage",
      "outputs": [],
      "stateMutability": "nonpayable",
      "type": "function"
    },
    {
      "inputs": [
        {
          "internalType": "address",
          "name": "_priceFeed",
          "type": "address"
        }
      ],
      "name": "setPriceFeed",
      "outputs": [],
      "stateMutability": "nonpayable",
      "type": "function"
    },
    {
      "inputs": [
        {
          "internalType": "address",
          "name": "_token",
          "type": "address"
        },
        {
          "internalType": "uint256",
          "name": "_tokenDecimals",
          "type": "uint256"
        },
        {
          "internalType": "uint256",
          "name": "_tokenWeight",
          "type": "uint256"
        },
        {
          "internalType": "uint256",
          "name": "_minProfitBps",
          "type": "uint256"
        },
        {
          "internalType": "uint256",
          "name": "_maxUsdgAmount",
          "type": "uint256"
        },
        {
          "internalType": "bool",
          "name": "_isStable",
          "type": "bool"
        },
        {
          "internalType": "bool",
          "name": "_isShortable",
          "type": "bool"
        }
      ],
      "name": "setTokenConfig",
      "outputs": [],
      "stateMutability": "nonpayable",
      "type": "function"
    },
    {
      "inputs": [
        {
          "internalType": "address",
          "name": "_token",
          "type": "address"
        },
        {
          "internalType": "uint256",
          "name": "_amount",
          "type": "uint256"
        }
      ],
      "name": "setUsdgAmount",
      "outputs": [],
      "stateMutability": "nonpayable",
      "type": "function"
    },
    {
      "inputs": [
        {
          "internalType": "contract IVaultUtils",
          "name": "_vaultUtils",
          "type": "address"
        }
      ],
      "name": "setVaultUtils",
      "outputs": [],
      "stateMutability": "nonpayable",
      "type": "function"
    },
    {
      "inputs": [
        {
          "internalType": "address",
          "name": "",
          "type": "address"
        }
      ],
      "name": "shortableTokens",
      "outputs": [
        {
          "internalType": "bool",
          "name": "",
          "type": "bool"
        }
      ],
      "stateMutability": "view",
      "type": "function"
    },
    {
      "inputs": [],
      "name": "stableFundingRateFactor",
      "outputs": [
        {
          "internalType": "uint256",
          "name": "",
          "type": "uint256"
        }
      ],
      "stateMutability": "view",
      "type": "function"
    },
    {
      "inputs": [],
      "name": "stableSwapFeeBasisPoints",
      "outputs": [
        {
          "internalType": "uint256",
          "name": "",
          "type": "uint256"
        }
      ],
      "stateMutability": "view",
      "type": "function"
    },
    {
      "inputs": [],
      "name": "stableTaxBasisPoints",
      "outputs": [
        {
          "internalType": "uint256",
          "name": "",
          "type": "uint256"
        }
      ],
      "stateMutability": "view",
      "type": "function"
    },
    {
      "inputs": [
        {
          "internalType": "address",
          "name": "",
          "type": "address"
        }
      ],
      "name": "stableTokens",
      "outputs": [
        {
          "internalType": "bool",
          "name": "",
          "type": "bool"
        }
      ],
      "stateMutability": "view",
      "type": "function"
    },
    {
      "inputs": [
        {
          "internalType": "address",
          "name": "_tokenIn",
          "type": "address"
        },
        {
          "internalType": "address",
          "name": "_tokenOut",
          "type": "address"
        },
        {
          "internalType": "address",
          "name": "_receiver",
          "type": "address"
        }
      ],
      "name": "swap",
      "outputs": [
        {
          "internalType": "uint256",
          "name": "",
          "type": "uint256"
        }
      ],
      "stateMutability": "nonpayable",
      "type": "function"
    },
    {
      "inputs": [],
      "name": "swapFeeBasisPoints",
      "outputs": [
        {
          "internalType": "uint256",
          "name": "",
          "type": "uint256"
        }
      ],
      "stateMutability": "view",
      "type": "function"
    },
    {
      "inputs": [],
      "name": "taxBasisPoints",
      "outputs": [
        {
          "internalType": "uint256",
          "name": "",
          "type": "uint256"
        }
      ],
      "stateMutability": "view",
      "type": "function"
    },
    {
      "inputs": [
        {
          "internalType": "address",
          "name": "",
          "type": "address"
        }
      ],
      "name": "tokenBalances",
      "outputs": [
        {
          "internalType": "uint256",
          "name": "",
          "type": "uint256"
        }
      ],
      "stateMutability": "view",
      "type": "function"
    },
    {
      "inputs": [
        {
          "internalType": "address",
          "name": "",
          "type": "address"
        }
      ],
      "name": "tokenDecimals",
      "outputs": [
        {
          "internalType": "uint256",
          "name": "",
          "type": "uint256"
        }
      ],
      "stateMutability": "view",
      "type": "function"
    },
    {
      "inputs": [
        {
          "internalType": "address",
          "name": "_token",
          "type": "address"
        },
        {
          "internalType": "uint256",
          "name": "_tokenAmount",
          "type": "uint256"
        }
      ],
      "name": "tokenToUsdMin",
      "outputs": [
        {
          "internalType": "uint256",
          "name": "",
          "type": "uint256"
        }
      ],
      "stateMutability": "view",
      "type": "function"
    },
    {
      "inputs": [
        {
          "internalType": "address",
          "name": "",
          "type": "address"
        }
      ],
      "name": "tokenWeights",
      "outputs": [
        {
          "internalType": "uint256",
          "name": "",
          "type": "uint256"
        }
      ],
      "stateMutability": "view",
      "type": "function"
    },
    {
      "inputs": [],
      "name": "totalTokenWeights",
      "outputs": [
        {
          "internalType": "uint256",
          "name": "",
          "type": "uint256"
        }
      ],
      "stateMutability": "view",
      "type": "function"
    },
    {
      "inputs": [
        {
          "internalType": "address",
          "name": "_collateralToken",
          "type": "address"
        },
        {
          "internalType": "address",
          "name": "_indexToken",
          "type": "address"
        }
      ],
      "name": "updateCumulativeFundingRate",
      "outputs": [],
      "stateMutability": "nonpayable",
      "type": "function"
    },
    {
      "inputs": [
        {
          "internalType": "address",
          "name": "_newVault",
          "type": "address"
        },
        {
          "internalType": "address",
          "name": "_token",
          "type": "address"
        },
        {
          "internalType": "uint256",
          "name": "_amount",
          "type": "uint256"
        }
      ],
      "name": "upgradeVault",
      "outputs": [],
      "stateMutability": "nonpayable",
      "type": "function"
    },
    {
      "inputs": [
        {
          "internalType": "address",
          "name": "_token",
          "type": "address"
        },
        {
          "internalType": "uint256",
          "name": "_usdAmount",
          "type": "uint256"
        },
        {
          "internalType": "uint256",
          "name": "_price",
          "type": "uint256"
        }
      ],
      "name": "usdToToken",
      "outputs": [
        {
          "internalType": "uint256",
          "name": "",
          "type": "uint256"
        }
      ],
      "stateMutability": "view",
      "type": "function"
    },
    {
      "inputs": [
        {
          "internalType": "address",
          "name": "_token",
          "type": "address"
        },
        {
          "internalType": "uint256",
          "name": "_usdAmount",
          "type": "uint256"
        }
      ],
      "name": "usdToTokenMax",
      "outputs": [
        {
          "internalType": "uint256",
          "name": "",
          "type": "uint256"
        }
      ],
      "stateMutability": "view",
      "type": "function"
    },
    {
      "inputs": [
        {
          "internalType": "address",
          "name": "_token",
          "type": "address"
        },
        {
          "internalType": "uint256",
          "name": "_usdAmount",
          "type": "uint256"
        }
      ],
      "name": "usdToTokenMin",
      "outputs": [
        {
          "internalType": "uint256",
          "name": "",
          "type": "uint256"
        }
      ],
      "stateMutability": "view",
      "type": "function"
    },
    {
      "inputs": [],
      "name": "usdg",
      "outputs": [
        {
          "internalType": "address",
          "name": "",
          "type": "address"
        }
      ],
      "stateMutability": "view",
      "type": "function"
    },
    {
      "inputs": [
        {
          "internalType": "address",
          "name": "",
          "type": "address"
        }
      ],
      "name": "usdgAmounts",
      "outputs": [
        {
          "internalType": "uint256",
          "name": "",
          "type": "uint256"
        }
      ],
      "stateMutability": "view",
      "type": "function"
    },
    {
      "inputs": [],
      "name": "useSwapPricing",
      "outputs": [
        {
          "internalType": "bool",
          "name": "",
          "type": "bool"
        }
      ],
      "stateMutability": "view",
      "type": "function"
    },
    {
      "inputs": [
        {
          "internalType": "address",
          "name": "_account",
          "type": "address"
        },
        {
          "internalType": "address",
          "name": "_collateralToken",
          "type": "address"
        },
        {
          "internalType": "address",
          "name": "_indexToken",
          "type": "address"
        },
        {
          "internalType": "bool",
          "name": "_isLong",
          "type": "bool"
        },
        {
          "internalType": "bool",
          "name": "_raise",
          "type": "bool"
        }
      ],
      "name": "validateLiquidation",
      "outputs": [
        {
          "internalType": "uint256",
          "name": "state",
          "type": "uint256"
        },
        {
          "internalType": "uint256",
          "name": "fees",
          "type": "uint256"
        }
      ],
      "stateMutability": "view",
      "type": "function"
    },
    {
      "inputs": [],
      "name": "vaultUtils",
      "outputs": [
        {
          "internalType": "contract IVaultUtils",
          "name": "",
          "type": "address"
        }
      ],
      "stateMutability": "view",
      "type": "function"
    },
    {
      "inputs": [],
      "name": "whitelistedTokenCount",
      "outputs": [
        {
          "internalType": "uint256",
          "name": "",
          "type": "uint256"
        }
      ],
      "stateMutability": "view",
      "type": "function"
    },
    {
      "inputs": [
        {
          "internalType": "address",
          "name": "",
          "type": "address"
        }
      ],
      "name": "whitelistedTokens",
      "outputs": [
        {
          "internalType": "bool",
          "name": "",
          "type": "bool"
        }
      ],
      "stateMutability": "view",
      "type": "function"
    },
    {
      "inputs": [
        {
          "internalType": "address",
          "name": "_token",
          "type": "address"
        },
        {
          "internalType": "address",
          "name": "_receiver",
          "type": "address"
        }
      ],
      "name": "withdrawFees",
      "outputs": [
        {
          "internalType": "uint256",
          "name": "",
          "type": "uint256"
        }
      ],
      "stateMutability": "nonpayable",
      "type": "function"
    }
  ],
  "bytecode": "0x60806040526001805462ff00001961ff00199091166101001716620100001781556207a1206008556032600a9081556014600b55601e600c819055600d556004600e55600f556011805460ff199081169091556170806012556016805463ffffff0019921690921716905534801561007657600080fd5b506001600055600680546001600160a01b03191633179055615ec9806200009e6000396000f3fe608060405234801561001057600080fd5b50600436106105695760003560e01c806304fef1db1461056e57806307c58752146105a65780630842b076146105ae5780630a48d5a9146105b657806310eb56c2146105e2578063126082cf146105ea57806312d43a51146105f2578063134ca63b14610616578063174d26941461061e578063181e210e146106265780631aa4ace5146106425780631ce9cb8f1461066857806324b0c04d1461068e57806324ca984e146106af57806328e67be5146106d557806329ff96151461074a5780632c668ec1146107705780632d4b05761461079c57806330455ede146107da578063318bc689146107f957806334c1557d146105ea578063351a964d14610801578063392e53cd146108095780633a05dcc1146108115780633c5a6e35146108375780633de39c11146108855780633e72a2621461088d57806340eb38021461089557806342152873146108e657806342b60b031461091a5780634453a3741461094057806345a6f3701461096e57806348d91abf146109c757806348f35cbb14610a0b5780634a3f088d14610a135780634a993ee914610a945780634befe2ca14610aba5780634d47b30414610ac2578063514ea4bf14610aca57806351723e8214610b1f578063523fba7f14610b5d578063529a356f14610b8357806352f55eed14610ba95780635c07eaab14610bcf5780635f7bc11914610c0f5780636092219914610c3557806362287a3214610c635780636274980314610c6b5780636abbe0c814610c915780636ae0b15414610c995780636be6026b14610cbf57806371089f4d14610cc7578063711e619014610ced578063724e78da14610d1b578063728cdbca14610d41578063741bef1a14610d895780637a210a2b14610d915780637c2eb9f714610d99578063817bb85714610db857806381a612d614610de657806382a0849014610e0c5780638585f4d214610e60578063870d917c14610e8c57806388b1fbdf14610e945780638a27d46814610eba5780638a39735a146105ea5780638a78daa814610ee35780638ee573ac14610f095780638f7b840414610f2f5780639060b1ca14610f555780639331621214610f5d57806395082d2514610f955780639698d25a14610f9d5780639849e41214610fc35780639899cd0214610fcb5780639d7432ca14610ff75780639f392eb314611029578063a22f239214611031578063a42ab3d214611039578063a5e90eee14611065578063a93acac214611093578063ab08c1c6146110b9578063ab2f3ad4146110c1578063ad1e4f8d146110e7578063ae3302c21461110d578063b06423f314611115578063b136ca491461111d578063b1cc53ab14611143578063b364accb1461117b578063c3c7b9e9146111a1578063c4f718bf146111c7578063c65bc7b1146111cf578063c7e074c3146111f5578063cea0c32814611235578063cfad57a21461126b578063d2fa635e14611291578063d3127e63146112ae578063d54d5a9f146112cb578063d66b000d1461132a578063d8f897c314611356578063d9ac42251461137c578063da76524c14611384578063daf9c210146113ce578063db3555fb146113f4578063db97495f1461141a578063dc8f5fac14611466578063de2ea9481461146e578063df73a267146114b6578063e124e6d2146114be578063e468baf0146114e4578063e67f59a714611501578063efa10a6e14611527578063f07456ce14611553578063f07bbf7714611579578063f255527814611598578063f3ae2415146115c6578063f5b91b7b146115ec578063f887ea40146115f4578063fa12dbc0146115fc578063fbfded6d1461162e578063fce28c101461165c578063fdaf6ac314611664578063fed1a606146116a8575b600080fd5b6105946004803603602081101561058457600080fd5b50356001600160a01b031661173a565b60408051918252519081900360200190f35b61059461179d565b6105946117ae565b610594600480360360408110156105cc57600080fd5b506001600160a01b0381351690602001356117b4565b610594611807565b61059461180d565b6105fa611813565b604080516001600160a01b039092168252519081900360200190f35b610594611822565b610594611828565b61062e61182e565b604080519115158252519081900360200190f35b6105946004803603602081101561065857600080fd5b50356001600160a01b031661183e565b6105946004803603602081101561067e57600080fd5b50356001600160a01b0316611850565b6106ad600480360360208110156106a457600080fd5b50351515611862565b005b6106ad600480360360208110156106c557600080fd5b50356001600160a01b0316611886565b6106ad600480360360408110156106eb57600080fd5b81359190810190604081016020820135600160201b81111561070c57600080fd5b82018360208201111561071e57600080fd5b803590602001918460018302840111600160201b8311171561073f57600080fd5b5090925090506118b7565b6105946004803603602081101561076057600080fd5b50356001600160a01b0316611935565b6105946004803603604081101561078657600080fd5b506001600160a01b038135169060200135611949565b610594600480360360808110156107b257600080fd5b506001600160a01b03813581169160208101358216916040820135169060600135151561198e565b6106ad600480360360208110156107f057600080fd5b503515156119e4565b610594611a06565b61062e611a0c565b61062e611a1a565b6105946004803603602081101561082757600080fd5b50356001600160a01b0316611a23565b6106ad600480360360e081101561084d57600080fd5b506001600160a01b038135169060208101359060408101359060608101359060808101359060a081013515159060c001351515611ae3565b610594611c25565b61062e611c2b565b6106ad60048036036101208110156108ac57600080fd5b5080359060208101359060408101359060608101359060808101359060a08101359060c08101359060e08101359061010001351515611c3a565b610594600480360360608110156108fc57600080fd5b508035906001600160a01b0360208201358116916040013516611cf4565b61062e6004803603602081101561093057600080fd5b50356001600160a01b0316611d96565b6106ad6004803603604081101561095657600080fd5b506001600160a01b0381351690602001351515611dab565b6109ac6004803603608081101561098457600080fd5b506001600160a01b038135811691602081013582169160408201351690606001351515611dde565b60408051921515835260208301919091528051918290030190f35b6106ad600480360360a08110156109dd57600080fd5b506001600160a01b038135811691602081013582169160408201351690606081013590608001351515611e7c565b6105fa6122a9565b610a5160048036036080811015610a2957600080fd5b506001600160a01b0381358116916020810135821691604082013516906060013515156122b8565b604080519889526020890197909752878701959095526060870193909352608086019190915260a0850152151560c084015260e083015251908190036101000190f35b61059460048036036020811015610aaa57600080fd5b50356001600160a01b03166123a2565b6105946123b4565b6105946123ba565b610ae760048036036020811015610ae057600080fd5b50356123c0565b604080519788526020880196909652868601949094526060860192909252608085015260a084015260c0830152519081900360e00190f35b61059460048036036080811015610b3557600080fd5b506001600160a01b0381358116916020810135821691604082013516906060013515156123fd565b61059460048036036020811015610b7357600080fd5b50356001600160a01b03166124a3565b61062e60048036036020811015610b9957600080fd5b50356001600160a01b03166124b5565b61059460048036036020811015610bbf57600080fd5b50356001600160a01b03166124ca565b6109ac600480360360a0811015610be557600080fd5b506001600160a01b03813516906020810135906040810135906060810135151590608001356124dc565b6106ad60048036036020811015610c2557600080fd5b50356001600160a01b03166125cf565b61062e60048036036040811015610c4b57600080fd5b506001600160a01b03813581169160200135166126b2565b6105946126d2565b61059460048036036020811015610c8157600080fd5b50356001600160a01b03166126d8565b6105fa6126ea565b6106ad60048036036020811015610caf57600080fd5b50356001600160a01b0316612700565b61059461272e565b6106ad60048036036020811015610cdd57600080fd5b50356001600160a01b0316612735565b61059460048036036040811015610d0357600080fd5b506001600160a01b0381358116916020013516612769565b6106ad60048036036020811015610d3157600080fd5b50356001600160a01b03166129fd565b6106ad600480360360c0811015610d5757600080fd5b506001600160a01b03813581169160208101358216916040820135169060608101359060808101359060a00135612a27565b6105fa612a9e565b610594612aad565b6106ad60048036036020811015610daf57600080fd5b50351515612ab3565b61059460048036036040811015610dce57600080fd5b506001600160a01b0381358116916020013516612ad7565b61059460048036036020811015610dfc57600080fd5b50356001600160a01b0316612da7565b610594600480360360e0811015610e2257600080fd5b506001600160a01b0381358116916020810135821691604082013581169160608101359160808201359160a081013515159160c09091013516612e52565b6106ad60048036036040811015610e7657600080fd5b506001600160a01b038135169060200135612ed0565b610594612ef4565b61059460048036036020811015610eaa57600080fd5b50356001600160a01b0316612ef9565b6106ad60048036036060811015610ed057600080fd5b5080359060208101359060400135612f0b565b61059460048036036020811015610ef957600080fd5b50356001600160a01b0316612f51565b61059460048036036020811015610f1f57600080fd5b50356001600160a01b0316612f63565b6106ad60048036036020811015610f4557600080fd5b50356001600160a01b0316612f75565b61062e612f9f565b61059460048036036060811015610f7357600080fd5b506001600160a01b038135811691602081013582169160409091013516612fae565b610594613296565b61059460048036036020811015610fb357600080fd5b50356001600160a01b03166132a6565b6105946132b8565b61059460048036036040811015610fe157600080fd5b506001600160a01b0381351690602001356132be565b6105946004803603606081101561100d57600080fd5b506001600160a01b0381351690602081013590604001356132e0565b61062e613389565b610594613392565b6105946004803603604081101561104f57600080fd5b506001600160a01b038135169060200135613398565b6106ad6004803603604081101561107b57600080fd5b506001600160a01b03813516906020013515156133b5565b610594600480360360208110156110a957600080fd5b50356001600160a01b03166133e8565b61062e6134e6565b610594600480360360208110156110d757600080fd5b50356001600160a01b03166134ef565b610594600480360360208110156110fd57600080fd5b50356001600160a01b0316613501565b610594613513565b61062e613519565b6105946004803603602081101561113357600080fd5b50356001600160a01b0316613527565b6105946004803603606081101561115957600080fd5b506001600160a01b0381358116916020810135909116906040013515156135c8565b6109ac6004803603602081101561119157600080fd5b50356001600160a01b0316613663565b610594600480360360208110156111b757600080fd5b50356001600160a01b03166136f8565b61059461370a565b610594600480360360208110156111e557600080fd5b50356001600160a01b0316613710565b610594600480360360a081101561120b57600080fd5b506001600160a01b0381351690602081013590604081013590606081013590608001351515613722565b6106ad6004803603606081101561124b57600080fd5b506001600160a01b038135811691602081013590911690604001356137cc565b6106ad6004803603602081101561128157600080fd5b50356001600160a01b03166137ed565b6106ad600480360360208110156112a757600080fd5b5035613817565b6106ad600480360360208110156112c457600080fd5b5035613824565b611311600480360360a08110156112e157600080fd5b506001600160a01b0381358116916020810135821691604082013516906060810135151590608001351515613840565b6040805192835260208301919091528051918290030190f35b6106ad6004803603604081101561134057600080fd5b506001600160a01b0381351690602001356138f7565b6105946004803603602081101561136c57600080fd5b50356001600160a01b0316613950565b610594613962565b610594600480360360c081101561139a57600080fd5b506001600160a01b038135811691602081013582169160408201351690606081013515159060808101359060a00135613968565b61062e600480360360208110156113e457600080fd5b50356001600160a01b0316613a1c565b61062e6004803603602081101561140a57600080fd5b50356001600160a01b0316613a31565b610594600480360360e081101561143057600080fd5b506001600160a01b0381351690602081013590604081013590606081013515159060808101359060a08101359060c00135613a45565b610594613ad6565b6106ad600480360360a081101561148457600080fd5b506001600160a01b03813581169160208101358216916040820135811691606081013515159160809091013516613adc565b610594613ea2565b610594600480360360208110156114d457600080fd5b50356001600160a01b0316613ea8565b6105fa600480360360208110156114fa57600080fd5b5035613f20565b6106ad6004803603602081101561151757600080fd5b50356001600160a01b0316613f47565b6106ad6004803603604081101561153d57600080fd5b506001600160a01b03813516906020013561401a565b6105946004803603602081101561156957600080fd5b50356001600160a01b031661403e565b6106ad6004803603602081101561158f57600080fd5b50351515614050565b610594600480360360408110156115ae57600080fd5b506001600160a01b0381358116916020013516614076565b61062e600480360360208110156115dc57600080fd5b50356001600160a01b03166140cc565b6105fa6140e1565b6105fa6140f0565b6105946004803603606081101561161257600080fd5b506001600160a01b0381351690602081013590604001356140ff565b6106ad6004803603604081101561164457600080fd5b506001600160a01b0381358116916020013516614139565b610594614312565b610594600480360360a081101561167a57600080fd5b506001600160a01b038135811691602081013582169160408201351690606081013515159060800135614318565b6116c5600480360360208110156116be57600080fd5b503561438e565b6040805160208082528351818301528351919283929083019185019080838360005b838110156116ff5781810151838201526020016116e7565b50505050905090810190601f16801561172c5780820380516001836020036101000a031916815260200191505b509250505060405180910390f35b6001600160a01b03811660009081526025602052604081205480611762576000915050611798565b6001600160a01b03831660009081526026602052604090205461179490829061178e90620f4240614429565b90614482565b9150505b919050565b6904ee2d6d415b85acef8160201b81565b601b5490565b6000816117c357506000611801565b60006117ce84612da7565b6001600160a01b0385166000908152601d60205260409020549091506117fc600a82900a61178e8685614429565b925050505b92915050565b600b5481565b61271081565b6006546001600160a01b031681565b60145481565b60095481565b6016546301000000900460ff1681565b60236020526000908152604090205481565b602c6020526000908152604090205481565b61186a6144c1565b60168054911515620100000262ff000019909216919091179055565b3360009081526018602090815260408083206001600160a01b0394909416835292905220805460ff19166001179055565b6002546001600160a01b03163314611916576040805162461bcd60e51b815260206004820152601e60248201527f5661756c743a20696e76616c6964206572726f72436f6e74726f6c6c65720000604482015290519081900360640190fd5b600083815260306020526040902061192f908383615cd8565b50505050565b60006118018261194484613527565b6117b4565b60008061195584613ea8565b905060006119738261178e8668327cb2734119d3b7a9601e1b614429565b6005549091506117fc9082906001600160a01b031687611cf4565b604080516001600160601b0319606096871b811660208084019190915295871b811660348301529390951b9092166048850152151560f81b605c8401528051603d818503018152605d9093019052815191012090565b6119ec6144c1565b600180549115156101000261ff0019909216919091179055565b600f5481565b600154610100900460ff1681565b60015460ff1681565b600080600560009054906101000a90046001600160a01b03166001600160a01b03166318160ddd6040518163ffffffff1660e01b815260040160206040518083038186803b158015611a7457600080fd5b505afa158015611a88573d6000803e3d6000fd5b505050506040513d6020811015611a9e57600080fd5b5051905080611ab1576000915050611798565b6001600160a01b038316600090815260226020526040902054601554611adb9061178e8385614429565b949350505050565b611aeb6144c1565b6001600160a01b0387166000908152601c602052604090205460ff16611b6857600754611b199060016144dc565b600755601b80546001810182556000919091527f3ad8aa4f87544323a9d1e5dd902f40c356527a7955687113db5f9a85ad579dc10180546001600160a01b0319166001600160a01b0389161790555b6015546001600160a01b038816600090815260226020526040902054611b8f908290614534565b6001600160a01b0389166000908152601c602090815260408083208054600160ff1991821617909155601d83528184208c9055602283528184208b9055601e83528184208a905560248352818420899055601f83528184208054821689151517905591805290912080549091168415151790559050611c0e81876144dc565b601555611c1a88613ea8565b505050505050505050565b60175481565b60015462010000900460ff1681565b611c426144c1565b611c526101f48a11156003614576565b611c626101f48911156004614576565b611c726101f48811156005614576565b611c826101f48711156006614576565b611c926101f48611156007614576565b611ca26101f48511156008614576565b611cbd6904ee2d6d415b85acef8160201b8411156009614576565b600a98909855600b96909655600c94909455600d92909255600e55600f556009556010556011805460ff1916911515919091179055565b60055460009081906001600160a01b03858116911614611d2c576001600160a01b0384166000908152601d6020526040902054611d2f565b60125b6005549091506000906001600160a01b03858116911614611d68576001600160a01b0384166000908152601d6020526040902054611d6b565b60125b9050611d8a82600a0a61178e83600a0a8961442990919063ffffffff16565b925050505b9392505050565b601f6020526000908152604090205460ff1681565b611db36144c1565b6001600160a01b03919091166000908152601960205260409020805460ff1916911515919091179055565b6000806000611def8787878761198e565b9050611df9615d56565b506000818152602b6020908152604091829020825160e081018452815480825260018301549382019390935260028201549381018490526003820154606082015260048201546080820152600582015460a082015260069091015460c082018190529092611e6d92899290919089906124dc565b93509350505094509492505050565b60026000541415611ec2576040805162461bcd60e51b815260206004820152601f6024820152600080516020615da9833981519152604482015290519081900360640190fd5b6002600055600154611ede9062010000900460ff16601c614576565b611ee6614622565b611eef8561463e565b611efa8484836146a1565b60015460408051634eae147d60e11b81526001600160a01b038881166004830152878116602483015286811660448301526064820186905284151560848301529151630100000090930490911691639d5c28fa9160a480820192600092909190829003018186803b158015611f6e57600080fd5b505afa158015611f82573d6000803e3d6000fd5b50505050611f908484614139565b6000611f9e8686868561198e565b6000818152602b6020526040812091925083611fc257611fbd86612da7565b611fcb565b611fcb86613ea8565b8254909150611fdc57600282018190555b815415801590611fec5750600085115b156120125761200c868360000154846002015487858a8860060154613a45565b60028301555b600061202b898989888a886000015489600301546147b6565b9050600061203889614872565b905060006120468a836117b4565b600186015490915061205890826144dc565b6001860181905561206d90841115601d614576565b600185015461207c9084614534565b600186015561208c8a8a896135c8565b6003860155845461209d90896144dc565b8086554260068701556120b3901515601e614576565b6120c58560000154866001015461491f565b6120d38b8b8b8a6001613840565b505060006120e18b8a613398565b60048701549091506120f390826144dc565b60048701556121028b82614943565b87156121475761211b8b6121168b876144dc565b6149e3565b6121258b83614a62565b61212f8b84614ae1565b6121428b61213d8d876132be565b614bf9565b6121b3565b6001600160a01b038a166000908152602d6020526040902054612184576001600160a01b038a166000908152602e602052604090208590556121a9565b61218f8a868b6132e0565b6001600160a01b038b166000908152602e60205260409020555b6121b38a8a614ccc565b604080518881526001600160a01b03808f166020830152808e16828401528c1660608201526080810184905260a081018b905289151560c082015260e08101879052610100810186905290517f2fe68525253654c21998f35787a8d0f361905ef647c854092430ab65f2f15022918190036101200190a1855460018701546002880154600389015460048a015460058b0154604080518e81526020810197909752868101959095526060860193909352608085019190915260a084015260c083015260e0820187905251600080516020615dc9833981519152918190036101000190a15050600160005550505050505050505050565b6002546001600160a01b031681565b60008060008060008060008060006122d28d8d8d8d61198e565b90506122dc615d56565b506000818152602b60209081526040808320815160e081018352815481526001820154938101939093526002810154918301919091526003810154606083015260048101546080830152600581015460a0830181905260069091015460c0830152909112612351578060a00151600003612357565b8060a001515b9450806000015181602001518260400151836060015184608001518960008760a0015112158760c0015199509950995099509950995099509950505094995094995094999196509450565b60276020526000908152604090205481565b6101f481565b600c5481565b602b602052600090815260409020805460018201546002830154600384015460048501546005860154600690960154949593949293919290919087565b60008061240c8686868661198e565b9050612416615d56565b506000818152602b6020908152604091829020825160e0810184528154815260018201549281018390526002820154938101939093526003810154606084015260048101546080840152600581015460a08401526006015460c08301526124809015156025614576565b60208101518151612498919061178e90612710614429565b979650505050505050565b60216020526000908152604090205481565b60196020526000908152604090205460ff1681565b60256020526000908152604090205481565b6000806124ed600086116026614576565b600084612502576124fd88613ea8565b61250b565b61250b88612da7565b90506000818711612525576125208288614534565b61252f565b61252f8783614534565b905061253f8761178e8a84614429565b92508515612551578682119350612557565b81871193505b600061256e601054876144dc90919063ffffffff16565b4211612592576001600160a01b038a166000908152601e6020526040902054612595565b60005b90508480156125b857506125a98982614429565b6125b585612710614429565b11155b156125c257600093505b5050509550959350505050565b60026000541415612615576040805162461bcd60e51b815260206004820152601f6024820152600080516020615da9833981519152604482015290519081900360640190fd5b600260009081556001600160a01b0382168152601c60205260409020546126409060ff16600e614576565b600061264b82614872565b905061265b60008211600f614576565b6126658282614ae1565b604080516001600160a01b03841681526020810183905281517fa5a389190ebf6170a133bda5c769b77f4d6715b8aa172ec0ddf8473d0b4944bd929181900390910190a150506001600055565b601860209081526000928352604080842090915290825290205460ff1681565b60075481565b602e6020526000908152604090205481565b600154630100000090046001600160a01b031681565b3360009081526018602090815260408083206001600160a01b0394909416835292905220805460ff19169055565b620f424081565b61273d6144c1565b600180546001600160a01b039092166301000000026301000000600160b81b0319909216919091179055565b6000600260005414156127b1576040805162461bcd60e51b815260206004820152601f6024820152600080516020615da9833981519152604482015290519081900360640190fd5b60026000556127be614d84565b6001600160a01b0383166000908152601c60205260409020546127e59060ff166013614576565b6016805461ff00191661010017905560055460009061280c906001600160a01b0316614872565b905061281c600082116014614576565b6128268485614139565b60006128328583611949565b9050612842600082116015614576565b61284c8583614db3565b6128568582614bf9565b60055460408051632770a7eb60e21b81523060048201526024810185905290516001600160a01b0390921691639dc29fac9160448082019260009290919082900301818387803b1580156128a957600080fd5b505af11580156128bd573d6000803e3d6000fd5b50506005546128d792506001600160a01b03169050614e71565b6001546040805163eb0835bf60e01b81526001600160a01b038881166004830152602482018690529151600093630100000090049092169163eb0835bf91604480820192602092909190829003018186803b15801561293557600080fd5b505afa158015612949573d6000803e3d6000fd5b505050506040513d602081101561295f57600080fd5b505190506000612970878484614f0c565b9050612980600082116016614576565b61298b878288614fd4565b604080516001600160a01b03808916825289166020820152808201869052606081018390526080810184905290517fd732b7828fa6cee72c285eac756fc66a7477e3dc22e22e7c432f1c265d40b4839181900360a00190a16016805461ff001916905560016000559695505050505050565b612a056144c1565b600480546001600160a01b0319166001600160a01b0392909216919091179055565b612a2f6144c1565b60018054612a439160ff9091161590614576565b6001805460ff191681179055600380546001600160a01b03199081166001600160a01b039889161790915560058054821696881696909617909555600480549095169390951692909217909255600991909155601355601455565b6004546001600160a01b031681565b600a5481565b612abb6144c1565b60018054911515620100000262ff000019909216919091179055565b600060026000541415612b1f576040805162461bcd60e51b815260206004820152601f6024820152600080516020615da9833981519152604482015290519081900360640190fd5b6002600055612b2c614d84565b6001600160a01b0383166000908152601c6020526040902054612b539060ff166010614576565b6016805461ff0019166101001790556000612b6d84614872565b9050612b7d600082116011614576565b612b878485614139565b6000612b9285612da7565b90506000612bb068327cb2734119d3b7a9601e1b61178e8585614429565b600554909150612bcc90829088906001600160a01b0316611cf4565b9050612bdc600082116012614576565b6001546040805163256f6ee360e11b81526001600160a01b0389811660048301526024820185905291516000936301000000900490921691634adeddc691604480820192602092909190829003018186803b158015612c3a57600080fd5b505afa158015612c4e573d6000803e3d6000fd5b505050506040513d6020811015612c6457600080fd5b505190506000612c75888684614f0c565b90506000612c9368327cb2734119d3b7a9601e1b61178e8488614429565b600554909150612caf9082908b906001600160a01b0316611cf4565b9050612cbb898261507b565b612cc58983614ae1565b600554604080516340c10f1960e01b81526001600160a01b038b8116600483015260248201859052915191909216916340c10f1991604480830192600092919082900301818387803b158015612d1a57600080fd5b505af1158015612d2e573d6000803e3d6000fd5b5050604080516001600160a01b03808d1682528d1660208201528082018a9052606081018590526080810187905290517fab4c77c74cd32c85f35416cf03e7ce9e2d4387f7b7f2c1f4bf53daaecf8ea72d93509081900360a0019150a16016805461ff0019169055600160005598975050505050505050565b60048054601654604080516317e1d38560e11b81526001600160a01b038681169582019590955260006024820181905260ff80851615156044840152610100909404909316151560648201529051919390921691632fc3a70a916084808301926020929190829003018186803b158015612e2057600080fd5b505afa158015612e34573d6000803e3d6000fd5b505050506040513d6020811015612e4a57600080fd5b505192915050565b600060026000541415612e9a576040805162461bcd60e51b815260206004820152601f6024820152600080516020615da9833981519152604482015290519081900360640190fd5b6002600055612ea7614622565b612eb08861463e565b612ebf88888888888888615139565b600160005598975050505050505050565b612ed86144c1565b6001600160a01b03909116600090815260276020526040902055565b601281565b601e6020526000908152604090205481565b612f136144c1565b612f23610e10841015600a614576565b612f33612710831115600b614576565b612f43612710821115600c614576565b601292909255601355601455565b602d6020526000908152604090205481565b601d6020526000908152604090205481565b612f7d6144c1565b600280546001600160a01b0319166001600160a01b0392909216919091179055565b60165462010000900460ff1681565b600060026000541415612ff6576040805162461bcd60e51b815260206004820152601f6024820152600080516020615da9833981519152604482015290519081900360640190fd5b600260005560015461301190610100900460ff166017614576565b6001600160a01b0384166000908152601c60205260409020546130389060ff166018614576565b6001600160a01b0383166000908152601c602052604090205461305f9060ff166019614576565b61307f836001600160a01b0316856001600160a01b03161415601a614576565b6016805461ff0019166101001790556130988480614139565b6130a28384614139565b60006130ad85614872565b90506130bd60008211601b614576565b60006130c886612da7565b905060006130d586613ea8565b905060006130e78261178e8686614429565b90506130f4818989611cf4565b9050600061311268327cb2734119d3b7a9601e1b61178e8787614429565b60055490915061312e9082908b906001600160a01b0316611cf4565b60015460408051636d099c0b60e11b81526001600160a01b038d811660048301528c8116602483015260448201859052915193945060009363010000009093049091169163da13381691606480820192602092909190829003018186803b15801561319857600080fd5b505afa1580156131ac573d6000803e3d6000fd5b505050506040513d60208110156131c257600080fd5b5051905060006131d38a8584614f0c565b90506131df8b8461507b565b6131e98a84614db3565b6131f38b88614ae1565b6131fd8a85614bf9565b6132068a6155c6565b6132118a828b614fd4565b604080516001600160a01b03808c168252808e1660208301528c1681830152606081018990526080810186905260a0810183905260c0810184905290517f0874b2d545cb271cdbda4e093020c452328b24af12382ed62c4d00f5c26709db9181900360e00190a16016805461ff001916905560016000559a9950505050505050505050565b68327cb2734119d3b7a9601e1b81565b602f6020526000908152604090205481565b60125481565b6000816132cd57506000611801565b611d8f83836132db86613ea8565b6140ff565b6001600160a01b0383166000908152602d6020908152604080832054602e9092528220548285821161331b576133168683614534565b613325565b6133258287614534565b905060006133378361178e8685614429565b9050868311600061334886896144dc565b90506000826133605761335b82856144dc565b61336a565b61336a8285614534565b905061337a8161178e8c85614429565b9b9a5050505050505050505050565b60115460ff1681565b600d5481565b6000816133a757506000611801565b611d8f83836132db86612da7565b6133bd6144c1565b6001600160a01b03919091166000908152601a60205260409020805460ff1916911515919091179055565b6012546001600160a01b0382166000908152602a602052604081205490914291613411916144dc565b111561341f57506000611798565b6012546001600160a01b0383166000908152602a6020526040812054909161344c9161178e904290614534565b6001600160a01b0384166000908152602560205260409020549091508061347857600092505050611798565b6001600160a01b0384166000908152601f602052604081205460ff166134a0576013546134a4565b6014545b6001600160a01b0386166000908152602660205260409020549091506134dd90839061178e9086906134d7908690614429565b90614429565b95945050505050565b60165460ff1681565b60226020526000908152604090205481565b60246020526000908152604090205481565b60085481565b601654610100900460ff1681565b6001600160a01b0381166000908152601f602052604081205460ff161561356757506001600160a01b038116600090815260256020526040902054611798565b6001600160a01b03821660009081526028602052604081205461358b9084906132be565b6001600160a01b038416600090815260266020908152604080832054602590925290912054919250611794916135c29084906144dc565b90614534565b6001546040805163b1cc53ab60e01b81526001600160a01b038681166004830152858116602483015284151560448301529151600093630100000090049092169163b1cc53ab91606480820192602092909190829003018186803b15801561362f57600080fd5b505afa158015613643573d6000803e3d6000fd5b505050506040513d602081101561365957600080fd5b5051949350505050565b6001600160a01b0381166000908152602d60205260408120548190806136905760008092509250506136f3565b600061369b85613ea8565b6001600160a01b0386166000908152602e60205260408120549192508282116136cd576136c88383614534565b6136d7565b6136d78284614534565b90506136e78261178e8684614429565b94508282119550505050505b915091565b60266020526000908152604090205481565b60135481565b60296020526000908152604090205481565b6001546040805163c7e074c360e01b81526001600160a01b03888116600483015260248201889052604482018790526064820186905284151560848301529151600093630100000090049092169163c7e074c39160a480820192602092909190829003018186803b15801561379657600080fd5b505afa1580156137aa573d6000803e3d6000fd5b505050506040513d60208110156137c057600080fd5b50519695505050505050565b6137d46144c1565b6137e86001600160a01b038316848361563b565b505050565b6137f56144c1565b600680546001600160a01b0319166001600160a01b0392909216919091179055565b61381f6144c1565b601755565b61382c6144c1565b61383b61271082116002614576565b600855565b6001546040805163d54d5a9f60e01b81526001600160a01b03888116600483015287811660248301528681166044830152851515606483015284151560848301528251600094859463010000009091049092169263d54d5a9f9260a4808301939192829003018186803b1580156138b657600080fd5b505afa1580156138ca573d6000803e3d6000fd5b505050506040513d60408110156138e057600080fd5b508051602090910151909890975095505050505050565b6138ff6144c1565b6001600160a01b03821660009081526023602052604090205480821115613939576139338361392e8484614534565b61507b565b5061394c565b6137e8836139478385614534565b614db3565b5050565b602a6020526000908152604090205481565b60105481565b6001546040805163369d949360e21b81526001600160a01b0389811660048301528881166024830152878116604483015286151560648301526084820186905260a482018590529151600093630100000090049092169163da76524c9160c480820192602092909190829003018186803b1580156139e557600080fd5b505afa1580156139f9573d6000803e3d6000fd5b505050506040513d6020811015613a0f57600080fd5b5051979650505050505050565b601c6020526000908152604090205460ff1681565b602080526000908152604090205460ff1681565b6000806000613a578a8a8a8a886124dc565b90925090506000613a688a876144dc565b905060008815613a975783613a8657613a818284614534565b613a90565b613a9082846144dc565b9050613ab8565b83613aab57613aa682846144dc565b613ab5565b613ab58284614534565b90505b613ac68161178e8a85614429565b9c9b505050505050505050505050565b60155481565b60026000541415613b22576040805162461bcd60e51b815260206004820152601f6024820152600080516020615da9833981519152604482015290519081900360640190fd5b60026000556016546301000000900460ff1615613b575733600090815260196020526040902054613b579060ff166022614576565b6016805460ff19169055613b6b8484614139565b6000613b798686868661198e565b9050613b83615d56565b506000818152602b6020908152604091829020825160e08101845281548082526001830154938201939093526002820154938101939093526003810154606084015260048101546080840152600581015460a08401526006015460c0830152613bef9015156023614576565b600080613c00898989896000613840565b91509150613c1382600014156024614576565b8160021415613c4857613c30898989600087600001518b8f615139565b50506016805460ff1916600117905550613e96915050565b6000613c5489836132be565b6001600160a01b038a166000908152602c6020526040902054909150613c7a90826144dc565b6001600160a01b038a166000818152602c60209081526040918290209390935580519182529181018490528082018390529051600080516020615e748339815191529181900360600190a1613cd389856080015161568d565b8615613d025760208401518451613cf4918b91613cef91614534565b614a62565b613d028961213d8b856132be565b600087613d1757613d1289613ea8565b613d20565b613d2089612da7565b90507f2e1f85a64a2f22cf2f0c42584e7c919ed4abe8d53675cff0f62bf1e95a1c676f868c8c8c8c8a600001518b602001518c608001518d60a001518a604051808b81526020018a6001600160a01b03168152602001896001600160a01b03168152602001886001600160a01b0316815260200187151581526020018681526020018581526020018481526020018381526020018281526020019a505050505050505050505060405180910390a187158015613ddf5750846020015183105b15613e0d576020850151600090613df69085614534565b9050613e0b8b613e068d846132be565b614ae1565b505b87613e2057613e20898660000151615742565b6000868152602b60205260408120818155600181018290556002810182905560038101829055600481018290556005810182905560060155600954613e6c908b9061213d9082906132be565b613e828a613e7c8c6009546132be565b89614fd4565b50506016805460ff19166001179055505050505b50506001600055505050565b600e5481565b60048054601654604080516317e1d38560e11b81526001600160a01b03868116958201959095526001602482015260ff80841615156044830152610100909304909216151560648301525160009390921691632fc3a70a91608480820192602092909190829003018186803b158015612e2057600080fd5b601b8181548110613f2d57fe5b6000918252602090912001546001600160a01b0316905081565b613f4f6144c1565b6001600160a01b0381166000908152601c6020526040902054613f769060ff16600d614576565b6001600160a01b038116600090815260226020526040902054601554613f9b91614534565b6015556001600160a01b0381166000908152601c60209081526040808320805460ff19908116909155601d835281842084905560228352818420849055601e835281842084905560248352818420849055601f835281842080548216905591805290912080549091169055600754614014906001614534565b60075550565b6140226144c1565b6001600160a01b039091166000908152602f6020526040902055565b60286020526000908152604090205481565b6140586144c1565b6016805491151563010000000263ff00000019909216919091179055565b60006140806144c1565b6001600160a01b0383166000908152602c6020526040902054806140a8576000915050611801565b6001600160a01b0384166000908152602c6020526040812055611d8f848285614fd4565b601a6020526000908152604090205460ff1681565b6005546001600160a01b031681565b6003546001600160a01b031681565b60008261410e57506000611d8f565b6001600160a01b0384166000908152601d60205260409020546134dd8361178e86600a85900a614429565b6001546040805163fbfded6d60e01b81526001600160a01b03858116600483015284811660248301529151600093630100000090049092169163fbfded6d9160448082019260209290919082900301818787803b15801561419957600080fd5b505af11580156141ad573d6000803e3d6000fd5b505050506040513d60208110156141c357600080fd5b50519050806141d2575061394c565b6001600160a01b0383166000908152602a602052604090205461421f57601254614200906134d74282614482565b6001600160a01b0384166000908152602a60205260409020555061394c565b6012546001600160a01b0384166000908152602a6020526040902054429161424791906144dc565b1115614253575061394c565b600061425e846133e8565b6001600160a01b03851660009081526029602052604090205490915061428490826144dc565b6001600160a01b0385166000908152602960205260409020556012546142ae906134d74282614482565b6001600160a01b0385166000818152602a602090815260408083209490945560298152908390205483519283529082015281517fa146fc154e1913322e9817d49f0d5c37466c24326e15de10e739a948be815eab929181900390910190a150505050565b610e1081565b6001546040805163fdaf6ac360e01b81526001600160a01b038881166004830152878116602483015286811660448301528515156064830152608482018590529151600093630100000090049092169163fdaf6ac39160a480820192602092909190829003018186803b15801561379657600080fd5b60306020908152600091825260409182902080548351601f6002600019610100600186161502019093169290920491820184900484028101840190945280845290918301828280156144215780601f106143f657610100808354040283529160200191614421565b820191906000526020600020905b81548152906001019060200180831161440457829003601f168201915b505050505081565b60008261443857506000611801565b8282028284828161444557fe5b0414611d8f5760405162461bcd60e51b8152600401808060200182810382526021815260200180615e096021913960400191505060405180910390fd5b6000611d8f83836040518060400160405280601a815260200179536166654d6174683a206469766973696f6e206279207a65726f60301b8152506157aa565b6006546144da906001600160a01b031633146035614576565b565b600082820183811015611d8f576040805162461bcd60e51b815260206004820152601b60248201527a536166654d6174683a206164646974696f6e206f766572666c6f7760281b604482015290519081900360640190fd5b6000611d8f83836040518060400160405280601e81526020017f536166654d6174683a207375627472616374696f6e206f766572666c6f77000081525061584c565b6000818152603060205260409020826137e85760405162461bcd60e51b81526020600482019081528254600260001961010060018416150201909116046024830181905290918291604490910190849080156146135780601f106145e857610100808354040283529160200191614613565b820191906000526020600020905b8154815290600101906020018083116145f657829003601f168201915b50509250505060405180910390fd5b60175461462e576144da565b6144da6017543a11156037614576565b336001600160a01b03821614156146545761469e565b6003546001600160a01b031633141561466c5761469e565b6001600160a01b038116600090815260186020908152604080832033845290915290205461469e9060ff166029614576565b50565b801561471a576146c6826001600160a01b0316846001600160a01b031614602a614576565b6001600160a01b0383166000908152601c60205260409020546146ed9060ff16602b614576565b6001600160a01b0383166000908152601f60205260409020546147159060ff1615602c614576565b6137e8565b6001600160a01b0383166000908152601c60205260409020546147419060ff16602d614576565b6001600160a01b0383166000908152601f60205260409020546147689060ff16602e614576565b6001600160a01b0382166000908152601f60205260409020546147909060ff1615602f614576565b6001600160a01b03821660009081526020805260409020546137e89060ff166030614576565b6000806147c68989898989614318565b905060006147d88a8a8a8a8989613968565b90506147e482826144dc565b915060006147f28a846132be565b6001600160a01b038b166000908152602c602052604090205490915061481890826144dc565b6001600160a01b038b166000818152602c60209081526040918290209390935580519182529181018590528082018390529051600080516020615e748339815191529181900360600190a150909998505050505050505050565b6001600160a01b03811660008181526021602090815260408083205481516370a0823160e01b8152306004820152915193949093859391926370a08231926024808301939192829003018186803b1580156148cc57600080fd5b505afa1580156148e0573d6000803e3d6000fd5b505050506040513d60208110156148f657600080fd5b50516001600160a01b03851660009081526021602052604090208190559050611adb8183614534565b816149355761493081156027614576565b61394c565b61394c818310156028614576565b6001600160a01b03821660009081526026602052604090205461496690826144dc565b6001600160a01b03831660009081526026602081815260408084208590556025825290922054915261499b9111156034614576565b604080516001600160a01b03841681526020810183905281517faa5649d82f5462be9d19b0f2b31a59b2259950a6076550bac9f3a1c07db9f66d929181900390910190a15050565b6001600160a01b038216600090815260286020526040902054614a0690826144dc565b6001600160a01b03831660008181526028602090815260409182902093909355805191825291810183905281517fd9d4761f75e0d0103b5cbeab941eeb443d7a56a35b5baf2a0787c03f03f4e474929181900390910190a15050565b6001600160a01b038216600090815260286020526040902054614a859082614534565b6001600160a01b03831660008181526028602090815260409182902093909355805191825291810183905281517f34e07158b9db50df5613e591c44ea2ebc82834eff4a4dc3a46e000e608261d68929181900390910190a15050565b6001600160a01b038216600090815260256020526040902054614b0490826144dc565b6001600160a01b03831660008181526025602090815260408083209490945583516370a0823160e01b8152306004820152935191936370a082319260248083019392829003018186803b158015614b5a57600080fd5b505afa158015614b6e573d6000803e3d6000fd5b505050506040513d6020811015614b8457600080fd5b50516001600160a01b038416600090815260256020526040902054909150614bb0908210156031614576565b604080516001600160a01b03851681526020810184905281517f976177fbe09a15e5e43f848844963a42b41ef919ef17ff21a17a5421de8f4737929181900390910190a1505050565b604080518082018252601a81527915985d5b1d0e881c1bdbdb105b5bdd5b9d08195e18d95959195960321b6020808301919091526001600160a01b038516600090815260259091529190912054614c5191839061584c565b6001600160a01b03831660009081526025602090815260408083208490556026909152902054614c849110156032614576565b604080516001600160a01b03841681526020810183905281517f112726233fbeaeed0f5b1dba5cb0b2b81883dee49fb35ff99fd98ed9f6d31eb0929181900390910190a15050565b6001600160a01b0382166000908152602d6020526040902054614cef90826144dc565b6001600160a01b0383166000908152602d6020908152604080832093909355602f9052205480156137e8576001600160a01b0383166000908152602d60205260409020548110156137e8576040805162461bcd60e51b815260206004820152601a60248201527915985d5b1d0e881b585e081cda1bdc9d1cc8195e18d95959195960321b604482015290519081900360640190fd5b60165462010000900460ff16156144da57336000908152601a60205260409020546144da9060ff166036614576565b6001600160a01b038216600090815260236020526040902054818111614e1c576001600160a01b038316600081815260236020908152604080832092909255815192835282018390528051600080516020615e2a8339815191529281900390910190a15061394c565b614e268183614534565b6001600160a01b0384166000818152602360209081526040918290209390935580519182529181018490528151600080516020615e2a833981519152929181900390910190a1505050565b6000816001600160a01b03166370a08231306040518263ffffffff1660e01b815260040180826001600160a01b0316815260200191505060206040518083038186803b158015614ec057600080fd5b505afa158015614ed4573d6000803e3d6000fd5b505050506040513d6020811015614eea57600080fd5b50516001600160a01b0390921660009081526021602052604090209190915550565b600080614f2961271061178e614f228287614534565b8790614429565b90506000614f378583614534565b6001600160a01b0387166000908152602c6020526040902054909150614f5d90826144dc565b6001600160a01b0387166000908152602c60205260409020557f47cd9dda0e50ce30bcaaacd0488452b596221c07ac402a581cfae4d3933cac2b86614fa281846117b4565b604080516001600160a01b0390931683526020830191909152818101849052519081900360600190a150949350505050565b614fe86001600160a01b038416828461563b565b604080516370a0823160e01b815230600482015290516001600160a01b038516916370a08231916024808301926020929190829003018186803b15801561502e57600080fd5b505afa158015615042573d6000803e3d6000fd5b505050506040513d602081101561505857600080fd5b50516001600160a01b039093166000908152602160205260409020929092555050565b6001600160a01b03821660009081526023602052604090205461509e90826144dc565b6001600160a01b03831660009081526023602090815260408083209390935560249052205480156150f0576001600160a01b0383166000908152602360205260409020546150f0908210156033614576565b604080516001600160a01b03851681526020810184905281517f64243679a443432e2293343b77d411ff6144370404618f00ca0d2025d9ca9882929181900390910190a1505050565b600154604080516381d11a2360e01b81526001600160a01b038a8116600483015289811660248301528881166044830152606482018890526084820187905285151560a483015284811660c4830152915160009363010000009004909216916381d11a239160e4808201928692909190829003018186803b1580156151bd57600080fd5b505afa1580156151d1573d6000803e3d6000fd5b505050506151df8787614139565b60006151ed8989898761198e565b6000818152602b6020526040902080549192509061520e901515601f614576565b61522086826000015410156020614576565b61523287826001015410156021614576565b60018101548154600483015460009161524f9161178e908b614429565b60048401549091506152619082614534565b60048401556152708b8261568d565b506000806152828d8d8d8d8d8d6158a6565b8554919350915089146154025761529a8c8c8a6135c8565b600385015583546152ab908a614534565b80855560018501546152bd919061491f565b6152cb8d8d8d8b6001613840565b505087156152f8576152ee8c61211686600101548661453490919063ffffffff16565b6152f88c8a614a62565b60008861530d576153088c613ea8565b615316565b6153168c612da7565b9050600080516020615de9833981519152868f8f8f8f8f8f886153398c8c614534565b60408051998a526001600160a01b0398891660208b015296881689880152949096166060880152608087019290925260a0860152151560c085015260e084019290925261010083019190915251908190036101200190a18454600186015460028701546003880154600489015460058a0154604080518d81526020810197909752868101959095526060860193909352608085019190915260a084015260c083015260e0820183905251600080516020615dc9833981519152918190036101000190a150615564565b871561541c576154128c846149e3565b61541c8c8a614a62565b6000886154315761542c8c613ea8565b61543a565b61543a8c612da7565b9050600080516020615de9833981519152868f8f8f8f8f8f8861545d8c8c614534565b60408051998a526001600160a01b0398891660208b015296881689880152949096166060880152608087019290925260a0860152151560c085015260e084019290925261010083019190915251908190036101200190a18454600186015460028701546003880154600489015460058a0154604080518d81526020810197909752868101959095526060860193909352608085019190915260a084015260c0830152517f73af1d417d82c240fdb6d319b34ad884487c6bf2845d98980cc52ad9171cb4559181900360e00190a1506000858152602b602052604081208181556001810182905560028101829055600381018290556004810182905560058101829055600601555b87615573576155738b8a615742565b81156155b357871561558d5761558d8c61213d8e856132be565b60006155998d836132be565b90506155a68d828a614fd4565b9550612498945050505050565b5060009c9b505050505050505050505050565b6001600160a01b038116600090815260276020908152604080832054602590925290912054101561469e576040805162461bcd60e51b815260206004820152601a6024820152792b30bab63a1d103837b7b620b6b7bab73a101e10313ab33332b960311b604482015290519081900360640190fd5b604080516001600160a01b038416602482015260448082018490528251808303909101815260649091019091526020810180516001600160e01b031663a9059cbb60e01b1790526137e8908490615aa0565b604080518082018252601b81527a5661756c743a20696e73756666696369656e74207265736572766560281b6020808301919091526001600160a01b0385166000908152602690915291909120546156e691839061584c565b6001600160a01b03831660008181526026602090815260409182902093909355805191825291810183905281517f533cb5ed32be6a90284e96b5747a1bfc2d38fdb5768a6b5f67ff7d62144ed67b929181900390910190a15050565b6001600160a01b0382166000908152602d60205260409020548082111561578257506001600160a01b0382166000908152602d602052604081205561394c565b61578c8183614534565b6001600160a01b0384166000908152602d6020526040902055505050565b600081836158365760405162461bcd60e51b81526004018080602001828103825283818151815260200191508051906020019080838360005b838110156157fb5781810151838201526020016157e3565b50505050905090810190601f1680156158285780820380516001836020036101000a031916815260200191505b509250505060405180910390fd5b50600083858161584257fe5b0495945050505050565b6000818484111561589e5760405162461bcd60e51b81526020600482018181528351602484015283519092839260449091019190850190808383600083156157fb5781810151838201526020016157e3565b505050900390565b60008060006158b78989898761198e565b6000818152602b602052604081208054600382015493945090926158e4918d918d918d918b918d916147b6565b90506000806000806159058d876000015488600201548d8a600601546124dc565b8754919550859350915061591d9061178e8d84614429565b9250505060008280156159305750600082115b1561596057506005840180548201905580886159605760006159528e846132be565b905061595e8e82614bf9565b505b8215801561596e5750600082115b156159b25760018501546159829083614534565b6001860155886159a65760006159988e846132be565b90506159a48e82614ae1565b505b60058501805483900390555b8a156159da576159c2818c6144dc565b60018601549091506159d4908c614534565b60018601555b84548a14156159fd5760018501546159f39082906144dc565b6000600187015590505b8084811115615a1757615a108286614534565b9050615a4b565b6001860154615a269086614534565b60018701558915615a4b576000615a3d8f876132be565b9050615a498f82614bf9565b505b60408051888152851515602082015280820185905290517f3ff41bdde87755b687ae83d0221a232b6be51a803330ed9661c1b5d0105e0d8a9181900360600190a1909e909d509b505050505050505050505050565b6060615af5826040518060400160405280602081526020017f5361666545524332303a206c6f772d6c6576656c2063616c6c206661696c6564815250856001600160a01b0316615b519092919063ffffffff16565b8051909150156137e857808060200190516020811015615b1457600080fd5b50516137e85760405162461bcd60e51b815260040180806020018281038252602a815260200180615e4a602a913960400191505060405180910390fd5b6060611adb848460008585615b6585615c6c565b615bb6576040805162461bcd60e51b815260206004820152601d60248201527f416464726573733a2063616c6c20746f206e6f6e2d636f6e7472616374000000604482015290519081900360640190fd5b60006060866001600160a01b031685876040518082805190602001908083835b60208310615bf55780518252601f199092019160209182019101615bd6565b6001836020036101000a03801982511681845116808217855250505050505090500191505060006040518083038185875af1925050503d8060008114615c57576040519150601f19603f3d011682016040523d82523d6000602084013e615c5c565b606091505b5091509150612498828286615c72565b3b151590565b60608315615c81575081611d8f565b825115615c915782518084602001fd5b60405162461bcd60e51b81526020600482018181528451602484015284518593919283926044019190850190808383600083156157fb5781810151838201526020016157e3565b828054600181600116156101000203166002900490600052602060002090601f016020900481019282601f10615d195782800160ff19823516178555615d46565b82800160010185558215615d46579182015b82811115615d46578235825591602001919060010190615d2b565b50615d52929150615d93565b5090565b6040518060e00160405280600081526020016000815260200160008152602001600081526020016000815260200160008152602001600081525090565b5b80821115615d525760008155600101615d9456fe5265656e7472616e637947756172643a207265656e7472616e742063616c6c0020853733b590dce729d9f4628682ebd9a34d2354e72679e66f43a008fc03b77393d75d64d1f84fc6f430a64fc578bdd4c1e090e90ea2d51773e626d19de56d30536166654d6174683a206d756c7469706c69636174696f6e206f766572666c6f77e1e812596aac93a06ecc4ca627014d18e30f5c33b825160cc9d5c0ba61e452275361666545524332303a204552433230206f7065726174696f6e20646964206e6f7420737563636565645d0c0019d3d45fadeb74eff9d2c9924d146d000ac6bcf3c28bf0ac3c9baa011aa2646970667358221220ad288672fb713e2578aa197d8065c3aecd00675269269c9bcf790791bdaf63d264736f6c634300060c0033",
  "linkReferences": {},
  "deployedLinkReferences": {}
}