{
  "_format": "hh-sol-artifact-1",
  "contractName": "Reader",
  "sourceName": "contracts/reader/Reader.sol",
  "abi": [
    {
      "inputs": [
        {
          "internalType": "address",
          "name": "market",
          "type": "address"
        }
      ],
      "name": "DisabledMarket",
      "type": "error"
    },
    {
      "inputs": [],
      "name": "EmptyMarket",
      "type": "error"
    },
    {
      "inputs": [
        {
          "internalType": "contract DataStore",
          "name": "dataStore",
          "type": "address"
        },
        {
          "internalType": "address",
          "name": "account",
          "type": "address"
        },
        {
          "internalType": "uint256",
          "name": "start",
          "type": "uint256"
        },
        {
          "internalType": "uint256",
          "name": "end",
          "type": "uint256"
        }
      ],
      "name": "getAccountOrders",
      "outputs": [
        {
          "components": [
            {
              "components": [
                {
                  "internalType": "address",
                  "name": "account",
                  "type": "address"
                },
                {
                  "internalType": "address",
                  "name": "receiver",
                  "type": "address"
                },
                {
                  "internalType": "address",
                  "name": "callbackContract",
                  "type": "address"
                },
                {
                  "internalType": "address",
                  "name": "uiFeeReceiver",
                  "type": "address"
                },
                {
                  "internalType": "address",
                  "name": "market",
                  "type": "address"
                },
                {
                  "internalType": "address",
                  "name": "initialCollateralToken",
                  "type": "address"
                },
                {
                  "internalType": "address[]",
                  "name": "swapPath",
                  "type": "address[]"
                }
              ],
              "internalType": "struct Order.Addresses",
              "name": "addresses",
              "type": "tuple"
            },
            {
              "components": [
                {
                  "internalType": "enum Order.OrderType",
                  "name": "orderType",
                  "type": "uint8"
                },
                {
                  "internalType": "enum Order.DecreasePositionSwapType",
                  "name": "decreasePositionSwapType",
                  "type": "uint8"
                },
                {
                  "internalType": "uint256",
                  "name": "sizeDeltaUsd",
                  "type": "uint256"
                },
                {
                  "internalType": "uint256",
                  "name": "initialCollateralDeltaAmount",
                  "type": "uint256"
                },
                {
                  "internalType": "uint256",
                  "name": "triggerPrice",
                  "type": "uint256"
                },
                {
                  "internalType": "uint256",
                  "name": "acceptablePrice",
                  "type": "uint256"
                },
                {
                  "internalType": "uint256",
                  "name": "executionFee",
                  "type": "uint256"
                },
                {
                  "internalType": "uint256",
                  "name": "callbackGasLimit",
                  "type": "uint256"
                },
                {
                  "internalType": "uint256",
                  "name": "minOutputAmount",
                  "type": "uint256"
                },
                {
                  "internalType": "uint256",
                  "name": "updatedAtBlock",
                  "type": "uint256"
                }
              ],
              "internalType": "struct Order.Numbers",
              "name": "numbers",
              "type": "tuple"
            },
            {
              "components": [
                {
                  "internalType": "bool",
                  "name": "isLong",
                  "type": "bool"
                },
                {
                  "internalType": "bool",
                  "name": "shouldUnwrapNativeToken",
                  "type": "bool"
                },
                {
                  "internalType": "bool",
                  "name": "isFrozen",
                  "type": "bool"
                }
              ],
              "internalType": "struct Order.Flags",
              "name": "flags",
              "type": "tuple"
            }
          ],
          "internalType": "struct Order.Props[]",
          "name": "",
          "type": "tuple[]"
        }
      ],
      "stateMutability": "view",
      "type": "function"
    },
    {
      "inputs": [
        {
          "internalType": "contract DataStore",
          "name": "dataStore",
          "type": "address"
        },
        {
          "internalType": "contract IReferralStorage",
          "name": "referralStorage",
          "type": "address"
        },
        {
          "internalType": "bytes32[]",
          "name": "positionKeys",
          "type": "bytes32[]"
        },
        {
          "components": [
            {
              "components": [
                {
                  "internalType": "uint256",
                  "name": "min",
                  "type": "uint256"
                },
                {
                  "internalType": "uint256",
                  "name": "max",
                  "type": "uint256"
                }
              ],
              "internalType": "struct Price.Props",
              "name": "indexTokenPrice",
              "type": "tuple"
            },
            {
              "components": [
                {
                  "internalType": "uint256",
                  "name": "min",
                  "type": "uint256"
                },
                {
                  "internalType": "uint256",
                  "name": "max",
                  "type": "uint256"
                }
              ],
              "internalType": "struct Price.Props",
              "name": "longTokenPrice",
              "type": "tuple"
            },
            {
              "components": [
                {
                  "internalType": "uint256",
                  "name": "min",
                  "type": "uint256"
                },
                {
                  "internalType": "uint256",
                  "name": "max",
                  "type": "uint256"
                }
              ],
              "internalType": "struct Price.Props",
              "name": "shortTokenPrice",
              "type": "tuple"
            }
          ],
          "internalType": "struct MarketUtils.MarketPrices[]",
          "name": "prices",
          "type": "tuple[]"
        },
        {
          "internalType": "address",
          "name": "uiFeeReceiver",
          "type": "address"
        }
      ],
      "name": "getAccountPositionInfoList",
      "outputs": [
        {
          "components": [
            {
              "components": [
                {
                  "components": [
                    {
                      "internalType": "address",
                      "name": "account",
                      "type": "address"
                    },
                    {
                      "internalType": "address",
                      "name": "market",
                      "type": "address"
                    },
                    {
                      "internalType": "address",
                      "name": "collateralToken",
                      "type": "address"
                    }
                  ],
                  "internalType": "struct Position.Addresses",
                  "name": "addresses",
                  "type": "tuple"
                },
                {
                  "components": [
                    {
                      "internalType": "uint256",
                      "name": "sizeInUsd",
                      "type": "uint256"
                    },
                    {
                      "internalType": "uint256",
                      "name": "sizeInTokens",
                      "type": "uint256"
                    },
                    {
                      "internalType": "uint256",
                      "name": "collateralAmount",
                      "type": "uint256"
                    },
                    {
                      "internalType": "uint256",
                      "name": "borrowingFactor",
                      "type": "uint256"
                    },
                    {
                      "internalType": "uint256",
                      "name": "fundingFeeAmountPerSize",
                      "type": "uint256"
                    },
                    {
                      "internalType": "uint256",
                      "name": "longTokenClaimableFundingAmountPerSize",
                      "type": "uint256"
                    },
                    {
                      "internalType": "uint256",
                      "name": "shortTokenClaimableFundingAmountPerSize",
                      "type": "uint256"
                    },
                    {
                      "internalType": "uint256",
                      "name": "increasedAtBlock",
                      "type": "uint256"
                    },
                    {
                      "internalType": "uint256",
                      "name": "decreasedAtBlock",
                      "type": "uint256"
                    }
                  ],
                  "internalType": "struct Position.Numbers",
                  "name": "numbers",
                  "type": "tuple"
                },
                {
                  "components": [
                    {
                      "internalType": "bool",
                      "name": "isLong",
                      "type": "bool"
                    }
                  ],
                  "internalType": "struct Position.Flags",
                  "name": "flags",
                  "type": "tuple"
                }
              ],
              "internalType": "struct Position.Props",
              "name": "position",
              "type": "tuple"
            },
            {
              "components": [
                {
                  "components": [
                    {
                      "internalType": "bytes32",
                      "name": "referralCode",
                      "type": "bytes32"
                    },
                    {
                      "internalType": "address",
                      "name": "affiliate",
                      "type": "address"
                    },
                    {
                      "internalType": "address",
                      "name": "trader",
                      "type": "address"
                    },
                    {
                      "internalType": "uint256",
                      "name": "totalRebateFactor",
                      "type": "uint256"
                    },
                    {
                      "internalType": "uint256",
                      "name": "traderDiscountFactor",
                      "type": "uint256"
                    },
                    {
                      "internalType": "uint256",
                      "name": "totalRebateAmount",
                      "type": "uint256"
                    },
                    {
                      "internalType": "uint256",
                      "name": "traderDiscountAmount",
                      "type": "uint256"
                    },
                    {
                      "internalType": "uint256",
                      "name": "affiliateRewardAmount",
                      "type": "uint256"
                    }
                  ],
                  "internalType": "struct PositionPricingUtils.PositionReferralFees",
                  "name": "referral",
                  "type": "tuple"
                },
                {
                  "components": [
                    {
                      "internalType": "uint256",
                      "name": "fundingFeeAmount",
                      "type": "uint256"
                    },
                    {
                      "internalType": "uint256",
                      "name": "claimableLongTokenAmount",
                      "type": "uint256"
                    },
                    {
                      "internalType": "uint256",
                      "name": "claimableShortTokenAmount",
                      "type": "uint256"
                    },
                    {
                      "internalType": "uint256",
                      "name": "latestFundingFeeAmountPerSize",
                      "type": "uint256"
                    },
                    {
                      "internalType": "uint256",
                      "name": "latestLongTokenClaimableFundingAmountPerSize",
                      "type": "uint256"
                    },
                    {
                      "internalType": "uint256",
                      "name": "latestShortTokenClaimableFundingAmountPerSize",
                      "type": "uint256"
                    }
                  ],
                  "internalType": "struct PositionPricingUtils.PositionFundingFees",
                  "name": "funding",
                  "type": "tuple"
                },
                {
                  "components": [
                    {
                      "internalType": "uint256",
                      "name": "borrowingFeeUsd",
                      "type": "uint256"
                    },
                    {
                      "internalType": "uint256",
                      "name": "borrowingFeeAmount",
                      "type": "uint256"
                    },
                    {
                      "internalType": "uint256",
                      "name": "borrowingFeeReceiverFactor",
                      "type": "uint256"
                    },
                    {
                      "internalType": "uint256",
                      "name": "borrowingFeeAmountForFeeReceiver",
                      "type": "uint256"
                    }
                  ],
                  "internalType": "struct PositionPricingUtils.PositionBorrowingFees",
                  "name": "borrowing",
                  "type": "tuple"
                },
                {
                  "components": [
                    {
                      "internalType": "address",
                      "name": "uiFeeReceiver",
                      "type": "address"
                    },
                    {
                      "internalType": "uint256",
                      "name": "uiFeeReceiverFactor",
                      "type": "uint256"
                    },
                    {
                      "internalType": "uint256",
                      "name": "uiFeeAmount",
                      "type": "uint256"
                    }
                  ],
                  "internalType": "struct PositionPricingUtils.PositionUiFees",
                  "name": "ui",
                  "type": "tuple"
                },
                {
                  "components": [
                    {
                      "internalType": "uint256",
                      "name": "min",
                      "type": "uint256"
                    },
                    {
                      "internalType": "uint256",
                      "name": "max",
                      "type": "uint256"
                    }
                  ],
                  "internalType": "struct Price.Props",
                  "name": "collateralTokenPrice",
                  "type": "tuple"
                },
                {
                  "internalType": "uint256",
                  "name": "positionFeeFactor",
                  "type": "uint256"
                },
                {
                  "internalType": "uint256",
                  "name": "protocolFeeAmount",
                  "type": "uint256"
                },
                {
                  "internalType": "uint256",
                  "name": "positionFeeReceiverFactor",
                  "type": "uint256"
                },
                {
                  "internalType": "uint256",
                  "name": "feeReceiverAmount",
                  "type": "uint256"
                },
                {
                  "internalType": "uint256",
                  "name": "feeAmountForPool",
                  "type": "uint256"
                },
                {
                  "internalType": "uint256",
                  "name": "positionFeeAmountForPool",
                  "type": "uint256"
                },
                {
                  "internalType": "uint256",
                  "name": "positionFeeAmount",
                  "type": "uint256"
                },
                {
                  "internalType": "uint256",
                  "name": "totalCostAmountExcludingFunding",
                  "type": "uint256"
                },
                {
                  "internalType": "uint256",
                  "name": "totalCostAmount",
                  "type": "uint256"
                }
              ],
              "internalType": "struct PositionPricingUtils.PositionFees",
              "name": "fees",
              "type": "tuple"
            },
            {
              "components": [
                {
                  "internalType": "int256",
                  "name": "priceImpactUsd",
                  "type": "int256"
                },
                {
                  "internalType": "uint256",
                  "name": "priceImpactDiffUsd",
                  "type": "uint256"
                },
                {
                  "internalType": "uint256",
                  "name": "executionPrice",
                  "type": "uint256"
                }
              ],
              "internalType": "struct ReaderPricingUtils.ExecutionPriceResult",
              "name": "executionPriceResult",
              "type": "tuple"
            },
            {
              "internalType": "int256",
              "name": "basePnlUsd",
              "type": "int256"
            },
            {
              "internalType": "int256",
              "name": "uncappedBasePnlUsd",
              "type": "int256"
            },
            {
              "internalType": "int256",
              "name": "pnlAfterPriceImpactUsd",
              "type": "int256"
            }
          ],
          "internalType": "struct ReaderUtils.PositionInfo[]",
          "name": "",
          "type": "tuple[]"
        }
      ],
      "stateMutability": "view",
      "type": "function"
    },
    {
      "inputs": [
        {
          "internalType": "contract DataStore",
          "name": "dataStore",
          "type": "address"
        },
        {
          "internalType": "address",
          "name": "account",
          "type": "address"
        },
        {
          "internalType": "uint256",
          "name": "start",
          "type": "uint256"
        },
        {
          "internalType": "uint256",
          "name": "end",
          "type": "uint256"
        }
      ],
      "name": "getAccountPositions",
      "outputs": [
        {
          "components": [
            {
              "components": [
                {
                  "internalType": "address",
                  "name": "account",
                  "type": "address"
                },
                {
                  "internalType": "address",
                  "name": "market",
                  "type": "address"
                },
                {
                  "internalType": "address",
                  "name": "collateralToken",
                  "type": "address"
                }
              ],
              "internalType": "struct Position.Addresses",
              "name": "addresses",
              "type": "tuple"
            },
            {
              "components": [
                {
                  "internalType": "uint256",
                  "name": "sizeInUsd",
                  "type": "uint256"
                },
                {
                  "internalType": "uint256",
                  "name": "sizeInTokens",
                  "type": "uint256"
                },
                {
                  "internalType": "uint256",
                  "name": "collateralAmount",
                  "type": "uint256"
                },
                {
                  "internalType": "uint256",
                  "name": "borrowingFactor",
                  "type": "uint256"
                },
                {
                  "internalType": "uint256",
                  "name": "fundingFeeAmountPerSize",
                  "type": "uint256"
                },
                {
                  "internalType": "uint256",
                  "name": "longTokenClaimableFundingAmountPerSize",
                  "type": "uint256"
                },
                {
                  "internalType": "uint256",
                  "name": "shortTokenClaimableFundingAmountPerSize",
                  "type": "uint256"
                },
                {
                  "internalType": "uint256",
                  "name": "increasedAtBlock",
                  "type": "uint256"
                },
                {
                  "internalType": "uint256",
                  "name": "decreasedAtBlock",
                  "type": "uint256"
                }
              ],
              "internalType": "struct Position.Numbers",
              "name": "numbers",
              "type": "tuple"
            },
            {
              "components": [
                {
                  "internalType": "bool",
                  "name": "isLong",
                  "type": "bool"
                }
              ],
              "internalType": "struct Position.Flags",
              "name": "flags",
              "type": "tuple"
            }
          ],
          "internalType": "struct Position.Props[]",
          "name": "",
          "type": "tuple[]"
        }
      ],
      "stateMutability": "view",
      "type": "function"
    },
    {
      "inputs": [
        {
          "internalType": "contract DataStore",
          "name": "dataStore",
          "type": "address"
        },
        {
          "internalType": "address",
          "name": "market",
          "type": "address"
        },
        {
          "internalType": "bool",
          "name": "isLong",
          "type": "bool"
        },
        {
          "components": [
            {
              "components": [
                {
                  "internalType": "uint256",
                  "name": "min",
                  "type": "uint256"
                },
                {
                  "internalType": "uint256",
                  "name": "max",
                  "type": "uint256"
                }
              ],
              "internalType": "struct Price.Props",
              "name": "indexTokenPrice",
              "type": "tuple"
            },
            {
              "components": [
                {
                  "internalType": "uint256",
                  "name": "min",
                  "type": "uint256"
                },
                {
                  "internalType": "uint256",
                  "name": "max",
                  "type": "uint256"
                }
              ],
              "internalType": "struct Price.Props",
              "name": "longTokenPrice",
              "type": "tuple"
            },
            {
              "components": [
                {
                  "internalType": "uint256",
                  "name": "min",
                  "type": "uint256"
                },
                {
                  "internalType": "uint256",
                  "name": "max",
                  "type": "uint256"
                }
              ],
              "internalType": "struct Price.Props",
              "name": "shortTokenPrice",
              "type": "tuple"
            }
          ],
          "internalType": "struct MarketUtils.MarketPrices",
          "name": "prices",
          "type": "tuple"
        }
      ],
      "name": "getAdlState",
      "outputs": [
        {
          "internalType": "uint256",
          "name": "",
          "type": "uint256"
        },
        {
          "internalType": "bool",
          "name": "",
          "type": "bool"
        },
        {
          "internalType": "int256",
          "name": "",
          "type": "int256"
        },
        {
          "internalType": "uint256",
          "name": "",
          "type": "uint256"
        }
      ],
      "stateMutability": "view",
      "type": "function"
    },
    {
      "inputs": [
        {
          "internalType": "contract DataStore",
          "name": "dataStore",
          "type": "address"
        },
        {
          "internalType": "bytes32",
          "name": "key",
          "type": "bytes32"
        }
      ],
      "name": "getDeposit",
      "outputs": [
        {
          "components": [
            {
              "components": [
                {
                  "internalType": "address",
                  "name": "account",
                  "type": "address"
                },
                {
                  "internalType": "address",
                  "name": "receiver",
                  "type": "address"
                },
                {
                  "internalType": "address",
                  "name": "callbackContract",
                  "type": "address"
                },
                {
                  "internalType": "address",
                  "name": "uiFeeReceiver",
                  "type": "address"
                },
                {
                  "internalType": "address",
                  "name": "market",
                  "type": "address"
                },
                {
                  "internalType": "address",
                  "name": "initialLongToken",
                  "type": "address"
                },
                {
                  "internalType": "address",
                  "name": "initialShortToken",
                  "type": "address"
                },
                {
                  "internalType": "address[]",
                  "name": "longTokenSwapPath",
                  "type": "address[]"
                },
                {
                  "internalType": "address[]",
                  "name": "shortTokenSwapPath",
                  "type": "address[]"
                }
              ],
              "internalType": "struct Deposit.Addresses",
              "name": "addresses",
              "type": "tuple"
            },
            {
              "components": [
                {
                  "internalType": "uint256",
                  "name": "initialLongTokenAmount",
                  "type": "uint256"
                },
                {
                  "internalType": "uint256",
                  "name": "initialShortTokenAmount",
                  "type": "uint256"
                },
                {
                  "internalType": "uint256",
                  "name": "minMarketTokens",
                  "type": "uint256"
                },
                {
                  "internalType": "uint256",
                  "name": "updatedAtBlock",
                  "type": "uint256"
                },
                {
                  "internalType": "uint256",
                  "name": "executionFee",
                  "type": "uint256"
                },
                {
                  "internalType": "uint256",
                  "name": "callbackGasLimit",
                  "type": "uint256"
                }
              ],
              "internalType": "struct Deposit.Numbers",
              "name": "numbers",
              "type": "tuple"
            },
            {
              "components": [
                {
                  "internalType": "bool",
                  "name": "shouldUnwrapNativeToken",
                  "type": "bool"
                }
              ],
              "internalType": "struct Deposit.Flags",
              "name": "flags",
              "type": "tuple"
            }
          ],
          "internalType": "struct Deposit.Props",
          "name": "",
          "type": "tuple"
        }
      ],
      "stateMutability": "view",
      "type": "function"
    },
    {
      "inputs": [
        {
          "internalType": "contract DataStore",
          "name": "dataStore",
          "type": "address"
        },
        {
          "components": [
            {
              "internalType": "address",
              "name": "marketToken",
              "type": "address"
            },
            {
              "internalType": "address",
              "name": "indexToken",
              "type": "address"
            },
            {
              "internalType": "address",
              "name": "longToken",
              "type": "address"
            },
            {
              "internalType": "address",
              "name": "shortToken",
              "type": "address"
            }
          ],
          "internalType": "struct Market.Props",
          "name": "market",
          "type": "tuple"
        },
        {
          "components": [
            {
              "components": [
                {
                  "internalType": "uint256",
                  "name": "min",
                  "type": "uint256"
                },
                {
                  "internalType": "uint256",
                  "name": "max",
                  "type": "uint256"
                }
              ],
              "internalType": "struct Price.Props",
              "name": "indexTokenPrice",
              "type": "tuple"
            },
            {
              "components": [
                {
                  "internalType": "uint256",
                  "name": "min",
                  "type": "uint256"
                },
                {
                  "internalType": "uint256",
                  "name": "max",
                  "type": "uint256"
                }
              ],
              "internalType": "struct Price.Props",
              "name": "longTokenPrice",
              "type": "tuple"
            },
            {
              "components": [
                {
                  "internalType": "uint256",
                  "name": "min",
                  "type": "uint256"
                },
                {
                  "internalType": "uint256",
                  "name": "max",
                  "type": "uint256"
                }
              ],
              "internalType": "struct Price.Props",
              "name": "shortTokenPrice",
              "type": "tuple"
            }
          ],
          "internalType": "struct MarketUtils.MarketPrices",
          "name": "prices",
          "type": "tuple"
        },
        {
          "internalType": "uint256",
          "name": "longTokenAmount",
          "type": "uint256"
        },
        {
          "internalType": "uint256",
          "name": "shortTokenAmount",
          "type": "uint256"
        },
        {
          "internalType": "address",
          "name": "uiFeeReceiver",
          "type": "address"
        }
      ],
      "name": "getDepositAmountOut",
      "outputs": [
        {
          "internalType": "uint256",
          "name": "",
          "type": "uint256"
        }
      ],
      "stateMutability": "view",
      "type": "function"
    },
    {
      "inputs": [
        {
          "internalType": "contract DataStore",
          "name": "dataStore",
          "type": "address"
        },
        {
          "internalType": "address",
          "name": "marketKey",
          "type": "address"
        },
        {
          "components": [
            {
              "internalType": "uint256",
              "name": "min",
              "type": "uint256"
            },
            {
              "internalType": "uint256",
              "name": "max",
              "type": "uint256"
            }
          ],
          "internalType": "struct Price.Props",
          "name": "indexTokenPrice",
          "type": "tuple"
        },
        {
          "internalType": "uint256",
          "name": "positionSizeInUsd",
          "type": "uint256"
        },
        {
          "internalType": "uint256",
          "name": "positionSizeInTokens",
          "type": "uint256"
        },
        {
          "internalType": "int256",
          "name": "sizeDeltaUsd",
          "type": "int256"
        },
        {
          "internalType": "bool",
          "name": "isLong",
          "type": "bool"
        }
      ],
      "name": "getExecutionPrice",
      "outputs": [
        {
          "components": [
            {
              "internalType": "int256",
              "name": "priceImpactUsd",
              "type": "int256"
            },
            {
              "internalType": "uint256",
              "name": "priceImpactDiffUsd",
              "type": "uint256"
            },
            {
              "internalType": "uint256",
              "name": "executionPrice",
              "type": "uint256"
            }
          ],
          "internalType": "struct ReaderPricingUtils.ExecutionPriceResult",
          "name": "",
          "type": "tuple"
        }
      ],
      "stateMutability": "view",
      "type": "function"
    },
    {
      "inputs": [
        {
          "internalType": "contract DataStore",
          "name": "dataStore",
          "type": "address"
        },
        {
          "internalType": "address",
          "name": "key",
          "type": "address"
        }
      ],
      "name": "getMarket",
      "outputs": [
        {
          "components": [
            {
              "internalType": "address",
              "name": "marketToken",
              "type": "address"
            },
            {
              "internalType": "address",
              "name": "indexToken",
              "type": "address"
            },
            {
              "internalType": "address",
              "name": "longToken",
              "type": "address"
            },
            {
              "internalType": "address",
              "name": "shortToken",
              "type": "address"
            }
          ],
          "internalType": "struct Market.Props",
          "name": "",
          "type": "tuple"
        }
      ],
      "stateMutability": "view",
      "type": "function"
    },
    {
      "inputs": [
        {
          "internalType": "contract DataStore",
          "name": "dataStore",
          "type": "address"
        },
        {
          "internalType": "bytes32",
          "name": "salt",
          "type": "bytes32"
        }
      ],
      "name": "getMarketBySalt",
      "outputs": [
        {
          "components": [
            {
              "internalType": "address",
              "name": "marketToken",
              "type": "address"
            },
            {
              "internalType": "address",
              "name": "indexToken",
              "type": "address"
            },
            {
              "internalType": "address",
              "name": "longToken",
              "type": "address"
            },
            {
              "internalType": "address",
              "name": "shortToken",
              "type": "address"
            }
          ],
          "internalType": "struct Market.Props",
          "name": "",
          "type": "tuple"
        }
      ],
      "stateMutability": "view",
      "type": "function"
    },
    {
      "inputs": [
        {
          "internalType": "contract DataStore",
          "name": "dataStore",
          "type": "address"
        },
        {
          "components": [
            {
              "components": [
                {
                  "internalType": "uint256",
                  "name": "min",
                  "type": "uint256"
                },
                {
                  "internalType": "uint256",
                  "name": "max",
                  "type": "uint256"
                }
              ],
              "internalType": "struct Price.Props",
              "name": "indexTokenPrice",
              "type": "tuple"
            },
            {
              "components": [
                {
                  "internalType": "uint256",
                  "name": "min",
                  "type": "uint256"
                },
                {
                  "internalType": "uint256",
                  "name": "max",
                  "type": "uint256"
                }
              ],
              "internalType": "struct Price.Props",
              "name": "longTokenPrice",
              "type": "tuple"
            },
            {
              "components": [
                {
                  "internalType": "uint256",
                  "name": "min",
                  "type": "uint256"
                },
                {
                  "internalType": "uint256",
                  "name": "max",
                  "type": "uint256"
                }
              ],
              "internalType": "struct Price.Props",
              "name": "shortTokenPrice",
              "type": "tuple"
            }
          ],
          "internalType": "struct MarketUtils.MarketPrices",
          "name": "prices",
          "type": "tuple"
        },
        {
          "internalType": "address",
          "name": "marketKey",
          "type": "address"
        }
      ],
      "name": "getMarketInfo",
      "outputs": [
        {
          "components": [
            {
              "components": [
                {
                  "internalType": "address",
                  "name": "marketToken",
                  "type": "address"
                },
                {
                  "internalType": "address",
                  "name": "indexToken",
                  "type": "address"
                },
                {
                  "internalType": "address",
                  "name": "longToken",
                  "type": "address"
                },
                {
                  "internalType": "address",
                  "name": "shortToken",
                  "type": "address"
                }
              ],
              "internalType": "struct Market.Props",
              "name": "market",
              "type": "tuple"
            },
            {
              "internalType": "uint256",
              "name": "borrowingFactorPerSecondForLongs",
              "type": "uint256"
            },
            {
              "internalType": "uint256",
              "name": "borrowingFactorPerSecondForShorts",
              "type": "uint256"
            },
            {
              "components": [
                {
                  "components": [
                    {
                      "components": [
                        {
                          "internalType": "uint256",
                          "name": "longToken",
                          "type": "uint256"
                        },
                        {
                          "internalType": "uint256",
                          "name": "shortToken",
                          "type": "uint256"
                        }
                      ],
                      "internalType": "struct MarketUtils.CollateralType",
                      "name": "long",
                      "type": "tuple"
                    },
                    {
                      "components": [
                        {
                          "internalType": "uint256",
                          "name": "longToken",
                          "type": "uint256"
                        },
                        {
                          "internalType": "uint256",
                          "name": "shortToken",
                          "type": "uint256"
                        }
                      ],
                      "internalType": "struct MarketUtils.CollateralType",
                      "name": "short",
                      "type": "tuple"
                    }
                  ],
                  "internalType": "struct MarketUtils.PositionType",
                  "name": "fundingFeeAmountPerSize",
                  "type": "tuple"
                },
                {
                  "components": [
                    {
                      "components": [
                        {
                          "internalType": "uint256",
                          "name": "longToken",
                          "type": "uint256"
                        },
                        {
                          "internalType": "uint256",
                          "name": "shortToken",
                          "type": "uint256"
                        }
                      ],
                      "internalType": "struct MarketUtils.CollateralType",
                      "name": "long",
                      "type": "tuple"
                    },
                    {
                      "components": [
                        {
                          "internalType": "uint256",
                          "name": "longToken",
                          "type": "uint256"
                        },
                        {
                          "internalType": "uint256",
                          "name": "shortToken",
                          "type": "uint256"
                        }
                      ],
                      "internalType": "struct MarketUtils.CollateralType",
                      "name": "short",
                      "type": "tuple"
                    }
                  ],
                  "internalType": "struct MarketUtils.PositionType",
                  "name": "claimableFundingAmountPerSize",
                  "type": "tuple"
                }
              ],
              "internalType": "struct ReaderUtils.BaseFundingValues",
              "name": "baseFunding",
              "type": "tuple"
            },
            {
              "components": [
                {
                  "internalType": "bool",
                  "name": "longsPayShorts",
                  "type": "bool"
                },
                {
                  "internalType": "uint256",
                  "name": "fundingFactorPerSecond",
                  "type": "uint256"
                },
                {
                  "internalType": "int256",
                  "name": "nextSavedFundingFactorPerSecond",
                  "type": "int256"
                },
                {
                  "components": [
                    {
                      "components": [
                        {
                          "internalType": "uint256",
                          "name": "longToken",
                          "type": "uint256"
                        },
                        {
                          "internalType": "uint256",
                          "name": "shortToken",
                          "type": "uint256"
                        }
                      ],
                      "internalType": "struct MarketUtils.CollateralType",
                      "name": "long",
                      "type": "tuple"
                    },
                    {
                      "components": [
                        {
                          "internalType": "uint256",
                          "name": "longToken",
                          "type": "uint256"
                        },
                        {
                          "internalType": "uint256",
                          "name": "shortToken",
                          "type": "uint256"
                        }
                      ],
                      "internalType": "struct MarketUtils.CollateralType",
                      "name": "short",
                      "type": "tuple"
                    }
                  ],
                  "internalType": "struct MarketUtils.PositionType",
                  "name": "fundingFeeAmountPerSizeDelta",
                  "type": "tuple"
                },
                {
                  "components": [
                    {
                      "components": [
                        {
                          "internalType": "uint256",
                          "name": "longToken",
                          "type": "uint256"
                        },
                        {
                          "internalType": "uint256",
                          "name": "shortToken",
                          "type": "uint256"
                        }
                      ],
                      "internalType": "struct MarketUtils.CollateralType",
                      "name": "long",
                      "type": "tuple"
                    },
                    {
                      "components": [
                        {
                          "internalType": "uint256",
                          "name": "longToken",
                          "type": "uint256"
                        },
                        {
                          "internalType": "uint256",
                          "name": "shortToken",
                          "type": "uint256"
                        }
                      ],
                      "internalType": "struct MarketUtils.CollateralType",
                      "name": "short",
                      "type": "tuple"
                    }
                  ],
                  "internalType": "struct MarketUtils.PositionType",
                  "name": "claimableFundingAmountPerSizeDelta",
                  "type": "tuple"
                }
              ],
              "internalType": "struct MarketUtils.GetNextFundingAmountPerSizeResult",
              "name": "nextFunding",
              "type": "tuple"
            },
            {
              "components": [
                {
                  "internalType": "uint256",
                  "name": "virtualPoolAmountForLongToken",
                  "type": "uint256"
                },
                {
                  "internalType": "uint256",
                  "name": "virtualPoolAmountForShortToken",
                  "type": "uint256"
                },
                {
                  "internalType": "int256",
                  "name": "virtualInventoryForPositions",
                  "type": "int256"
                }
              ],
              "internalType": "struct ReaderUtils.VirtualInventory",
              "name": "virtualInventory",
              "type": "tuple"
            },
            {
              "internalType": "bool",
              "name": "isDisabled",
              "type": "bool"
            }
          ],
          "internalType": "struct ReaderUtils.MarketInfo",
          "name": "",
          "type": "tuple"
        }
      ],
      "stateMutability": "view",
      "type": "function"
    },
    {
      "inputs": [
        {
          "internalType": "contract DataStore",
          "name": "dataStore",
          "type": "address"
        },
        {
          "components": [
            {
              "components": [
                {
                  "internalType": "uint256",
                  "name": "min",
                  "type": "uint256"
                },
                {
                  "internalType": "uint256",
                  "name": "max",
                  "type": "uint256"
                }
              ],
              "internalType": "struct Price.Props",
              "name": "indexTokenPrice",
              "type": "tuple"
            },
            {
              "components": [
                {
                  "internalType": "uint256",
                  "name": "min",
                  "type": "uint256"
                },
                {
                  "internalType": "uint256",
                  "name": "max",
                  "type": "uint256"
                }
              ],
              "internalType": "struct Price.Props",
              "name": "longTokenPrice",
              "type": "tuple"
            },
            {
              "components": [
                {
                  "internalType": "uint256",
                  "name": "min",
                  "type": "uint256"
                },
                {
                  "internalType": "uint256",
                  "name": "max",
                  "type": "uint256"
                }
              ],
              "internalType": "struct Price.Props",
              "name": "shortTokenPrice",
              "type": "tuple"
            }
          ],
          "internalType": "struct MarketUtils.MarketPrices[]",
          "name": "marketPricesList",
          "type": "tuple[]"
        },
        {
          "internalType": "uint256",
          "name": "start",
          "type": "uint256"
        },
        {
          "internalType": "uint256",
          "name": "end",
          "type": "uint256"
        }
      ],
      "name": "getMarketInfoList",
      "outputs": [
        {
          "components": [
            {
              "components": [
                {
                  "internalType": "address",
                  "name": "marketToken",
                  "type": "address"
                },
                {
                  "internalType": "address",
                  "name": "indexToken",
                  "type": "address"
                },
                {
                  "internalType": "address",
                  "name": "longToken",
                  "type": "address"
                },
                {
                  "internalType": "address",
                  "name": "shortToken",
                  "type": "address"
                }
              ],
              "internalType": "struct Market.Props",
              "name": "market",
              "type": "tuple"
            },
            {
              "internalType": "uint256",
              "name": "borrowingFactorPerSecondForLongs",
              "type": "uint256"
            },
            {
              "internalType": "uint256",
              "name": "borrowingFactorPerSecondForShorts",
              "type": "uint256"
            },
            {
              "components": [
                {
                  "components": [
                    {
                      "components": [
                        {
                          "internalType": "uint256",
                          "name": "longToken",
                          "type": "uint256"
                        },
                        {
                          "internalType": "uint256",
                          "name": "shortToken",
                          "type": "uint256"
                        }
                      ],
                      "internalType": "struct MarketUtils.CollateralType",
                      "name": "long",
                      "type": "tuple"
                    },
                    {
                      "components": [
                        {
                          "internalType": "uint256",
                          "name": "longToken",
                          "type": "uint256"
                        },
                        {
                          "internalType": "uint256",
                          "name": "shortToken",
                          "type": "uint256"
                        }
                      ],
                      "internalType": "struct MarketUtils.CollateralType",
                      "name": "short",
                      "type": "tuple"
                    }
                  ],
                  "internalType": "struct MarketUtils.PositionType",
                  "name": "fundingFeeAmountPerSize",
                  "type": "tuple"
                },
                {
                  "components": [
                    {
                      "components": [
                        {
                          "internalType": "uint256",
                          "name": "longToken",
                          "type": "uint256"
                        },
                        {
                          "internalType": "uint256",
                          "name": "shortToken",
                          "type": "uint256"
                        }
                      ],
                      "internalType": "struct MarketUtils.CollateralType",
                      "name": "long",
                      "type": "tuple"
                    },
                    {
                      "components": [
                        {
                          "internalType": "uint256",
                          "name": "longToken",
                          "type": "uint256"
                        },
                        {
                          "internalType": "uint256",
                          "name": "shortToken",
                          "type": "uint256"
                        }
                      ],
                      "internalType": "struct MarketUtils.CollateralType",
                      "name": "short",
                      "type": "tuple"
                    }
                  ],
                  "internalType": "struct MarketUtils.PositionType",
                  "name": "claimableFundingAmountPerSize",
                  "type": "tuple"
                }
              ],
              "internalType": "struct ReaderUtils.BaseFundingValues",
              "name": "baseFunding",
              "type": "tuple"
            },
            {
              "components": [
                {
                  "internalType": "bool",
                  "name": "longsPayShorts",
                  "type": "bool"
                },
                {
                  "internalType": "uint256",
                  "name": "fundingFactorPerSecond",
                  "type": "uint256"
                },
                {
                  "internalType": "int256",
                  "name": "nextSavedFundingFactorPerSecond",
                  "type": "int256"
                },
                {
                  "components": [
                    {
                      "components": [
                        {
                          "internalType": "uint256",
                          "name": "longToken",
                          "type": "uint256"
                        },
                        {
                          "internalType": "uint256",
                          "name": "shortToken",
                          "type": "uint256"
                        }
                      ],
                      "internalType": "struct MarketUtils.CollateralType",
                      "name": "long",
                      "type": "tuple"
                    },
                    {
                      "components": [
                        {
                          "internalType": "uint256",
                          "name": "longToken",
                          "type": "uint256"
                        },
                        {
                          "internalType": "uint256",
                          "name": "shortToken",
                          "type": "uint256"
                        }
                      ],
                      "internalType": "struct MarketUtils.CollateralType",
                      "name": "short",
                      "type": "tuple"
                    }
                  ],
                  "internalType": "struct MarketUtils.PositionType",
                  "name": "fundingFeeAmountPerSizeDelta",
                  "type": "tuple"
                },
                {
                  "components": [
                    {
                      "components": [
                        {
                          "internalType": "uint256",
                          "name": "longToken",
                          "type": "uint256"
                        },
                        {
                          "internalType": "uint256",
                          "name": "shortToken",
                          "type": "uint256"
                        }
                      ],
                      "internalType": "struct MarketUtils.CollateralType",
                      "name": "long",
                      "type": "tuple"
                    },
                    {
                      "components": [
                        {
                          "internalType": "uint256",
                          "name": "longToken",
                          "type": "uint256"
                        },
                        {
                          "internalType": "uint256",
                          "name": "shortToken",
                          "type": "uint256"
                        }
                      ],
                      "internalType": "struct MarketUtils.CollateralType",
                      "name": "short",
                      "type": "tuple"
                    }
                  ],
                  "internalType": "struct MarketUtils.PositionType",
                  "name": "claimableFundingAmountPerSizeDelta",
                  "type": "tuple"
                }
              ],
              "internalType": "struct MarketUtils.GetNextFundingAmountPerSizeResult",
              "name": "nextFunding",
              "type": "tuple"
            },
            {
              "components": [
                {
                  "internalType": "uint256",
                  "name": "virtualPoolAmountForLongToken",
                  "type": "uint256"
                },
                {
                  "internalType": "uint256",
                  "name": "virtualPoolAmountForShortToken",
                  "type": "uint256"
                },
                {
                  "internalType": "int256",
                  "name": "virtualInventoryForPositions",
                  "type": "int256"
                }
              ],
              "internalType": "struct ReaderUtils.VirtualInventory",
              "name": "virtualInventory",
              "type": "tuple"
            },
            {
              "internalType": "bool",
              "name": "isDisabled",
              "type": "bool"
            }
          ],
          "internalType": "struct ReaderUtils.MarketInfo[]",
          "name": "",
          "type": "tuple[]"
        }
      ],
      "stateMutability": "view",
      "type": "function"
    },
    {
      "inputs": [
        {
          "internalType": "contract DataStore",
          "name": "dataStore",
          "type": "address"
        },
        {
          "components": [
            {
              "internalType": "address",
              "name": "marketToken",
              "type": "address"
            },
            {
              "internalType": "address",
              "name": "indexToken",
              "type": "address"
            },
            {
              "internalType": "address",
              "name": "longToken",
              "type": "address"
            },
            {
              "internalType": "address",
              "name": "shortToken",
              "type": "address"
            }
          ],
          "internalType": "struct Market.Props",
          "name": "market",
          "type": "tuple"
        },
        {
          "components": [
            {
              "internalType": "uint256",
              "name": "min",
              "type": "uint256"
            },
            {
              "internalType": "uint256",
              "name": "max",
              "type": "uint256"
            }
          ],
          "internalType": "struct Price.Props",
          "name": "indexTokenPrice",
          "type": "tuple"
        },
        {
          "components": [
            {
              "internalType": "uint256",
              "name": "min",
              "type": "uint256"
            },
            {
              "internalType": "uint256",
              "name": "max",
              "type": "uint256"
            }
          ],
          "internalType": "struct Price.Props",
          "name": "longTokenPrice",
          "type": "tuple"
        },
        {
          "components": [
            {
              "internalType": "uint256",
              "name": "min",
              "type": "uint256"
            },
            {
              "internalType": "uint256",
              "name": "max",
              "type": "uint256"
            }
          ],
          "internalType": "struct Price.Props",
          "name": "shortTokenPrice",
          "type": "tuple"
        },
        {
          "internalType": "bytes32",
          "name": "pnlFactorType",
          "type": "bytes32"
        },
        {
          "internalType": "bool",
          "name": "maximize",
          "type": "bool"
        }
      ],
      "name": "getMarketTokenPrice",
      "outputs": [
        {
          "internalType": "int256",
          "name": "",
          "type": "int256"
        },
        {
          "components": [
            {
              "internalType": "int256",
              "name": "poolValue",
              "type": "int256"
            },
            {
              "internalType": "int256",
              "name": "longPnl",
              "type": "int256"
            },
            {
              "internalType": "int256",
              "name": "shortPnl",
              "type": "int256"
            },
            {
              "internalType": "int256",
              "name": "netPnl",
              "type": "int256"
            },
            {
              "internalType": "uint256",
              "name": "longTokenAmount",
              "type": "uint256"
            },
            {
              "internalType": "uint256",
              "name": "shortTokenAmount",
              "type": "uint256"
            },
            {
              "internalType": "uint256",
              "name": "longTokenUsd",
              "type": "uint256"
            },
            {
              "internalType": "uint256",
              "name": "shortTokenUsd",
              "type": "uint256"
            },
            {
              "internalType": "uint256",
              "name": "totalBorrowingFees",
              "type": "uint256"
            },
            {
              "internalType": "uint256",
              "name": "borrowingFeePoolFactor",
              "type": "uint256"
            },
            {
              "internalType": "uint256",
              "name": "impactPoolAmount",
              "type": "uint256"
            }
          ],
          "internalType": "struct MarketPoolValueInfo.Props",
          "name": "",
          "type": "tuple"
        }
      ],
      "stateMutability": "view",
      "type": "function"
    },
    {
      "inputs": [
        {
          "internalType": "contract DataStore",
          "name": "dataStore",
          "type": "address"
        },
        {
          "internalType": "uint256",
          "name": "start",
          "type": "uint256"
        },
        {
          "internalType": "uint256",
          "name": "end",
          "type": "uint256"
        }
      ],
      "name": "getMarkets",
      "outputs": [
        {
          "components": [
            {
              "internalType": "address",
              "name": "marketToken",
              "type": "address"
            },
            {
              "internalType": "address",
              "name": "indexToken",
              "type": "address"
            },
            {
              "internalType": "address",
              "name": "longToken",
              "type": "address"
            },
            {
              "internalType": "address",
              "name": "shortToken",
              "type": "address"
            }
          ],
          "internalType": "struct Market.Props[]",
          "name": "",
          "type": "tuple[]"
        }
      ],
      "stateMutability": "view",
      "type": "function"
    },
    {
      "inputs": [
        {
          "internalType": "contract DataStore",
          "name": "dataStore",
          "type": "address"
        },
        {
          "components": [
            {
              "internalType": "address",
              "name": "marketToken",
              "type": "address"
            },
            {
              "internalType": "address",
              "name": "indexToken",
              "type": "address"
            },
            {
              "internalType": "address",
              "name": "longToken",
              "type": "address"
            },
            {
              "internalType": "address",
              "name": "shortToken",
              "type": "address"
            }
          ],
          "internalType": "struct Market.Props",
          "name": "market",
          "type": "tuple"
        },
        {
          "components": [
            {
              "internalType": "uint256",
              "name": "min",
              "type": "uint256"
            },
            {
              "internalType": "uint256",
              "name": "max",
              "type": "uint256"
            }
          ],
          "internalType": "struct Price.Props",
          "name": "indexTokenPrice",
          "type": "tuple"
        },
        {
          "internalType": "bool",
          "name": "maximize",
          "type": "bool"
        }
      ],
      "name": "getNetPnl",
      "outputs": [
        {
          "internalType": "int256",
          "name": "",
          "type": "int256"
        }
      ],
      "stateMutability": "view",
      "type": "function"
    },
    {
      "inputs": [
        {
          "internalType": "contract DataStore",
          "name": "dataStore",
          "type": "address"
        },
        {
          "components": [
            {
              "internalType": "address",
              "name": "marketToken",
              "type": "address"
            },
            {
              "internalType": "address",
              "name": "indexToken",
              "type": "address"
            },
            {
              "internalType": "address",
              "name": "longToken",
              "type": "address"
            },
            {
              "internalType": "address",
              "name": "shortToken",
              "type": "address"
            }
          ],
          "internalType": "struct Market.Props",
          "name": "market",
          "type": "tuple"
        },
        {
          "components": [
            {
              "internalType": "uint256",
              "name": "min",
              "type": "uint256"
            },
            {
              "internalType": "uint256",
              "name": "max",
              "type": "uint256"
            }
          ],
          "internalType": "struct Price.Props",
          "name": "indexTokenPrice",
          "type": "tuple"
        },
        {
          "internalType": "bool",
          "name": "isLong",
          "type": "bool"
        },
        {
          "internalType": "bool",
          "name": "maximize",
          "type": "bool"
        }
      ],
      "name": "getOpenInterestWithPnl",
      "outputs": [
        {
          "internalType": "int256",
          "name": "",
          "type": "int256"
        }
      ],
      "stateMutability": "view",
      "type": "function"
    },
    {
      "inputs": [
        {
          "internalType": "contract DataStore",
          "name": "dataStore",
          "type": "address"
        },
        {
          "internalType": "bytes32",
          "name": "key",
          "type": "bytes32"
        }
      ],
      "name": "getOrder",
      "outputs": [
        {
          "components": [
            {
              "components": [
                {
                  "internalType": "address",
                  "name": "account",
                  "type": "address"
                },
                {
                  "internalType": "address",
                  "name": "receiver",
                  "type": "address"
                },
                {
                  "internalType": "address",
                  "name": "callbackContract",
                  "type": "address"
                },
                {
                  "internalType": "address",
                  "name": "uiFeeReceiver",
                  "type": "address"
                },
                {
                  "internalType": "address",
                  "name": "market",
                  "type": "address"
                },
                {
                  "internalType": "address",
                  "name": "initialCollateralToken",
                  "type": "address"
                },
                {
                  "internalType": "address[]",
                  "name": "swapPath",
                  "type": "address[]"
                }
              ],
              "internalType": "struct Order.Addresses",
              "name": "addresses",
              "type": "tuple"
            },
            {
              "components": [
                {
                  "internalType": "enum Order.OrderType",
                  "name": "orderType",
                  "type": "uint8"
                },
                {
                  "internalType": "enum Order.DecreasePositionSwapType",
                  "name": "decreasePositionSwapType",
                  "type": "uint8"
                },
                {
                  "internalType": "uint256",
                  "name": "sizeDeltaUsd",
                  "type": "uint256"
                },
                {
                  "internalType": "uint256",
                  "name": "initialCollateralDeltaAmount",
                  "type": "uint256"
                },
                {
                  "internalType": "uint256",
                  "name": "triggerPrice",
                  "type": "uint256"
                },
                {
                  "internalType": "uint256",
                  "name": "acceptablePrice",
                  "type": "uint256"
                },
                {
                  "internalType": "uint256",
                  "name": "executionFee",
                  "type": "uint256"
                },
                {
                  "internalType": "uint256",
                  "name": "callbackGasLimit",
                  "type": "uint256"
                },
                {
                  "internalType": "uint256",
                  "name": "minOutputAmount",
                  "type": "uint256"
                },
                {
                  "internalType": "uint256",
                  "name": "updatedAtBlock",
                  "type": "uint256"
                }
              ],
              "internalType": "struct Order.Numbers",
              "name": "numbers",
              "type": "tuple"
            },
            {
              "components": [
                {
                  "internalType": "bool",
                  "name": "isLong",
                  "type": "bool"
                },
                {
                  "internalType": "bool",
                  "name": "shouldUnwrapNativeToken",
                  "type": "bool"
                },
                {
                  "internalType": "bool",
                  "name": "isFrozen",
                  "type": "bool"
                }
              ],
              "internalType": "struct Order.Flags",
              "name": "flags",
              "type": "tuple"
            }
          ],
          "internalType": "struct Order.Props",
          "name": "",
          "type": "tuple"
        }
      ],
      "stateMutability": "view",
      "type": "function"
    },
    {
      "inputs": [
        {
          "internalType": "contract DataStore",
          "name": "dataStore",
          "type": "address"
        },
        {
          "components": [
            {
              "internalType": "address",
              "name": "marketToken",
              "type": "address"
            },
            {
              "internalType": "address",
              "name": "indexToken",
              "type": "address"
            },
            {
              "internalType": "address",
              "name": "longToken",
              "type": "address"
            },
            {
              "internalType": "address",
              "name": "shortToken",
              "type": "address"
            }
          ],
          "internalType": "struct Market.Props",
          "name": "market",
          "type": "tuple"
        },
        {
          "components": [
            {
              "internalType": "uint256",
              "name": "min",
              "type": "uint256"
            },
            {
              "internalType": "uint256",
              "name": "max",
              "type": "uint256"
            }
          ],
          "internalType": "struct Price.Props",
          "name": "indexTokenPrice",
          "type": "tuple"
        },
        {
          "internalType": "bool",
          "name": "isLong",
          "type": "bool"
        },
        {
          "internalType": "bool",
          "name": "maximize",
          "type": "bool"
        }
      ],
      "name": "getPnl",
      "outputs": [
        {
          "internalType": "int256",
          "name": "",
          "type": "int256"
        }
      ],
      "stateMutability": "view",
      "type": "function"
    },
    {
      "inputs": [
        {
          "internalType": "contract DataStore",
          "name": "dataStore",
          "type": "address"
        },
        {
          "internalType": "address",
          "name": "marketAddress",
          "type": "address"
        },
        {
          "components": [
            {
              "components": [
                {
                  "internalType": "uint256",
                  "name": "min",
                  "type": "uint256"
                },
                {
                  "internalType": "uint256",
                  "name": "max",
                  "type": "uint256"
                }
              ],
              "internalType": "struct Price.Props",
              "name": "indexTokenPrice",
              "type": "tuple"
            },
            {
              "components": [
                {
                  "internalType": "uint256",
                  "name": "min",
                  "type": "uint256"
                },
                {
                  "internalType": "uint256",
                  "name": "max",
                  "type": "uint256"
                }
              ],
              "internalType": "struct Price.Props",
              "name": "longTokenPrice",
              "type": "tuple"
            },
            {
              "components": [
                {
                  "internalType": "uint256",
                  "name": "min",
                  "type": "uint256"
                },
                {
                  "internalType": "uint256",
                  "name": "max",
                  "type": "uint256"
                }
              ],
              "internalType": "struct Price.Props",
              "name": "shortTokenPrice",
              "type": "tuple"
            }
          ],
          "internalType": "struct MarketUtils.MarketPrices",
          "name": "prices",
          "type": "tuple"
        },
        {
          "internalType": "bool",
          "name": "isLong",
          "type": "bool"
        },
        {
          "internalType": "bool",
          "name": "maximize",
          "type": "bool"
        }
      ],
      "name": "getPnlToPoolFactor",
      "outputs": [
        {
          "internalType": "int256",
          "name": "",
          "type": "int256"
        }
      ],
      "stateMutability": "view",
      "type": "function"
    },
    {
      "inputs": [
        {
          "internalType": "contract DataStore",
          "name": "dataStore",
          "type": "address"
        },
        {
          "internalType": "bytes32",
          "name": "key",
          "type": "bytes32"
        }
      ],
      "name": "getPosition",
      "outputs": [
        {
          "components": [
            {
              "components": [
                {
                  "internalType": "address",
                  "name": "account",
                  "type": "address"
                },
                {
                  "internalType": "address",
                  "name": "market",
                  "type": "address"
                },
                {
                  "internalType": "address",
                  "name": "collateralToken",
                  "type": "address"
                }
              ],
              "internalType": "struct Position.Addresses",
              "name": "addresses",
              "type": "tuple"
            },
            {
              "components": [
                {
                  "internalType": "uint256",
                  "name": "sizeInUsd",
                  "type": "uint256"
                },
                {
                  "internalType": "uint256",
                  "name": "sizeInTokens",
                  "type": "uint256"
                },
                {
                  "internalType": "uint256",
                  "name": "collateralAmount",
                  "type": "uint256"
                },
                {
                  "internalType": "uint256",
                  "name": "borrowingFactor",
                  "type": "uint256"
                },
                {
                  "internalType": "uint256",
                  "name": "fundingFeeAmountPerSize",
                  "type": "uint256"
                },
                {
                  "internalType": "uint256",
                  "name": "longTokenClaimableFundingAmountPerSize",
                  "type": "uint256"
                },
                {
                  "internalType": "uint256",
                  "name": "shortTokenClaimableFundingAmountPerSize",
                  "type": "uint256"
                },
                {
                  "internalType": "uint256",
                  "name": "increasedAtBlock",
                  "type": "uint256"
                },
                {
                  "internalType": "uint256",
                  "name": "decreasedAtBlock",
                  "type": "uint256"
                }
              ],
              "internalType": "struct Position.Numbers",
              "name": "numbers",
              "type": "tuple"
            },
            {
              "components": [
                {
                  "internalType": "bool",
                  "name": "isLong",
                  "type": "bool"
                }
              ],
              "internalType": "struct Position.Flags",
              "name": "flags",
              "type": "tuple"
            }
          ],
          "internalType": "struct Position.Props",
          "name": "",
          "type": "tuple"
        }
      ],
      "stateMutability": "view",
      "type": "function"
    },
    {
      "inputs": [
        {
          "internalType": "contract DataStore",
          "name": "dataStore",
          "type": "address"
        },
        {
          "internalType": "contract IReferralStorage",
          "name": "referralStorage",
          "type": "address"
        },
        {
          "internalType": "bytes32",
          "name": "positionKey",
          "type": "bytes32"
        },
        {
          "components": [
            {
              "components": [
                {
                  "internalType": "uint256",
                  "name": "min",
                  "type": "uint256"
                },
                {
                  "internalType": "uint256",
                  "name": "max",
                  "type": "uint256"
                }
              ],
              "internalType": "struct Price.Props",
              "name": "indexTokenPrice",
              "type": "tuple"
            },
            {
              "components": [
                {
                  "internalType": "uint256",
                  "name": "min",
                  "type": "uint256"
                },
                {
                  "internalType": "uint256",
                  "name": "max",
                  "type": "uint256"
                }
              ],
              "internalType": "struct Price.Props",
              "name": "longTokenPrice",
              "type": "tuple"
            },
            {
              "components": [
                {
                  "internalType": "uint256",
                  "name": "min",
                  "type": "uint256"
                },
                {
                  "internalType": "uint256",
                  "name": "max",
                  "type": "uint256"
                }
              ],
              "internalType": "struct Price.Props",
              "name": "shortTokenPrice",
              "type": "tuple"
            }
          ],
          "internalType": "struct MarketUtils.MarketPrices",
          "name": "prices",
          "type": "tuple"
        },
        {
          "internalType": "uint256",
          "name": "sizeDeltaUsd",
          "type": "uint256"
        },
        {
          "internalType": "address",
          "name": "uiFeeReceiver",
          "type": "address"
        },
        {
          "internalType": "bool",
          "name": "usePositionSizeAsSizeDeltaUsd",
          "type": "bool"
        }
      ],
      "name": "getPositionInfo",
      "outputs": [
        {
          "components": [
            {
              "components": [
                {
                  "components": [
                    {
                      "internalType": "address",
                      "name": "account",
                      "type": "address"
                    },
                    {
                      "internalType": "address",
                      "name": "market",
                      "type": "address"
                    },
                    {
                      "internalType": "address",
                      "name": "collateralToken",
                      "type": "address"
                    }
                  ],
                  "internalType": "struct Position.Addresses",
                  "name": "addresses",
                  "type": "tuple"
                },
                {
                  "components": [
                    {
                      "internalType": "uint256",
                      "name": "sizeInUsd",
                      "type": "uint256"
                    },
                    {
                      "internalType": "uint256",
                      "name": "sizeInTokens",
                      "type": "uint256"
                    },
                    {
                      "internalType": "uint256",
                      "name": "collateralAmount",
                      "type": "uint256"
                    },
                    {
                      "internalType": "uint256",
                      "name": "borrowingFactor",
                      "type": "uint256"
                    },
                    {
                      "internalType": "uint256",
                      "name": "fundingFeeAmountPerSize",
                      "type": "uint256"
                    },
                    {
                      "internalType": "uint256",
                      "name": "longTokenClaimableFundingAmountPerSize",
                      "type": "uint256"
                    },
                    {
                      "internalType": "uint256",
                      "name": "shortTokenClaimableFundingAmountPerSize",
                      "type": "uint256"
                    },
                    {
                      "internalType": "uint256",
                      "name": "increasedAtBlock",
                      "type": "uint256"
                    },
                    {
                      "internalType": "uint256",
                      "name": "decreasedAtBlock",
                      "type": "uint256"
                    }
                  ],
                  "internalType": "struct Position.Numbers",
                  "name": "numbers",
                  "type": "tuple"
                },
                {
                  "components": [
                    {
                      "internalType": "bool",
                      "name": "isLong",
                      "type": "bool"
                    }
                  ],
                  "internalType": "struct Position.Flags",
                  "name": "flags",
                  "type": "tuple"
                }
              ],
              "internalType": "struct Position.Props",
              "name": "position",
              "type": "tuple"
            },
            {
              "components": [
                {
                  "components": [
                    {
                      "internalType": "bytes32",
                      "name": "referralCode",
                      "type": "bytes32"
                    },
                    {
                      "internalType": "address",
                      "name": "affiliate",
                      "type": "address"
                    },
                    {
                      "internalType": "address",
                      "name": "trader",
                      "type": "address"
                    },
                    {
                      "internalType": "uint256",
                      "name": "totalRebateFactor",
                      "type": "uint256"
                    },
                    {
                      "internalType": "uint256",
                      "name": "traderDiscountFactor",
                      "type": "uint256"
                    },
                    {
                      "internalType": "uint256",
                      "name": "totalRebateAmount",
                      "type": "uint256"
                    },
                    {
                      "internalType": "uint256",
                      "name": "traderDiscountAmount",
                      "type": "uint256"
                    },
                    {
                      "internalType": "uint256",
                      "name": "affiliateRewardAmount",
                      "type": "uint256"
                    }
                  ],
                  "internalType": "struct PositionPricingUtils.PositionReferralFees",
                  "name": "referral",
                  "type": "tuple"
                },
                {
                  "components": [
                    {
                      "internalType": "uint256",
                      "name": "fundingFeeAmount",
                      "type": "uint256"
                    },
                    {
                      "internalType": "uint256",
                      "name": "claimableLongTokenAmount",
                      "type": "uint256"
                    },
                    {
                      "internalType": "uint256",
                      "name": "claimableShortTokenAmount",
                      "type": "uint256"
                    },
                    {
                      "internalType": "uint256",
                      "name": "latestFundingFeeAmountPerSize",
                      "type": "uint256"
                    },
                    {
                      "internalType": "uint256",
                      "name": "latestLongTokenClaimableFundingAmountPerSize",
                      "type": "uint256"
                    },
                    {
                      "internalType": "uint256",
                      "name": "latestShortTokenClaimableFundingAmountPerSize",
                      "type": "uint256"
                    }
                  ],
                  "internalType": "struct PositionPricingUtils.PositionFundingFees",
                  "name": "funding",
                  "type": "tuple"
                },
                {
                  "components": [
                    {
                      "internalType": "uint256",
                      "name": "borrowingFeeUsd",
                      "type": "uint256"
                    },
                    {
                      "internalType": "uint256",
                      "name": "borrowingFeeAmount",
                      "type": "uint256"
                    },
                    {
                      "internalType": "uint256",
                      "name": "borrowingFeeReceiverFactor",
                      "type": "uint256"
                    },
                    {
                      "internalType": "uint256",
                      "name": "borrowingFeeAmountForFeeReceiver",
                      "type": "uint256"
                    }
                  ],
                  "internalType": "struct PositionPricingUtils.PositionBorrowingFees",
                  "name": "borrowing",
                  "type": "tuple"
                },
                {
                  "components": [
                    {
                      "internalType": "address",
                      "name": "uiFeeReceiver",
                      "type": "address"
                    },
                    {
                      "internalType": "uint256",
                      "name": "uiFeeReceiverFactor",
                      "type": "uint256"
                    },
                    {
                      "internalType": "uint256",
                      "name": "uiFeeAmount",
                      "type": "uint256"
                    }
                  ],
                  "internalType": "struct PositionPricingUtils.PositionUiFees",
                  "name": "ui",
                  "type": "tuple"
                },
                {
                  "components": [
                    {
                      "internalType": "uint256",
                      "name": "min",
                      "type": "uint256"
                    },
                    {
                      "internalType": "uint256",
                      "name": "max",
                      "type": "uint256"
                    }
                  ],
                  "internalType": "struct Price.Props",
                  "name": "collateralTokenPrice",
                  "type": "tuple"
                },
                {
                  "internalType": "uint256",
                  "name": "positionFeeFactor",
                  "type": "uint256"
                },
                {
                  "internalType": "uint256",
                  "name": "protocolFeeAmount",
                  "type": "uint256"
                },
                {
                  "internalType": "uint256",
                  "name": "positionFeeReceiverFactor",
                  "type": "uint256"
                },
                {
                  "internalType": "uint256",
                  "name": "feeReceiverAmount",
                  "type": "uint256"
                },
                {
                  "internalType": "uint256",
                  "name": "feeAmountForPool",
                  "type": "uint256"
                },
                {
                  "internalType": "uint256",
                  "name": "positionFeeAmountForPool",
                  "type": "uint256"
                },
                {
                  "internalType": "uint256",
                  "name": "positionFeeAmount",
                  "type": "uint256"
                },
                {
                  "internalType": "uint256",
                  "name": "totalCostAmountExcludingFunding",
                  "type": "uint256"
                },
                {
                  "internalType": "uint256",
                  "name": "totalCostAmount",
                  "type": "uint256"
                }
              ],
              "internalType": "struct PositionPricingUtils.PositionFees",
              "name": "fees",
              "type": "tuple"
            },
            {
              "components": [
                {
                  "internalType": "int256",
                  "name": "priceImpactUsd",
                  "type": "int256"
                },
                {
                  "internalType": "uint256",
                  "name": "priceImpactDiffUsd",
                  "type": "uint256"
                },
                {
                  "internalType": "uint256",
                  "name": "executionPrice",
                  "type": "uint256"
                }
              ],
              "internalType": "struct ReaderPricingUtils.ExecutionPriceResult",
              "name": "executionPriceResult",
              "type": "tuple"
            },
            {
              "internalType": "int256",
              "name": "basePnlUsd",
              "type": "int256"
            },
            {
              "internalType": "int256",
              "name": "uncappedBasePnlUsd",
              "type": "int256"
            },
            {
              "internalType": "int256",
              "name": "pnlAfterPriceImpactUsd",
              "type": "int256"
            }
          ],
          "internalType": "struct ReaderUtils.PositionInfo",
          "name": "",
          "type": "tuple"
        }
      ],
      "stateMutability": "view",
      "type": "function"
    },
    {
      "inputs": [
        {
          "internalType": "contract DataStore",
          "name": "dataStore",
          "type": "address"
        },
        {
          "components": [
            {
              "internalType": "address",
              "name": "marketToken",
              "type": "address"
            },
            {
              "internalType": "address",
              "name": "indexToken",
              "type": "address"
            },
            {
              "internalType": "address",
              "name": "longToken",
              "type": "address"
            },
            {
              "internalType": "address",
              "name": "shortToken",
              "type": "address"
            }
          ],
          "internalType": "struct Market.Props",
          "name": "market",
          "type": "tuple"
        },
        {
          "components": [
            {
              "components": [
                {
                  "internalType": "uint256",
                  "name": "min",
                  "type": "uint256"
                },
                {
                  "internalType": "uint256",
                  "name": "max",
                  "type": "uint256"
                }
              ],
              "internalType": "struct Price.Props",
              "name": "indexTokenPrice",
              "type": "tuple"
            },
            {
              "components": [
                {
                  "internalType": "uint256",
                  "name": "min",
                  "type": "uint256"
                },
                {
                  "internalType": "uint256",
                  "name": "max",
                  "type": "uint256"
                }
              ],
              "internalType": "struct Price.Props",
              "name": "longTokenPrice",
              "type": "tuple"
            },
            {
              "components": [
                {
                  "internalType": "uint256",
                  "name": "min",
                  "type": "uint256"
                },
                {
                  "internalType": "uint256",
                  "name": "max",
                  "type": "uint256"
                }
              ],
              "internalType": "struct Price.Props",
              "name": "shortTokenPrice",
              "type": "tuple"
            }
          ],
          "internalType": "struct MarketUtils.MarketPrices",
          "name": "prices",
          "type": "tuple"
        },
        {
          "internalType": "bytes32",
          "name": "positionKey",
          "type": "bytes32"
        },
        {
          "internalType": "uint256",
          "name": "sizeDeltaUsd",
          "type": "uint256"
        }
      ],
      "name": "getPositionPnlUsd",
      "outputs": [
        {
          "internalType": "int256",
          "name": "",
          "type": "int256"
        },
        {
          "internalType": "int256",
          "name": "",
          "type": "int256"
        },
        {
          "internalType": "uint256",
          "name": "",
          "type": "uint256"
        }
      ],
      "stateMutability": "view",
      "type": "function"
    },
    {
      "inputs": [
        {
          "internalType": "contract DataStore",
          "name": "dataStore",
          "type": "address"
        },
        {
          "components": [
            {
              "internalType": "address",
              "name": "marketToken",
              "type": "address"
            },
            {
              "internalType": "address",
              "name": "indexToken",
              "type": "address"
            },
            {
              "internalType": "address",
              "name": "longToken",
              "type": "address"
            },
            {
              "internalType": "address",
              "name": "shortToken",
              "type": "address"
            }
          ],
          "internalType": "struct Market.Props",
          "name": "market",
          "type": "tuple"
        },
        {
          "components": [
            {
              "components": [
                {
                  "internalType": "uint256",
                  "name": "min",
                  "type": "uint256"
                },
                {
                  "internalType": "uint256",
                  "name": "max",
                  "type": "uint256"
                }
              ],
              "internalType": "struct Price.Props",
              "name": "indexTokenPrice",
              "type": "tuple"
            },
            {
              "components": [
                {
                  "internalType": "uint256",
                  "name": "min",
                  "type": "uint256"
                },
                {
                  "internalType": "uint256",
                  "name": "max",
                  "type": "uint256"
                }
              ],
              "internalType": "struct Price.Props",
              "name": "longTokenPrice",
              "type": "tuple"
            },
            {
              "components": [
                {
                  "internalType": "uint256",
                  "name": "min",
                  "type": "uint256"
                },
                {
                  "internalType": "uint256",
                  "name": "max",
                  "type": "uint256"
                }
              ],
              "internalType": "struct Price.Props",
              "name": "shortTokenPrice",
              "type": "tuple"
            }
          ],
          "internalType": "struct MarketUtils.MarketPrices",
          "name": "prices",
          "type": "tuple"
        },
        {
          "internalType": "address",
          "name": "tokenIn",
          "type": "address"
        },
        {
          "internalType": "uint256",
          "name": "amountIn",
          "type": "uint256"
        },
        {
          "internalType": "address",
          "name": "uiFeeReceiver",
          "type": "address"
        }
      ],
      "name": "getSwapAmountOut",
      "outputs": [
        {
          "internalType": "uint256",
          "name": "",
          "type": "uint256"
        },
        {
          "internalType": "int256",
          "name": "",
          "type": "int256"
        },
        {
          "components": [
            {
              "internalType": "uint256",
              "name": "feeReceiverAmount",
              "type": "uint256"
            },
            {
              "internalType": "uint256",
              "name": "feeAmountForPool",
              "type": "uint256"
            },
            {
              "internalType": "uint256",
              "name": "amountAfterFees",
              "type": "uint256"
            },
            {
              "internalType": "address",
              "name": "uiFeeReceiver",
              "type": "address"
            },
            {
              "internalType": "uint256",
              "name": "uiFeeReceiverFactor",
              "type": "uint256"
            },
            {
              "internalType": "uint256",
              "name": "uiFeeAmount",
              "type": "uint256"
            }
          ],
          "internalType": "struct SwapPricingUtils.SwapFees",
          "name": "fees",
          "type": "tuple"
        }
      ],
      "stateMutability": "view",
      "type": "function"
    },
    {
      "inputs": [
        {
          "internalType": "contract DataStore",
          "name": "dataStore",
          "type": "address"
        },
        {
          "internalType": "address",
          "name": "marketKey",
          "type": "address"
        },
        {
          "internalType": "address",
          "name": "tokenIn",
          "type": "address"
        },
        {
          "internalType": "address",
          "name": "tokenOut",
          "type": "address"
        },
        {
          "internalType": "uint256",
          "name": "amountIn",
          "type": "uint256"
        },
        {
          "components": [
            {
              "internalType": "uint256",
              "name": "min",
              "type": "uint256"
            },
            {
              "internalType": "uint256",
              "name": "max",
              "type": "uint256"
            }
          ],
          "internalType": "struct Price.Props",
          "name": "tokenInPrice",
          "type": "tuple"
        },
        {
          "components": [
            {
              "internalType": "uint256",
              "name": "min",
              "type": "uint256"
            },
            {
              "internalType": "uint256",
              "name": "max",
              "type": "uint256"
            }
          ],
          "internalType": "struct Price.Props",
          "name": "tokenOutPrice",
          "type": "tuple"
        }
      ],
      "name": "getSwapPriceImpact",
      "outputs": [
        {
          "internalType": "int256",
          "name": "",
          "type": "int256"
        },
        {
          "internalType": "int256",
          "name": "",
          "type": "int256"
        }
      ],
      "stateMutability": "view",
      "type": "function"
    },
    {
      "inputs": [
        {
          "internalType": "contract DataStore",
          "name": "dataStore",
          "type": "address"
        },
        {
          "internalType": "bytes32",
          "name": "key",
          "type": "bytes32"
        }
      ],
      "name": "getWithdrawal",
      "outputs": [
        {
          "components": [
            {
              "components": [
                {
                  "internalType": "address",
                  "name": "account",
                  "type": "address"
                },
                {
                  "internalType": "address",
                  "name": "receiver",
                  "type": "address"
                },
                {
                  "internalType": "address",
                  "name": "callbackContract",
                  "type": "address"
                },
                {
                  "internalType": "address",
                  "name": "uiFeeReceiver",
                  "type": "address"
                },
                {
                  "internalType": "address",
                  "name": "market",
                  "type": "address"
                },
                {
                  "internalType": "address[]",
                  "name": "longTokenSwapPath",
                  "type": "address[]"
                },
                {
                  "internalType": "address[]",
                  "name": "shortTokenSwapPath",
                  "type": "address[]"
                }
              ],
              "internalType": "struct Withdrawal.Addresses",
              "name": "addresses",
              "type": "tuple"
            },
            {
              "components": [
                {
                  "internalType": "uint256",
                  "name": "marketTokenAmount",
                  "type": "uint256"
                },
                {
                  "internalType": "uint256",
                  "name": "minLongTokenAmount",
                  "type": "uint256"
                },
                {
                  "internalType": "uint256",
                  "name": "minShortTokenAmount",
                  "type": "uint256"
                },
                {
                  "internalType": "uint256",
                  "name": "updatedAtBlock",
                  "type": "uint256"
                },
                {
                  "internalType": "uint256",
                  "name": "executionFee",
                  "type": "uint256"
                },
                {
                  "internalType": "uint256",
                  "name": "callbackGasLimit",
                  "type": "uint256"
                }
              ],
              "internalType": "struct Withdrawal.Numbers",
              "name": "numbers",
              "type": "tuple"
            },
            {
              "components": [
                {
                  "internalType": "bool",
                  "name": "shouldUnwrapNativeToken",
                  "type": "bool"
                }
              ],
              "internalType": "struct Withdrawal.Flags",
              "name": "flags",
              "type": "tuple"
            }
          ],
          "internalType": "struct Withdrawal.Props",
          "name": "",
          "type": "tuple"
        }
      ],
      "stateMutability": "view",
      "type": "function"
    },
    {
      "inputs": [
        {
          "internalType": "contract DataStore",
          "name": "dataStore",
          "type": "address"
        },
        {
          "components": [
            {
              "internalType": "address",
              "name": "marketToken",
              "type": "address"
            },
            {
              "internalType": "address",
              "name": "indexToken",
              "type": "address"
            },
            {
              "internalType": "address",
              "name": "longToken",
              "type": "address"
            },
            {
              "internalType": "address",
              "name": "shortToken",
              "type": "address"
            }
          ],
          "internalType": "struct Market.Props",
          "name": "market",
          "type": "tuple"
        },
        {
          "components": [
            {
              "components": [
                {
                  "internalType": "uint256",
                  "name": "min",
                  "type": "uint256"
                },
                {
                  "internalType": "uint256",
                  "name": "max",
                  "type": "uint256"
                }
              ],
              "internalType": "struct Price.Props",
              "name": "indexTokenPrice",
              "type": "tuple"
            },
            {
              "components": [
                {
                  "internalType": "uint256",
                  "name": "min",
                  "type": "uint256"
                },
                {
                  "internalType": "uint256",
                  "name": "max",
                  "type": "uint256"
                }
              ],
              "internalType": "struct Price.Props",
              "name": "longTokenPrice",
              "type": "tuple"
            },
            {
              "components": [
                {
                  "internalType": "uint256",
                  "name": "min",
                  "type": "uint256"
                },
                {
                  "internalType": "uint256",
                  "name": "max",
                  "type": "uint256"
                }
              ],
              "internalType": "struct Price.Props",
              "name": "shortTokenPrice",
              "type": "tuple"
            }
          ],
          "internalType": "struct MarketUtils.MarketPrices",
          "name": "prices",
          "type": "tuple"
        },
        {
          "internalType": "uint256",
          "name": "marketTokenAmount",
          "type": "uint256"
        },
        {
          "internalType": "address",
          "name": "uiFeeReceiver",
          "type": "address"
        }
      ],
      "name": "getWithdrawalAmountOut",
      "outputs": [
        {
          "internalType": "uint256",
          "name": "",
          "type": "uint256"
        },
        {
          "internalType": "uint256",
          "name": "",
          "type": "uint256"
        }
      ],
      "stateMutability": "view",
      "type": "function"
    },
    {
      "inputs": [],
      "name": "test",
      "outputs": [
        {
          "internalType": "string",
          "name": "",
          "type": "string"
        }
      ],
      "stateMutability": "pure",
      "type": "function"
    }
  ],
  "bytecode": "0x608060405234801561001057600080fd5b50615060806100206000396000f3fe608060405234801561001057600080fd5b506004361061013e5760003560e01c80630815bce114610143578063095ce6c51461016c5780630fa8f516146102155780631485d2971461023557806324c029e0146102555780632b17b4fd14610276578063409f37c7146102a957806342a6f8d31461031b57806349651b6a1461033b5780635d2b44f91461035b5780635d5c6efe1461037b578063714af34b146103a357806371e138d5146103c357806377cfb162146103d6578063847bb469146103f657806385874c7f14610416578063971de27d14610429578063a01409381461043c578063a4f0d5501461044f578063b4976dae14610462578063bc7b5bba14610484578063ce3264bf146104a4578063ceeea3bf146104c4578063ece9e0c8146104e4578063f8a8fd6d14610504578063fd50649d1461052a575b600080fd5b610156610151366004612b5f565b61053d565b6040516101639190612e97565b60405180910390f35b61017f61017a366004612f0e565b6105d6565b60405161016392919060006101808201905083825282516020830152602083015160408301526040830151606083015260608301516080830152608083015160a083015260a083015160c083015260c083015160e083015260e083015161010081818501528085015191505061012081818501528085015191505061014081818501528085015161016085015250509392505050565b610228610223366004612f8b565b6106ca565b6040516101639190612fb7565b610248610243366004612f8b565b610756565b604051610163919061300a565b61026861026336600461310e565b6107dc565b604051908152602001610163565b61028961028436600461317f565b6107f7565b604080519485529215156020850152918301526060820152608001610163565b6102bc6102b73660046131db565b610892565b604080519384526020808501939093528151848201529181015160608085019190915291810151608080850191909152918101516001600160a01b031660a0808501919091529181015160c0840152015160e082015261010001610163565b61032e610329366004613256565b61096c565b6040516101639190613423565b61034e610349366004612f8b565b610ab9565b6040516101639190613485565b61036e610369366004613498565b610b3f565b6040516101639190613503565b61038e610389366004613511565b610c58565b60408051928352602083019190915201610163565b6103b66103b136600461359b565b610d6e565b6040516101639190613607565b61038e6103d1366004613615565b610df0565b6103e96103e4366004613256565b610e80565b6040516101639190613670565b6104096104043660046136bf565b610fbf565b60405161016391906137dc565b6102686104243660046137eb565b61104e565b61026861043736600461384f565b6110de565b61026861044a36600461310e565b61116a565b6103b661045d366004612f8b565b611179565b6104756104703660046138b4565b6111ba565b60405161016393929190613910565b6104976104923660046139be565b6112d0565b6040516101639190613a1d565b6104b76104b2366004613a60565b6113bd565b6040516101639190613a95565b6104d76104d2366004612f8b565b61150a565b6040516101639190613ad7565b6104f76104f2366004613ba0565b611590565b6040516101639190613c90565b60408051808201825260048152631d195cdd60e21b602082015290516101639190613cd3565b610268610538366004613d21565b61166e565b610545612428565b6040516306bc109960e31b815273__$7d62b333171909e88f9935bee8a07b01ad$__906335e084c890610588908b908b908b908b908b908b908b90600401613dac565b61066060405180830381865af41580156105a6573d6000803e3d6000fd5b505050506040513d601f19601f820116820180604052508101906105ca919061414a565b98975050505050505050565b600061063560405180610160016040528060008152602001600081526020016000815260200160008152602001600081526020016000815260200160008152602001600081526020016000815260200160008152602001600081525090565b604051637d494dc360e01b815273__$e53db83827f4e07ebc418caf7145b8c2d5$__90637d494dc390610678908c908c908c908c908c908c908c90600401614298565b61018060405180830381865af4158015610696573d6000803e3d6000fd5b505050506040513d601f19601f820116820180604052508101906106ba91906142fa565b9150915097509795505050505050565b6106d2612470565b60405163fdfc26f360e01b815273__$3d31b232fb363902662fbc281b11ab3357$__9063fdfc26f39061070b90869086906004016143ae565b6101a060405180830381865af4158015610729573d6000803e3d6000fd5b505050506040513d601f19601f8201168201806040525081019061074d91906143c7565b90505b92915050565b61075e612506565b60405163fdfc26f360e01b815273__$b63e253a228f0e32f671cc49c7fc32477c$__9063fdfc26f39061079790869086906004016143ae565b600060405180830381865af41580156107b4573d6000803e3d6000fd5b505050506040513d6000823e601f3d908101601f1916820160405261074d9190810190614448565b60006107eb868686868661167c565b90505b95945050505050565b600080600080600061080a89898961170d565b905060006108188a8a611787565b9050600080600061087b8d858c8e6040516020016108609060208082526016908201527513505617d4139317d19050d513d497d193d497d0511360521b604082015260600190565b60405160208183030381529060405280519060200120611818565b969f919e509c50949a509398505050505050505050565b6000806108d76040518060c0016040528060008152602001600081526020016000815260200160006001600160a01b0316815260200160008152602001600081525090565b60405163dafa66bf60e01b815273__$ae023ddda47a46a9af6ec057a2ebe54454$__9063dafa66bf90610918908c908c908c908c908c908c906004016145a2565b61010060405180830381865af4158015610936573d6000803e3d6000fd5b505050506040513d601f19601f8201168201806040525081019061095a91906145f4565b92509250925096509650969350505050565b6060600061097c8686868661186c565b9050600081516001600160401b038111156109995761099961293d565b6040519080825280602002602001820160405280156109d257816020015b6109bf612598565b8152602001906001900390816109b75790505b50905060005b8251811015610aae5760008382815181106109f5576109f561467c565b6020026020010151905073__$9dcb75ef0bb6c4288f2ccffe7dc492c4eb$__63fdfc26f38a836040518363ffffffff1660e01b8152600401610a389291906143ae565b600060405180830381865af4158015610a55573d6000803e3d6000fd5b505050506040513d6000823e601f3d908101601f19168201604052610a7d919081019061478d565b838381518110610a8f57610a8f61467c565b6020026020010181905250508080610aa6906148c7565b9150506109d8565b509695505050505050565b610ac1612598565b60405163fdfc26f360e01b815273__$9dcb75ef0bb6c4288f2ccffe7dc492c4eb$__9063fdfc26f390610afa90869086906004016143ae565b600060405180830381865af4158015610b17573d6000803e3d6000fd5b505050506040513d6000823e601f3d908101601f1916820160405261074d919081019061478d565b610b47612659565b60405163a8d8fff560e01b815260009073__$ff439aa65a80c9eec648f15db20b189505$__9063a8d8fff590610b83908c908c906004016148e0565b608060405180830381865af4158015610ba0573d6000803e3d6000fd5b505050506040513d601f19601f82011682018060405250810190610bc49190614957565b604051630a37d4c760e11b815290915073__$ae023ddda47a46a9af6ec057a2ebe54454$__9063146fa98e90610c0a908c9085908c908c908c908c908c90600401614973565b606060405180830381865af4158015610c27573d6000803e3d6000fd5b505050506040513d601f19601f82011682018060405250810190610c4b91906149c7565b9998505050505050505050565b600080600073__$ff439aa65a80c9eec648f15db20b189505$__63a8d8fff58b8b6040518363ffffffff1660e01b8152600401610c969291906148e0565b608060405180830381865af4158015610cb3573d6000803e3d6000fd5b505050506040513d601f19601f82011682018060405250810190610cd79190614957565b6040516340f5d44f60e11b815290915073__$ae023ddda47a46a9af6ec057a2ebe54454$__906381eba89e90610d1d908d9085908d908d908d908d908d906004016149e3565b6040805180830381865af4158015610d39573d6000803e3d6000fd5b505050506040513d601f19601f82011682018060405250810190610d5d9190614a35565b925092505097509795505050505050565b610d7661267a565b60405163a8d8fff560e01b815273__$ff439aa65a80c9eec648f15db20b189505$__9063a8d8fff590610daf90869086906004016148e0565b608060405180830381865af4158015610dcc573d6000803e3d6000fd5b505050506040513d601f19601f8201168201806040525081019061074d9190614957565b60008073__$cede619ada704cb31824310f43bfb6e2d5$__633246702388888888886040518663ffffffff1660e01b8152600401610e32959493929190614a59565b6040805180830381865af4158015610e4e573d6000803e3d6000fd5b505050506040513d601f19601f82011682018060405250810190610e729190614a35565b915091509550959350505050565b60606000610e90868686866118eb565b9050600081516001600160401b03811115610ead57610ead61293d565b604051908082528060200260200182016040528015610ee657816020015b610ed3612470565b815260200190600190039081610ecb5790505b50905060005b8251811015610aae576000838281518110610f0957610f0961467c565b6020026020010151905073__$3d31b232fb363902662fbc281b11ab3357$__63fdfc26f38a836040518363ffffffff1660e01b8152600401610f4c9291906143ae565b6101a060405180830381865af4158015610f6a573d6000803e3d6000fd5b505050506040513d601f19601f82011682018060405250810190610f8e91906143c7565b838381518110610fa057610fa061467c565b6020026020010181905250508080610fb7906148c7565b915050610eec565b610fc76126a1565b60405163619c4ddb60e01b815273__$7d62b333171909e88f9935bee8a07b01ad$__9063619c4ddb9061100290879087908790600401614aa1565b6103a060405180830381865af4158015611020573d6000803e3d6000fd5b505050506040513d601f19601f820116820180604052508101906110449190614b9d565b90505b9392505050565b604051636f72ba5d60e01b815260009073__$12e61648fa0188a8261c5e0807220aaa66$__90636f72ba5d90611092908a908a908a908a908a908a90600401614c5e565b602060405180830381865af41580156110af573d6000803e3d6000fd5b505050506040513d601f19601f820116820180604052508101906110d39190614cae565b979650505050505050565b60008073__$ff439aa65a80c9eec648f15db20b189505$__63a8d8fff588886040518363ffffffff1660e01b815260040161111a9291906148e0565b608060405180830381865af4158015611137573d6000803e3d6000fd5b505050506040513d601f19601f8201168201806040525081019061115b9190614957565b90506110d38782878787611905565b60006107eb8686868686611949565b61118161267a565b6040516329bc01e160e11b815273__$ff439aa65a80c9eec648f15db20b189505$__9063537803c290610daf90869086906004016143ae565b60008060008073__$3d31b232fb363902662fbc281b11ab3357$__63fdfc26f38a886040518363ffffffff1660e01b81526004016111f99291906143ae565b6101a060405180830381865af4158015611217573d6000803e3d6000fd5b505050506040513d601f19601f8201168201806040525081019061123b91906143c7565b60405163e22de79360e01b815290915073__$91a1a7f12f728c8759f4be979bae55555f$__9063e22de7939061127d908c908c908c9087908c90600401614cc7565b606060405180830381865af415801561129a573d6000803e3d6000fd5b505050506040513d601f19601f820116820180604052508101906112be9190614d31565b93509350935050955095509592505050565b606060006112df868585611974565b9050600081516001600160401b038111156112fc576112fc61293d565b60405190808252806020026020018201604052801561133557816020015b6113226126a1565b81526020019060019003908161131a5790505b50905060005b8251811015610aae5760008782815181106113585761135861467c565b6020026020010151905060008483815181106113765761137661467c565b6020026020010151905061138b8a8383610fbf565b84848151811061139d5761139d61467c565b6020026020010181905250505080806113b5906148c7565b91505061133b565b606060006113cc858585611974565b9050600081516001600160401b038111156113e9576113e961293d565b60405190808252806020026020018201604052801561142257816020015b61140f61267a565b8152602001906001900390816114075790505b50905060005b82518110156115005760008382815181106114455761144561467c565b60200260200101519050600073__$ff439aa65a80c9eec648f15db20b189505$__63a8d8fff58a846040518363ffffffff1660e01b815260040161148a9291906148e0565b608060405180830381865af41580156114a7573d6000803e3d6000fd5b505050506040513d601f19601f820116820180604052508101906114cb9190614957565b9050808484815181106114e0576114e061467c565b6020026020010181905250505080806114f8906148c7565b915050611428565b5095945050505050565b611512612712565b60405163fdfc26f360e01b815273__$3dc24d71d6ebafc0c4ce8ac2f69cd1548a$__9063fdfc26f39061154b90869086906004016143ae565b600060405180830381865af4158015611568573d6000803e3d6000fd5b505050506040513d6000823e601f3d908101601f1916820160405261074d9190810190614d5f565b6060600084516001600160401b038111156115ad576115ad61293d565b6040519080825280602002602001820160405280156115e657816020015b6115d3612428565b8152602001906001900390816115cb5790505b50905060005b8551811015610aae5760008682815181106116095761160961467c565b6020026020010151905061163d89898389868151811061162b5761162b61467c565b602002602001015160008a600161053d565b83838151811061164f5761164f61467c565b6020026020010181905250508080611666906148c7565b9150506115ec565b60006107ee85858585611a2f565b60008061169261168d888887611a5e565b611ab1565b905060006116a1888887611b24565b90508115806116ae575080155b156116be576000925050506107ee565b60006116cb878787611b6b565b905060006116dc61168d8385614e87565b90506000876116f4576116ef8286614e9e565b6116fe565b6116fe8583614e9e565b9b9a5050505050505050505050565b6000836001600160a01b031663bd02d0f56117288585611ba4565b6040518263ffffffff1660e01b815260040161174691815260200190565b602060405180830381865afa158015611763573d6000803e3d6000fd5b505050506040513d601f19601f820116820180604052508101906110449190614cae565b61178f61267a565b60405163a8d8fff560e01b815260009073__$ff439aa65a80c9eec648f15db20b189505$__9063a8d8fff5906117cb90879087906004016148e0565b608060405180830381865af41580156117e8573d6000803e3d6000fd5b505050506040513d601f19601f8201168201806040525081019061180c9190614957565b905061074d8482611c2e565b60008060008061182c898989896001611905565b905060006118408a878b600001518a611d07565b90506000808313801561185a57508161185884611d82565b115b9b929a50909850909650505050505050565b6060846001600160a01b031663f069052a61188686611dd4565b85856040518463ffffffff1660e01b81526004016118a693929190613910565b600060405180830381865afa1580156118c3573d6000803e3d6000fd5b505050506040513d6000823e601f3d908101601f191682016040526107ee9190810190614ec5565b6060846001600160a01b031663f069052a61188686611e56565b600080611916878787878715611e91565b90508060000361192a5760009150506107ee565b600061193d88888860000151888861167c565b90506105ca8183611f0a565b600080611957878786611a5e565b90506000611968888888888861167c565b90506105ca8282611f51565b6060836001600160a01b031663e7e4148e6040516020016119b4906020808252600b908201526a13505492d15517d31254d560aa1b604082015260600190565b6040516020818303038152906040528051906020012085856040518463ffffffff1660e01b81526004016119ea93929190613910565b600060405180830381865afa158015611a07573d6000803e3d6000fd5b505050506040513d6000823e601f3d908101601f191682016040526110449190810190614f4a565b600080611a4086868660018761167c565b90506000611a5287878760008861167c565b90506110d38183614f7e565b600080611a7384604001518560600151611f67565b90506000611a8c86866000015187604001518786611f96565b90506000611aa587876000015188606001518887611f96565b90506110d38183614fa6565b60006001600160ff1b03821115611b205760405162461bcd60e51b815260206004820152602860248201527f53616665436173743a2076616c756520646f65736e27742066697420696e2061604482015267371034b73a191a9b60c11b60648201526084015b60405180910390fd5b5090565b600080611b3984604001518560600151611f67565b90506000611b528686600001518760400151878661201c565b90506000611aa58787600001518860600151888761201c565b60008215611b8c5781611b7f578351611b85565b83602001515b9050611047565b81611b9b578360200151611044565b50509051919050565b6000604051602001611bda9060208082526010908201526f4c41544553545f41444c5f424c4f434b60801b604082015260600190565b60408051601f198184030181528282528051602091820120908301526001600160a01b0385169082015282151560608201526080015b60405160208183030381529060405280519060200120905092915050565b80516001600160a01b0316611c56576040516302fde0d760e11b815260040160405180910390fd5b6000826001600160a01b0316637ae1cfca611c748460000151612039565b6040518263ffffffff1660e01b8152600401611c9291815260200190565b602060405180830381865afa158015611caf573d6000803e3d6000fd5b505050506040513d601f19601f82011682018060405250810190611cd39190614fb9565b90508015611d025781516040516309f8c93760e01b81526001600160a01b039091166004820152602401611b17565b505050565b6000846001600160a01b031663bd02d0f5611d23868686612071565b6040518263ffffffff1660e01b8152600401611d4191815260200190565b602060405180830381865afa158015611d5e573d6000803e3d6000fd5b505050506040513d601f19601f820116820180604052508101906107ee9190614cae565b600080821215611b205760405162461bcd60e51b815260206004820181905260248201527f53616665436173743a2076616c7565206d75737420626520706f7369746976656044820152606401611b17565b6000604051602001611e0c906020808252601290820152711050d0d3d5539517d3d491115497d31254d560721b604082015260600190565b60408051601f198184030181528282528051602091820120908301526001600160a01b03841690820152606001604051602081830303815290604052805190602001209050919050565b6000604051602001611e0c906020808252601590820152741050d0d3d5539517d413d4d2551253d397d31254d5605a1b604082015260600190565b60008083611ea3578560600151611ea9565b85604001515b90506000611eb8888884612100565b905060008415611ee65785611ed557866040015160200151611edf565b8660200151602001515b9050611f00565b85611ef657604087015151611efd565b6020870151515b90505b610c4b8183614e87565b600080611f1f611f198561219e565b846121af565b905060008413611f4057611f3281611ab1565b611f3b90614fd6565b611f49565b611f4981611ab1565b949350505050565b600081611f5d84611ab1565b61074d9190614f7e565b6000816001600160a01b0316836001600160a01b031614611f89576001611f8c565b60025b60ff169392505050565b600081866001600160a01b031663bd02d0f5611fb38888886121bd565b6040518263ffffffff1660e01b8152600401611fd191815260200190565b602060405180830381865afa158015611fee573d6000803e3d6000fd5b505050506040513d601f19601f820116820180604052508101906120129190614cae565b6107eb9190615008565b600081866001600160a01b031663bd02d0f5611fb3888888612235565b6000604051602001611e0c906020808252601290820152711254d7d3505492d15517d11254d05093115160721b604082015260600190565b60006040516020016120a5906020808252600e908201526d26a0ac2fa827262fa320a1aa27a960911b604082015260600190565b60408051601f1981840301815282825280516020918201209083015281018590526001600160a01b0384166060820152821515608082015260a0015b6040516020818303038152906040528051906020012090509392505050565b60008061211584604001518560600151611f67565b905080856001600160a01b031663bd02d0f5612135876000015187612272565b6040518263ffffffff1660e01b815260040161215391815260200190565b602060405180830381865afa158015612170573d6000803e3d6000fd5b505050506040513d601f19601f820116820180604052508101906121949190614cae565b6107ee9190615008565b600080821215611b20575060000390565b600061074d838360006122e0565b60006040516020016121f0906020808252600d908201526c13d4115397d2539511549154d5609a1b604082015260600190565b60408051601f198184030181528282528051602091820120908301526001600160a01b038087169183019190915284166060820152821515608082015260a0016120e1565b60006040516020016121f0906020808252601790820152764f50454e5f494e5445524553545f494e5f544f4b454e5360481b604082015260600190565b60006040516020016122a3906020808252600b908201526a1413d3d317d05353d5539560aa1b604082015260600190565b60408051601f198184030181528282528051602091820120908301526001600160a01b038086169183019190915283166060820152608001611c10565b6000836000036122f257506000611047565b811561231157611b858468327cb2734119d3b7a9601e1b856001612328565b6110448468327cb2734119d3b7a9601e1b85612379565b600080612336868686612379565b9050600183600281111561234c5761234c61329c565b14801561236957506000848061236457612364614ff2565b868809115b156107ee576107eb600182614fa6565b60008080600019858709858702925082811083820303915050806000036123b3578382816123a9576123a9614ff2565b0492505050611047565b8084116123bf57600080fd5b60008486880960026001871981018816978890046003810283188082028403028082028403028082028403028082028403028082028403029081029092039091026000889003889004909101858311909403939093029303949094049190911702949350505050565b6040518060c0016040528061243b612470565b815260200161244861275a565b8152602001612455612659565b81526020016000815260200160008152602001600081525090565b6040805160c081019091526000606082018181526080830182905260a0830191909152819081526020016124e96040518061012001604052806000815260200160008152602001600081526020016000815260200160008152602001600081526020016000815260200160008152602001600081525090565b81526040805160208181019092526000815291015290565b905290565b604080516101808101909152600060608083018281526080840183905260a0840183905260c0840183905260e084018390526101008401839052610120840192909252610140830181905261016083015281905b81526020016124e96040518060c001604052806000815260200160008152602001600081526020016000815260200160008152602001600081525090565b604080516101408101909152600060608083018281526080840183905260a0840183905260c0840183905260e0840183905261010084019290925261012083015281526020810161263660408051610140810190915280600081526020016000815260200160008152602001600081526020016000815260200160008152602001600081526020016000815260200160008152602001600081525090565b815260408051606081018252600080825260208281018290529282015291015290565b60405180606001604052806000815260200160008152602001600081525090565b60408051608081018252600080825260208201819052918101829052606081019190915290565b6040518060e001604052806126b461267a565b815260200160008152602001600081526020016126cf6128a0565b81526020016126dc6128c0565b815260200161270560405180606001604052806000815260200160008152602001600081525090565b8152600060209091015290565b604080516101408101909152600060608083018281526080840183905260a0840183905260c0840183905260e08401929092526101008301819052610120830152819061255a565b604080516102c0810190915260006101c082018181526101e08301829052610200830182905261022083018290526102408301829052610260830182905261028083018290526102a0830191909152819081526020016127e96040518060c001604052806000815260200160008152602001600081526020016000815260200160008152602001600081525090565b81526020016128196040518060800160405280600081526020016000815260200160008152602001600081525090565b8152604080516060810182526000808252602082810182905292820152910190815260200161285b604051806040016040528060008152602001600081525090565b81526020016000815260200160008152602001600081526020016000815260200160008152602001600081526020016000815260200160008152602001600081525090565b60405180604001604052806128b36128e6565b81526020016125016128e6565b6040518060a0016040528060001515815260200160008152602001600081526020016128b35b60408051608081018252600091810182815260608201929092529081908152602001612501604051806040016040528060008152602001600081525090565b6001600160a01b038116811461293a57600080fd5b50565b634e487b7160e01b600052604160045260246000fd5b604080519081016001600160401b03811182821017156129755761297561293d565b60405290565b604051606081016001600160401b03811182821017156129755761297561293d565b604051608081016001600160401b03811182821017156129755761297561293d565b60405161012081016001600160401b03811182821017156129755761297561293d565b60405160c081016001600160401b03811182821017156129755761297561293d565b6040516101c081016001600160401b03811182821017156129755761297561293d565b60405161016081016001600160401b03811182821017156129755761297561293d565b60405161014081016001600160401b03811182821017156129755761297561293d565b60405160e081016001600160401b03811182821017156129755761297561293d565b604051601f8201601f191681016001600160401b0381118282101715612ab757612ab761293d565b604052919050565b600060408284031215612ad157600080fd5b612ad9612953565b9050813581526020820135602082015292915050565b600060c08284031215612b0157600080fd5b612b0961297b565b9050612b158383612abf565b8152612b248360408401612abf565b6020820152612b368360808401612abf565b604082015292915050565b8035612b4c81612925565b919050565b801515811461293a57600080fd5b6000806000806000806000610180888a031215612b7b57600080fd5b8735612b8681612925565b96506020880135612b9681612925565b955060408801359450612bac8960608a01612aef565b93506101208801359250610140880135612bc581612925565b9150610160880135612bd681612b51565b8091505092959891949750929550565b6001600160a01b03169052565b80516001600160a01b03908116835260208083015182169084015260409182015116910152565b805182526020810151602083015260408101516040830152606081015160608301526080810151608083015260a081015160a083015260c081015160c083015260e081015160e08301526101008082015181840152505050565b612c7f828251612bf3565b6020810151612c916060840182612c1a565b50604001515115156101809190910152565b805182526020810151602083015260408101516040830152606081015160608301526080810151608083015260a081015160a08301525050565b80518252602090810151910152565b8051825260208082015190830152604090810151910152565b612d10828251612c74565b602081810151805180516101a086810191909152928101516001600160a01b039081166101c08701526040820151166101e08601526060810151610200860152608081015161022086015260a081015161024086015260c081015161026086015260e00151610280850152906020820151612d8f6102a0860182612ca3565b506040828101518051610360870152602080820151610380880152818301516103a08801526060918201516103c08801529084015180516001600160a01b03166103e08801529081015161040087015201516104208501526080820151612dfa610440860182612cdd565b5060a082015161048085015260c08201516104a085015260e08201516104c08501526101008201516104e085015261012082015161050085015261014082015161052085015261016082015161054085015261018082015161056085015201516105808301526040810151612e736105a0840182612cec565b506060810151610600830152608081015161062083015260a0015161064090910152565b61066081016107508284612d05565b600060808284031215612eb857600080fd5b612ec061299d565b90508135612ecd81612925565b81526020820135612edd81612925565b60208201526040820135612ef081612925565b60408201526060820135612f0381612925565b606082015292915050565b60008060008060008060006101a0888a031215612f2a57600080fd5b8735612f3581612925565b9650612f448960208a01612ea6565b9550612f538960a08a01612abf565b9450612f628960e08a01612abf565b9350612f72896101208a01612abf565b92506101608801359150610180880135612bd681612b51565b60008060408385031215612f9e57600080fd5b8235612fa981612925565b946020939093013593505050565b6101a081016107508284612c74565b600081518084526020808501945080840160005b83811015612fff5781516001600160a01b031687529582019590820190600101612fda565b509495945050505050565b602081526000610120835161010080602086015261302b8386018351612be6565b602082015161303e610140870182612be6565b506040820151613052610160870182612be6565b506060820151613066610180870182612be6565b50608082015161307a6101a0870182612be6565b5060a082015161308e6101c0870182612be6565b5060c08201516130a26101e0870182612be6565b5060e0820151836102008701526130bd610240870182612fc6565b9282015186840361011f19016102208801529293506130de90508383612fc6565b9250602086015191506130f46040860183612ca3565b6040860151805115158683015291505b5090949350505050565b6000806000806000610120868803121561312757600080fd5b853561313281612925565b94506131418760208801612ea6565b93506131508760a08801612abf565b925060e086013561316081612b51565b915061010086013561317181612b51565b809150509295509295909350565b600080600080610120858703121561319657600080fd5b84356131a181612925565b935060208501356131b181612925565b925060408501356131c181612b51565b91506131d08660608701612aef565b905092959194509250565b6000806000806000806101c087890312156131f557600080fd5b863561320081612925565b955061320f8860208901612ea6565b945061321e8860a08901612aef565b935061016087013561322f81612925565b925061018087013591506101a087013561324881612925565b809150509295509295509295565b6000806000806080858703121561326c57600080fd5b843561327781612925565b9350602085013561328781612925565b93969395505050506040820135916060013590565b634e487b7160e01b600052602160045260246000fd5b600881106132c2576132c261329c565b9052565b600381106132c2576132c261329c565b6132e18282516132b2565b60208101516132f360208401826132c6565b5060408101516040830152606081015160608301526080810151608083015260a081015160a083015260c081015160c083015260e081015160e08301526101008082015181840152506101208082015181840152505050565b80516101c080845281516001600160a01b0390811691850191909152602082015181166101e08501526040820151166102008401526060810151600091613397610220860183612be6565b608081015191506133ac610240860183612be6565b60a081015191506133c1610260860183612be6565b60c0015160e061028086015290506133dd6102a0850182612fc6565b905060208301516133f160208601826132d6565b5060408381015180511515610160870152602081015115156101808701529081015115156101a0860152509392505050565b6000602080830181845280855180835260408601915060408160051b870101925083870160005b8281101561347857603f1988860301845261346685835161334c565b9450928501929085019060010161344a565b5092979650505050505050565b60208152600061074d602083018461334c565b6000806000806000806000610100888a0312156134b457600080fd5b87356134bf81612925565b965060208801356134cf81612925565b95506134de8960408a01612abf565b94506080880135935060a0880135925060c0880135915060e0880135612bd681612b51565b606081016107508284612cec565b6000806000806000806000610120888a03121561352d57600080fd5b873561353881612925565b9650602088013561354881612925565b9550604088013561355881612925565b9450606088013561356881612925565b93506080880135925061357e8960a08a01612abf565b915061358d8960e08a01612abf565b905092959891949750929550565b600080604083850312156135ae57600080fd5b82356135b981612925565b915060208301356135c981612925565b809150509250929050565b80516001600160a01b03908116835260208083015182169084015260408083015182169084015260609182015116910152565b6080810161075082846135d4565b60008060008060006101a0868803121561362e57600080fd5b853561363981612925565b94506136488760208801612ea6565b93506136578760a08801612aef565b9250610160860135915061018086013561317181612925565b6020808252825182820181905260009190848201906040850190845b818110156136b35761369f838551612c74565b928401926101a0929092019160010161368c565b50909695505050505050565b600080600061010084860312156136d557600080fd5b83356136e081612925565b92506136ef8560208601612aef565b915060e08401356136ff81612925565b809150509250925092565b613715828251612cdd565b6020810151611d026040840182612cdd565b6137328282516135d4565b60208101516080830152604081015160a0830152606081015161375960c08401825161370a565b6020015161376b61014084018261370a565b506080810151805115156101c084015260208101516101e0840152604081015161020084015260608101516137a461022085018261370a565b50608001516137b76102a084018261370a565b5060a08101516137cb610320840182612cec565b5060c0015115156103809190910152565b6103a081016107508284613727565b6000806000806000806101c0878903121561380557600080fd5b863561381081612925565b955061381f8860208901612ea6565b945061382e8860a08901612aef565b9350610160870135925061018087013591506101a087013561324881612925565b6000806000806000610140868803121561386857600080fd5b853561387381612925565b9450602086013561388381612925565b93506138928760408801612aef565b92506101008601356138a381612b51565b915061012086013561317181612b51565b60008060008060006101a086880312156138cd57600080fd5b85356138d881612925565b94506138e78760208801612ea6565b93506138f68760a08801612aef565b949793965093946101608101359450610180013592915050565b9283526020830191909152604082015260600190565b60006001600160401b0382111561393f5761393f61293d565b5060051b60200190565b600082601f83011261395a57600080fd5b8135602061396f61396a83613926565b612a8f565b82815260c0928302850182019282820191908785111561398e57600080fd5b8387015b858110156139b1576139a48982612aef565b8452928401928101613992565b5090979650505050505050565b600080600080608085870312156139d457600080fd5b84356139df81612925565b935060208501356001600160401b038111156139fa57600080fd5b613a0687828801613949565b949794965050505060408301359260600135919050565b6020808252825182820181905260009190848201906040850190845b818110156136b357613a4c838551613727565b928401926103a09290920191600101613a39565b600080600060608486031215613a7557600080fd5b8335613a8081612925565b95602085013595506040909401359392505050565b6020808252825182820181905260009190848201906040850190845b818110156136b357613ac48385516135d4565b9284019260809290920191600101613ab1565b602081526000825161010080602085015260018060a01b03808351166101208601528060208401511661014086015280604084015116610160860152506060820151613b27610180860182612be6565b506080820151613b3b6101a0860182612be6565b5060a082015160e06101c0860152613b57610200860182612fc6565b905060c0830151925061011f19858203016101e0860152613b788184612fc6565b9250506020850151613b8d6040860182612ca3565b5060408501518051151585830152613104565b600080600080600060a08688031215613bb857600080fd5b8535613bc381612925565b9450602086810135613bd481612925565b945060408701356001600160401b0380821115613bf057600080fd5b818901915089601f830112613c0457600080fd5b8135613c1261396a82613926565b81815260059190911b8301840190848101908c831115613c3157600080fd5b938501935b82851015613c4f57843582529385019390850190613c36565b975050506060890135925080831115613c6757600080fd5b5050613c7588828901613949565b925050613c8460808701612b41565b90509295509295909350565b6020808252825182820181905260009190848201906040850190845b818110156136b357613cbf838551612d05565b928401926106609290920191600101613cac565b600060208083528351808285015260005b81811015613d0057858101830151858201604001528201613ce4565b506000604082860101526040601f19601f8301168501019250505092915050565b6000806000806101008587031215613d3857600080fd5b8435613d4381612925565b9350613d528660208701612ea6565b9250613d618660a08701612abf565b915060e0850135613d7181612b51565b939692955090935050565b613d87828251612cdd565b6020810151613d996040840182612cdd565b506040810151611d026080840182612cdd565b6001600160a01b038881168252878116602083015260408201879052610180820190613ddb6060840188613d7c565b856101208401528085166101408401525082151561016083015298975050505050505050565b8051612b4c81612925565b8051612b4c81612b51565b600060208284031215613e2957600080fd5b604051602081016001600160401b0381118282101715613e4b57613e4b61293d565b80604052508091508251613e5e81612b51565b905292915050565b60008183036101a0811215613e7a57600080fd5b613e8261297b565b91506060811215613e9257600080fd5b613e9a61297b565b8351613ea581612925565b81526020840151613eb581612925565b60208201526040840151613ec881612925565b60408201528252610120605f198201811315613ee357600080fd5b613eeb6129bf565b9150606084015182526080840151602083015260a0840151604083015260c0840151606083015260e084015160808301526101008085015160a08401528185015160c084015261014085015160e084015261016085015181840152505080602083015250612b36836101808401613e17565b6000610100808385031215613f7157600080fd5b604051908101906001600160401b0382118183101715613f9357613f9361293d565b816040528092508351815260208401519150613fae82612925565b816020820152613fc060408501613e01565b6040820152606084015160608201526080840151608082015260a084015160a082015260c084015160c082015260e084015160e0820152505092915050565b600060c0828403121561401157600080fd5b6140196129e2565b9050815181526020820151602082015260408201516040820152606082015160608201526080820151608082015260a082015160a082015292915050565b60006080828403121561406957600080fd5b61407161299d565b90508151815260208201516020820152604082015160408201526060820151606082015292915050565b6000606082840312156140ad57600080fd5b6140b561297b565b905081516140c281612925565b80825250602082015160208201526040820151604082015292915050565b6000604082840312156140f257600080fd5b6140fa612953565b9050815181526020820151602082015292915050565b60006060828403121561412257600080fd5b61412a61297b565b905081518152602082015160208201526040820151604082015292915050565b600081830361066081121561415e57600080fd5b6141666129e2565b6141708585613e66565b81526101a061040061019f198401121561418957600080fd5b614191612a04565b925061419f86828701613f5d565b83526141af866102a08701613fff565b60208401526141c2866103608701614057565b60408401526141d5866103e0870161409b565b60608401526141e88661044087016140e0565b608084015261048085015160a08401526104a085015160c08401526104c085015160e08401526104e08501516101008401526105008501516101208401526105208501516101408401526105408501516101608401526105608501516101808401526105808501518184015250816020820152614269856105a08601614110565b6040820152610600840151606082015261062084015160808201526106409093015160a0840152509092915050565b6001600160a01b03881681526101a081016142b660208301896135d4565b6142c360a0830188612cdd565b6142d060e0830187612cdd565b6142de610120830186612cdd565b8361016083015282151561018083015298975050505050505050565b60008082840361018081121561430f57600080fd5b8351925061016080601f198301121561432757600080fd5b61432f612a27565b91506020850151825260408501516020830152606085015160408301526080850151606083015260a0850151608083015260c085015160a083015260e085015160c08301526101008086015160e08401526101208087015182850152610140915081870151818501525081860151818401525050809150509250929050565b6001600160a01b03929092168252602082015260400190565b60006101a082840312156143da57600080fd5b61074d8383613e66565b600082601f8301126143f557600080fd5b8151602061440561396a83613926565b82815260059290921b8401810191818101908684111561442457600080fd5b8286015b84811015610aae57805161443b81612925565b8352918301918301614428565b60006020828403121561445a57600080fd5b81516001600160401b038082111561447157600080fd5b818401915061010080838703121561448857600080fd5b61449061297b565b83518381111561449f57600080fd5b840161012081890312156144b257600080fd5b6144ba6129bf565b6144c382613e01565b81526144d160208301613e01565b60208201526144e260408301613e01565b60408201526144f360608301613e01565b606082015261450460808301613e01565b608082015261451560a08301613e01565b60a082015261452660c08301613e01565b60c082015260e08201518581111561453d57600080fd5b6145498a8285016143e4565b60e083015250838201518581111561456057600080fd5b61456c8a8285016143e4565b82860152508252506145818760208601613fff565b60208201526145938760e08601613e17565b60408201529695505050505050565b6001600160a01b0387811682526101c08201906145c260208401896135d4565b6145cf60a0840188613d7c565b808616610160840152846101808401528084166101a084015250979650505050505050565b600080600083850361010081121561460b57600080fd5b845193506020850151925060c0603f198201121561462857600080fd5b506146316129e2565b60408501518152606085015160208201526080850151604082015260a085015161465a81612925565b606082015260c0850151608082015260e09094015160a0850152509093909250565b634e487b7160e01b600052603260045260246000fd5b805160088110612b4c57600080fd5b805160038110612b4c57600080fd5b600061014082840312156146c357600080fd5b6146cb612a4a565b90506146d682614692565b81526146e4602083016146a1565b602082015260408201516040820152606082015160608201526080820151608082015260a082015160a082015260c082015160c082015260e082015160e082015261010080830151818301525061012080830151818301525092915050565b60006060828403121561475557600080fd5b61475d61297b565b9050815161476a81612b51565b8152602082015161477a81612b51565b60208201526040820151612b3681612b51565b60006020828403121561479f57600080fd5b81516001600160401b03808211156147b657600080fd5b908301906101c082860312156147cb57600080fd5b6147d361297b565b8251828111156147e257600080fd5b830160e081880312156147f457600080fd5b6147fc612a6d565b61480582613e01565b815261481360208301613e01565b602082015261482460408301613e01565b604082015261483560608301613e01565b606082015261484660808301613e01565b608082015261485760a08301613e01565b60a082015260c08201518481111561486e57600080fd5b61487a898285016143e4565b60c08301525082525061489086602085016146b0565b60208201526148a3866101608501614743565b604082015295945050505050565b634e487b7160e01b600052601160045260246000fd5b6000600182016148d9576148d96148b1565b5060010190565b6001600160a01b0392831681529116602082015260400190565b60006080828403121561490c57600080fd5b61491461299d565b9050815161492181612925565b8152602082015161493181612925565b6020820152604082015161494481612925565b60408201526060820151612f0381612925565b60006080828403121561496957600080fd5b61074d83836148fa565b6001600160a01b0388168152610160810161499160208301896135d4565b61499e60a0830188612cdd565b8560e0830152846101008301528361012083015282151561014083015298975050505050505050565b6000606082840312156149d957600080fd5b61074d8383614110565b6001600160a01b038881168252610180820190614a03602084018a6135d4565b87811660a0840152861660c083015260e08201859052614a27610100830185612cdd565b6105ca610140830184612cdd565b60008060408385031215614a4857600080fd5b505080516020909101519092909150565b6001600160a01b0386811682526101a0820190614a7960208401886135d4565b614a8660a0840187613d7c565b84610160840152808416610180840152509695505050505050565b6001600160a01b038481168252610100820190614ac16020840186613d7c565b80841660e084015250949350505050565b600060808284031215614ae457600080fd5b614aec612953565b9050614af883836140e0565b8152614b0783604084016140e0565b602082015292915050565b60006101608284031215614b2557600080fd5b60405160a081016001600160401b0381118282101715614b4757614b4761293d565b80604052508091508251614b5a81612b51565b808252506020830151602082015260408301516040820152614b7f8460608501614ad2565b6060820152614b918460e08501614ad2565b60808201525092915050565b60008183036103a0811215614bb157600080fd5b614bb9612a6d565b614bc385856148fa565b81526080840151602082015260a0840151604082015261010060bf1983011215614bec57600080fd5b614bf4612953565b9150614c038560c08601614ad2565b8252614c13856101408601614ad2565b6020830152816060820152614c2c856101c08601614b12565b6080820152614c3f856103208601614110565b60a0820152614c516103808501613e0c565b60c0820152949350505050565b6001600160a01b0387811682526101c0820190614c7e60208401896135d4565b614c8b60a0840188613d7c565b85610160840152846101808401528084166101a084015250979650505050505050565b600060208284031215614cc057600080fd5b5051919050565b6001600160a01b03861681526103208101614ce560208301876135d4565b614cf260a0830186613d7c565b614d0161016083018551612bf3565b6020840151614d146101c0840182612c1a565b50604093909301515115156102e082015261030001529392505050565b600080600060608486031215614d4657600080fd5b8351925060208401519150604084015190509250925092565b600060208284031215614d7157600080fd5b81516001600160401b0380821115614d8857600080fd5b908301906101008286031215614d9d57600080fd5b614da561297b565b825182811115614db457600080fd5b830160e08188031215614dc657600080fd5b614dce612a6d565b614dd782613e01565b8152614de560208301613e01565b6020820152614df660408301613e01565b6040820152614e0760608301613e01565b6060820152614e1860808301613e01565b608082015260a082015184811115614e2f57600080fd5b614e3b898285016143e4565b60a08301525060c082015184811115614e5357600080fd5b614e5f898285016143e4565b60c083015250825250614e758660208501613fff565b60208201526148a38660e08501613e17565b8082028115828204841417610750576107506148b1565b8181036000831280158383131683831282161715614ebe57614ebe6148b1565b5092915050565b60006020808385031215614ed857600080fd5b82516001600160401b03811115614eee57600080fd5b8301601f81018513614eff57600080fd5b8051614f0d61396a82613926565b81815260059190911b82018301908381019087831115614f2c57600080fd5b928401925b828410156110d357835182529284019290840190614f31565b600060208284031215614f5c57600080fd5b81516001600160401b03811115614f7257600080fd5b611f49848285016143e4565b8082018281126000831280158216821582161715614f9e57614f9e6148b1565b505092915050565b80820180821115610750576107506148b1565b600060208284031215614fcb57600080fd5b815161074d81612b51565b6000600160ff1b8201614feb57614feb6148b1565b5060000390565b634e487b7160e01b600052601260045260246000fd5b60008261502557634e487b7160e01b600052601260045260246000fd5b50049056fea26469706673582212201cdd5ac01ba7bd7f6064d735262a46262556ddf627f56334b880b18824fd03a664736f6c63430008120033",
  "linkReferences": {
    "contracts/deposit/DepositStoreUtils.sol": {
      "DepositStoreUtils": [
        {
          "length": 20,
          "start": 1933
        }
      ]
    },
    "contracts/market/MarketStoreUtils.sol": {
      "MarketStoreUtils": [
        {
          "length": 20,
          "start": 2937
        },
        {
          "length": 20,
          "start": 3199
        },
        {
          "length": 20,
          "start": 3493
        },
        {
          "length": 20,
          "start": 4355
        },
        {
          "length": 20,
          "start": 4528
        },
        {
          "length": 20,
          "start": 5235
        },
        {
          "length": 20,
          "start": 6081
        }
      ]
    },
    "contracts/market/MarketUtils.sol": {
      "MarketUtils": [
        {
          "length": 20,
          "start": 1636
        }
      ]
    },
    "contracts/order/OrderStoreUtils.sol": {
      "OrderStoreUtils": [
        {
          "length": 20,
          "start": 2593
        },
        {
          "length": 20,
          "start": 2800
        }
      ]
    },
    "contracts/position/PositionStoreUtils.sol": {
      "PositionStoreUtils": [
        {
          "length": 20,
          "start": 1793
        },
        {
          "length": 20,
          "start": 3893
        },
        {
          "length": 20,
          "start": 4578
        }
      ]
    },
    "contracts/position/PositionUtils.sol": {
      "PositionUtils": [
        {
          "length": 20,
          "start": 4717
        }
      ]
    },
    "contracts/reader/ReaderDepositUtils.sol": {
      "ReaderDepositUtils": [
        {
          "length": 20,
          "start": 4224
        }
      ]
    },
    "contracts/reader/ReaderPricingUtils.sol": {
      "ReaderPricingUtils": [
        {
          "length": 20,
          "start": 2310
        },
        {
          "length": 20,
          "start": 3062
        },
        {
          "length": 20,
          "start": 3337
        }
      ]
    },
    "contracts/reader/ReaderUtils.sol": {
      "ReaderUtils": [
        {
          "length": 20,
          "start": 1396
        },
        {
          "length": 20,
          "start": 4086
        }
      ]
    },
    "contracts/reader/ReaderWithdrawalUtils.sol": {
      "ReaderWithdrawalUtils": [
        {
          "length": 20,
          "start": 3605
        }
      ]
    },
    "contracts/withdrawal/WithdrawalStoreUtils.sol": {
      "WithdrawalStoreUtils": [
        {
          "length": 20,
          "start": 5441
        }
      ]
    }
  },
  "deployedLinkReferences": {
    "contracts/deposit/DepositStoreUtils.sol": {
      "DepositStoreUtils": [
        {
          "length": 20,
          "start": 1901
        }
      ]
    },
    "contracts/market/MarketStoreUtils.sol": {
      "MarketStoreUtils": [
        {
          "length": 20,
          "start": 2905
        },
        {
          "length": 20,
          "start": 3167
        },
        {
          "length": 20,
          "start": 3461
        },
        {
          "length": 20,
          "start": 4323
        },
        {
          "length": 20,
          "start": 4496
        },
        {
          "length": 20,
          "start": 5203
        },
        {
          "length": 20,
          "start": 6049
        }
      ]
    },
    "contracts/market/MarketUtils.sol": {
      "MarketUtils": [
        {
          "length": 20,
          "start": 1604
        }
      ]
    },
    "contracts/order/OrderStoreUtils.sol": {
      "OrderStoreUtils": [
        {
          "length": 20,
          "start": 2561
        },
        {
          "length": 20,
          "start": 2768
        }
      ]
    },
    "contracts/position/PositionStoreUtils.sol": {
      "PositionStoreUtils": [
        {
          "length": 20,
          "start": 1761
        },
        {
          "length": 20,
          "start": 3861
        },
        {
          "length": 20,
          "start": 4546
        }
      ]
    },
    "contracts/position/PositionUtils.sol": {
      "PositionUtils": [
        {
          "length": 20,
          "start": 4685
        }
      ]
    },
    "contracts/reader/ReaderDepositUtils.sol": {
      "ReaderDepositUtils": [
        {
          "length": 20,
          "start": 4192
        }
      ]
    },
    "contracts/reader/ReaderPricingUtils.sol": {
      "ReaderPricingUtils": [
        {
          "length": 20,
          "start": 2278
        },
        {
          "length": 20,
          "start": 3030
        },
        {
          "length": 20,
          "start": 3305
        }
      ]
    },
    "contracts/reader/ReaderUtils.sol": {
      "ReaderUtils": [
        {
          "length": 20,
          "start": 1364
        },
        {
          "length": 20,
          "start": 4054
        }
      ]
    },
    "contracts/reader/ReaderWithdrawalUtils.sol": {
      "ReaderWithdrawalUtils": [
        {
          "length": 20,
          "start": 3573
        }
      ]
    },
    "contracts/withdrawal/WithdrawalStoreUtils.sol": {
      "WithdrawalStoreUtils": [
        {
          "length": 20,
          "start": 5409
        }
      ]
    }
  }
}