{
  "_format": "hh-sol-artifact-1",
  "contractName": "PositionManager",
  "sourceName": "contracts/core/PositionManager.sol",
  "abi": [
    {
      "inputs": [
        {
          "internalType": "address",
          "name": "_vault",
          "type": "address"
        },
        {
          "internalType": "address",
          "name": "_router",
          "type": "address"
        },
        {
          "internalType": "address",
          "name": "_shortsTracker",
          "type": "address"
        },
        {
          "internalType": "address",
          "name": "_weth",
          "type": "address"
        },
        {
          "internalType": "uint256",
          "name": "_depositFee",
          "type": "uint256"
        },
        {
          "internalType": "address",
          "name": "_orderBook",
          "type": "address"
        }
      ],
      "stateMutability": "nonpayable",
      "type": "constructor"
    },
    {
      "anonymous": false,
      "inputs": [
        {
          "indexed": false,
          "internalType": "address",
          "name": "account",
          "type": "address"
        },
        {
          "indexed": false,
          "internalType": "uint256",
          "name": "sizeDelta",
          "type": "uint256"
        },
        {
          "indexed": false,
          "internalType": "uint256",
          "name": "marginFeeBasisPoints",
          "type": "uint256"
        },
        {
          "indexed": false,
          "internalType": "bytes32",
          "name": "referralCode",
          "type": "bytes32"
        },
        {
          "indexed": false,
          "internalType": "address",
          "name": "referrer",
          "type": "address"
        }
      ],
      "name": "DecreasePositionReferral",
      "type": "event"
    },
    {
      "anonymous": false,
      "inputs": [
        {
          "indexed": false,
          "internalType": "address",
          "name": "account",
          "type": "address"
        },
        {
          "indexed": false,
          "internalType": "uint256",
          "name": "sizeDelta",
          "type": "uint256"
        },
        {
          "indexed": false,
          "internalType": "uint256",
          "name": "marginFeeBasisPoints",
          "type": "uint256"
        },
        {
          "indexed": false,
          "internalType": "bytes32",
          "name": "referralCode",
          "type": "bytes32"
        },
        {
          "indexed": false,
          "internalType": "address",
          "name": "referrer",
          "type": "address"
        }
      ],
      "name": "IncreasePositionReferral",
      "type": "event"
    },
    {
      "anonymous": false,
      "inputs": [
        {
          "indexed": false,
          "internalType": "address",
          "name": "admin",
          "type": "address"
        }
      ],
      "name": "SetAdmin",
      "type": "event"
    },
    {
      "anonymous": false,
      "inputs": [
        {
          "indexed": false,
          "internalType": "uint256",
          "name": "depositFee",
          "type": "uint256"
        }
      ],
      "name": "SetDepositFee",
      "type": "event"
    },
    {
      "anonymous": false,
      "inputs": [
        {
          "indexed": false,
          "internalType": "bool",
          "name": "inLegacyMode",
          "type": "bool"
        }
      ],
      "name": "SetInLegacyMode",
      "type": "event"
    },
    {
      "anonymous": false,
      "inputs": [
        {
          "indexed": false,
          "internalType": "uint256",
          "name": "increasePositionBufferBps",
          "type": "uint256"
        }
      ],
      "name": "SetIncreasePositionBufferBps",
      "type": "event"
    },
    {
      "anonymous": false,
      "inputs": [
        {
          "indexed": true,
          "internalType": "address",
          "name": "account",
          "type": "address"
        },
        {
          "indexed": false,
          "internalType": "bool",
          "name": "isActive",
          "type": "bool"
        }
      ],
      "name": "SetLiquidator",
      "type": "event"
    },
    {
      "anonymous": false,
      "inputs": [
        {
          "indexed": false,
          "internalType": "address[]",
          "name": "tokens",
          "type": "address[]"
        },
        {
          "indexed": false,
          "internalType": "uint256[]",
          "name": "longSizes",
          "type": "uint256[]"
        },
        {
          "indexed": false,
          "internalType": "uint256[]",
          "name": "shortSizes",
          "type": "uint256[]"
        }
      ],
      "name": "SetMaxGlobalSizes",
      "type": "event"
    },
    {
      "anonymous": false,
      "inputs": [
        {
          "indexed": true,
          "internalType": "address",
          "name": "account",
          "type": "address"
        },
        {
          "indexed": false,
          "internalType": "bool",
          "name": "isActive",
          "type": "bool"
        }
      ],
      "name": "SetOrderKeeper",
      "type": "event"
    },
    {
      "anonymous": false,
      "inputs": [
        {
          "indexed": false,
          "internalType": "address",
          "name": "account",
          "type": "address"
        },
        {
          "indexed": false,
          "internalType": "bool",
          "name": "isActive",
          "type": "bool"
        }
      ],
      "name": "SetPartner",
      "type": "event"
    },
    {
      "anonymous": false,
      "inputs": [
        {
          "indexed": false,
          "internalType": "address",
          "name": "referralStorage",
          "type": "address"
        }
      ],
      "name": "SetReferralStorage",
      "type": "event"
    },
    {
      "anonymous": false,
      "inputs": [
        {
          "indexed": false,
          "internalType": "bool",
          "name": "shouldValidateIncreaseOrder",
          "type": "bool"
        }
      ],
      "name": "SetShouldValidateIncreaseOrder",
      "type": "event"
    },
    {
      "anonymous": false,
      "inputs": [
        {
          "indexed": false,
          "internalType": "address",
          "name": "token",
          "type": "address"
        },
        {
          "indexed": false,
          "internalType": "address",
          "name": "receiver",
          "type": "address"
        },
        {
          "indexed": false,
          "internalType": "uint256",
          "name": "amount",
          "type": "uint256"
        }
      ],
      "name": "WithdrawFees",
      "type": "event"
    },
    {
      "inputs": [],
      "name": "BASIS_POINTS_DIVISOR",
      "outputs": [
        {
          "internalType": "uint256",
          "name": "",
          "type": "uint256"
        }
      ],
      "stateMutability": "view",
      "type": "function"
    },
    {
      "inputs": [],
      "name": "admin",
      "outputs": [
        {
          "internalType": "address",
          "name": "",
          "type": "address"
        }
      ],
      "stateMutability": "view",
      "type": "function"
    },
    {
      "inputs": [
        {
          "internalType": "address",
          "name": "_token",
          "type": "address"
        },
        {
          "internalType": "address",
          "name": "_spender",
          "type": "address"
        },
        {
          "internalType": "uint256",
          "name": "_amount",
          "type": "uint256"
        }
      ],
      "name": "approve",
      "outputs": [],
      "stateMutability": "nonpayable",
      "type": "function"
    },
    {
      "inputs": [
        {
          "internalType": "address",
          "name": "_collateralToken",
          "type": "address"
        },
        {
          "internalType": "address",
          "name": "_indexToken",
          "type": "address"
        },
        {
          "internalType": "uint256",
          "name": "_collateralDelta",
          "type": "uint256"
        },
        {
          "internalType": "uint256",
          "name": "_sizeDelta",
          "type": "uint256"
        },
        {
          "internalType": "bool",
          "name": "_isLong",
          "type": "bool"
        },
        {
          "internalType": "address",
          "name": "_receiver",
          "type": "address"
        },
        {
          "internalType": "uint256",
          "name": "_price",
          "type": "uint256"
        }
      ],
      "name": "decreasePosition",
      "outputs": [],
      "stateMutability": "nonpayable",
      "type": "function"
    },
    {
      "inputs": [
        {
          "internalType": "address[]",
          "name": "_path",
          "type": "address[]"
        },
        {
          "internalType": "address",
          "name": "_indexToken",
          "type": "address"
        },
        {
          "internalType": "uint256",
          "name": "_collateralDelta",
          "type": "uint256"
        },
        {
          "internalType": "uint256",
          "name": "_sizeDelta",
          "type": "uint256"
        },
        {
          "internalType": "bool",
          "name": "_isLong",
          "type": "bool"
        },
        {
          "internalType": "address",
          "name": "_receiver",
          "type": "address"
        },
        {
          "internalType": "uint256",
          "name": "_price",
          "type": "uint256"
        },
        {
          "internalType": "uint256",
          "name": "_minOut",
          "type": "uint256"
        }
      ],
      "name": "decreasePositionAndSwap",
      "outputs": [],
      "stateMutability": "nonpayable",
      "type": "function"
    },
    {
      "inputs": [
        {
          "internalType": "address[]",
          "name": "_path",
          "type": "address[]"
        },
        {
          "internalType": "address",
          "name": "_indexToken",
          "type": "address"
        },
        {
          "internalType": "uint256",
          "name": "_collateralDelta",
          "type": "uint256"
        },
        {
          "internalType": "uint256",
          "name": "_sizeDelta",
          "type": "uint256"
        },
        {
          "internalType": "bool",
          "name": "_isLong",
          "type": "bool"
        },
        {
          "internalType": "address payable",
          "name": "_receiver",
          "type": "address"
        },
        {
          "internalType": "uint256",
          "name": "_price",
          "type": "uint256"
        },
        {
          "internalType": "uint256",
          "name": "_minOut",
          "type": "uint256"
        }
      ],
      "name": "decreasePositionAndSwapETH",
      "outputs": [],
      "stateMutability": "nonpayable",
      "type": "function"
    },
    {
      "inputs": [
        {
          "internalType": "address",
          "name": "_collateralToken",
          "type": "address"
        },
        {
          "internalType": "address",
          "name": "_indexToken",
          "type": "address"
        },
        {
          "internalType": "uint256",
          "name": "_collateralDelta",
          "type": "uint256"
        },
        {
          "internalType": "uint256",
          "name": "_sizeDelta",
          "type": "uint256"
        },
        {
          "internalType": "bool",
          "name": "_isLong",
          "type": "bool"
        },
        {
          "internalType": "address payable",
          "name": "_receiver",
          "type": "address"
        },
        {
          "internalType": "uint256",
          "name": "_price",
          "type": "uint256"
        }
      ],
      "name": "decreasePositionETH",
      "outputs": [],
      "stateMutability": "nonpayable",
      "type": "function"
    },
    {
      "inputs": [],
      "name": "depositFee",
      "outputs": [
        {
          "internalType": "uint256",
          "name": "",
          "type": "uint256"
        }
      ],
      "stateMutability": "view",
      "type": "function"
    },
    {
      "inputs": [
        {
          "internalType": "address",
          "name": "_account",
          "type": "address"
        },
        {
          "internalType": "uint256",
          "name": "_orderIndex",
          "type": "uint256"
        },
        {
          "internalType": "address payable",
          "name": "_feeReceiver",
          "type": "address"
        }
      ],
      "name": "executeDecreaseOrder",
      "outputs": [],
      "stateMutability": "nonpayable",
      "type": "function"
    },
    {
      "inputs": [
        {
          "internalType": "address",
          "name": "_account",
          "type": "address"
        },
        {
          "internalType": "uint256",
          "name": "_orderIndex",
          "type": "uint256"
        },
        {
          "internalType": "address payable",
          "name": "_feeReceiver",
          "type": "address"
        }
      ],
      "name": "executeIncreaseOrder",
      "outputs": [],
      "stateMutability": "nonpayable",
      "type": "function"
    },
    {
      "inputs": [
        {
          "internalType": "address",
          "name": "_account",
          "type": "address"
        },
        {
          "internalType": "uint256",
          "name": "_orderIndex",
          "type": "uint256"
        },
        {
          "internalType": "address payable",
          "name": "_feeReceiver",
          "type": "address"
        }
      ],
      "name": "executeSwapOrder",
      "outputs": [],
      "stateMutability": "nonpayable",
      "type": "function"
    },
    {
      "inputs": [
        {
          "internalType": "address",
          "name": "",
          "type": "address"
        }
      ],
      "name": "feeReserves",
      "outputs": [
        {
          "internalType": "uint256",
          "name": "",
          "type": "uint256"
        }
      ],
      "stateMutability": "view",
      "type": "function"
    },
    {
      "inputs": [],
      "name": "gov",
      "outputs": [
        {
          "internalType": "address",
          "name": "",
          "type": "address"
        }
      ],
      "stateMutability": "view",
      "type": "function"
    },
    {
      "inputs": [],
      "name": "inLegacyMode",
      "outputs": [
        {
          "internalType": "bool",
          "name": "",
          "type": "bool"
        }
      ],
      "stateMutability": "view",
      "type": "function"
    },
    {
      "inputs": [
        {
          "internalType": "address[]",
          "name": "_path",
          "type": "address[]"
        },
        {
          "internalType": "address",
          "name": "_indexToken",
          "type": "address"
        },
        {
          "internalType": "uint256",
          "name": "_amountIn",
          "type": "uint256"
        },
        {
          "internalType": "uint256",
          "name": "_minOut",
          "type": "uint256"
        },
        {
          "internalType": "uint256",
          "name": "_sizeDelta",
          "type": "uint256"
        },
        {
          "internalType": "bool",
          "name": "_isLong",
          "type": "bool"
        },
        {
          "internalType": "uint256",
          "name": "_price",
          "type": "uint256"
        }
      ],
      "name": "increasePosition",
      "outputs": [],
      "stateMutability": "nonpayable",
      "type": "function"
    },
    {
      "inputs": [],
      "name": "increasePositionBufferBps",
      "outputs": [
        {
          "internalType": "uint256",
          "name": "",
          "type": "uint256"
        }
      ],
      "stateMutability": "view",
      "type": "function"
    },
    {
      "inputs": [
        {
          "internalType": "address[]",
          "name": "_path",
          "type": "address[]"
        },
        {
          "internalType": "address",
          "name": "_indexToken",
          "type": "address"
        },
        {
          "internalType": "uint256",
          "name": "_minOut",
          "type": "uint256"
        },
        {
          "internalType": "uint256",
          "name": "_sizeDelta",
          "type": "uint256"
        },
        {
          "internalType": "bool",
          "name": "_isLong",
          "type": "bool"
        },
        {
          "internalType": "uint256",
          "name": "_price",
          "type": "uint256"
        }
      ],
      "name": "increasePositionETH",
      "outputs": [],
      "stateMutability": "payable",
      "type": "function"
    },
    {
      "inputs": [
        {
          "internalType": "address",
          "name": "",
          "type": "address"
        }
      ],
      "name": "isLiquidator",
      "outputs": [
        {
          "internalType": "bool",
          "name": "",
          "type": "bool"
        }
      ],
      "stateMutability": "view",
      "type": "function"
    },
    {
      "inputs": [
        {
          "internalType": "address",
          "name": "",
          "type": "address"
        }
      ],
      "name": "isOrderKeeper",
      "outputs": [
        {
          "internalType": "bool",
          "name": "",
          "type": "bool"
        }
      ],
      "stateMutability": "view",
      "type": "function"
    },
    {
      "inputs": [
        {
          "internalType": "address",
          "name": "",
          "type": "address"
        }
      ],
      "name": "isPartner",
      "outputs": [
        {
          "internalType": "bool",
          "name": "",
          "type": "bool"
        }
      ],
      "stateMutability": "view",
      "type": "function"
    },
    {
      "inputs": [
        {
          "internalType": "address",
          "name": "_account",
          "type": "address"
        },
        {
          "internalType": "address",
          "name": "_collateralToken",
          "type": "address"
        },
        {
          "internalType": "address",
          "name": "_indexToken",
          "type": "address"
        },
        {
          "internalType": "bool",
          "name": "_isLong",
          "type": "bool"
        },
        {
          "internalType": "address",
          "name": "_feeReceiver",
          "type": "address"
        }
      ],
      "name": "liquidatePosition",
      "outputs": [],
      "stateMutability": "nonpayable",
      "type": "function"
    },
    {
      "inputs": [
        {
          "internalType": "address",
          "name": "",
          "type": "address"
        }
      ],
      "name": "maxGlobalLongSizes",
      "outputs": [
        {
          "internalType": "uint256",
          "name": "",
          "type": "uint256"
        }
      ],
      "stateMutability": "view",
      "type": "function"
    },
    {
      "inputs": [
        {
          "internalType": "address",
          "name": "",
          "type": "address"
        }
      ],
      "name": "maxGlobalShortSizes",
      "outputs": [
        {
          "internalType": "uint256",
          "name": "",
          "type": "uint256"
        }
      ],
      "stateMutability": "view",
      "type": "function"
    },
    {
      "inputs": [],
      "name": "orderBook",
      "outputs": [
        {
          "internalType": "address",
          "name": "",
          "type": "address"
        }
      ],
      "stateMutability": "view",
      "type": "function"
    },
    {
      "inputs": [],
      "name": "referralStorage",
      "outputs": [
        {
          "internalType": "address",
          "name": "",
          "type": "address"
        }
      ],
      "stateMutability": "view",
      "type": "function"
    },
    {
      "inputs": [],
      "name": "router",
      "outputs": [
        {
          "internalType": "address",
          "name": "",
          "type": "address"
        }
      ],
      "stateMutability": "view",
      "type": "function"
    },
    {
      "inputs": [
        {
          "internalType": "address payable",
          "name": "_receiver",
          "type": "address"
        },
        {
          "internalType": "uint256",
          "name": "_amount",
          "type": "uint256"
        }
      ],
      "name": "sendValue",
      "outputs": [],
      "stateMutability": "nonpayable",
      "type": "function"
    },
    {
      "inputs": [
        {
          "internalType": "address",
          "name": "_admin",
          "type": "address"
        }
      ],
      "name": "setAdmin",
      "outputs": [],
      "stateMutability": "nonpayable",
      "type": "function"
    },
    {
      "inputs": [
        {
          "internalType": "uint256",
          "name": "_depositFee",
          "type": "uint256"
        }
      ],
      "name": "setDepositFee",
      "outputs": [],
      "stateMutability": "nonpayable",
      "type": "function"
    },
    {
      "inputs": [
        {
          "internalType": "address",
          "name": "_gov",
          "type": "address"
        }
      ],
      "name": "setGov",
      "outputs": [],
      "stateMutability": "nonpayable",
      "type": "function"
    },
    {
      "inputs": [
        {
          "internalType": "bool",
          "name": "_inLegacyMode",
          "type": "bool"
        }
      ],
      "name": "setInLegacyMode",
      "outputs": [],
      "stateMutability": "nonpayable",
      "type": "function"
    },
    {
      "inputs": [
        {
          "internalType": "uint256",
          "name": "_increasePositionBufferBps",
          "type": "uint256"
        }
      ],
      "name": "setIncreasePositionBufferBps",
      "outputs": [],
      "stateMutability": "nonpayable",
      "type": "function"
    },
    {
      "inputs": [
        {
          "internalType": "address",
          "name": "_account",
          "type": "address"
        },
        {
          "internalType": "bool",
          "name": "_isActive",
          "type": "bool"
        }
      ],
      "name": "setLiquidator",
      "outputs": [],
      "stateMutability": "nonpayable",
      "type": "function"
    },
    {
      "inputs": [
        {
          "internalType": "address[]",
          "name": "_tokens",
          "type": "address[]"
        },
        {
          "internalType": "uint256[]",
          "name": "_longSizes",
          "type": "uint256[]"
        },
        {
          "internalType": "uint256[]",
          "name": "_shortSizes",
          "type": "uint256[]"
        }
      ],
      "name": "setMaxGlobalSizes",
      "outputs": [],
      "stateMutability": "nonpayable",
      "type": "function"
    },
    {
      "inputs": [
        {
          "internalType": "address",
          "name": "_account",
          "type": "address"
        },
        {
          "internalType": "bool",
          "name": "_isActive",
          "type": "bool"
        }
      ],
      "name": "setOrderKeeper",
      "outputs": [],
      "stateMutability": "nonpayable",
      "type": "function"
    },
    {
      "inputs": [
        {
          "internalType": "address",
          "name": "_account",
          "type": "address"
        },
        {
          "internalType": "bool",
          "name": "_isActive",
          "type": "bool"
        }
      ],
      "name": "setPartner",
      "outputs": [],
      "stateMutability": "nonpayable",
      "type": "function"
    },
    {
      "inputs": [
        {
          "internalType": "address",
          "name": "_referralStorage",
          "type": "address"
        }
      ],
      "name": "setReferralStorage",
      "outputs": [],
      "stateMutability": "nonpayable",
      "type": "function"
    },
    {
      "inputs": [
        {
          "internalType": "bool",
          "name": "_shouldValidateIncreaseOrder",
          "type": "bool"
        }
      ],
      "name": "setShouldValidateIncreaseOrder",
      "outputs": [],
      "stateMutability": "nonpayable",
      "type": "function"
    },
    {
      "inputs": [],
      "name": "shortsTracker",
      "outputs": [
        {
          "internalType": "address",
          "name": "",
          "type": "address"
        }
      ],
      "stateMutability": "view",
      "type": "function"
    },
    {
      "inputs": [],
      "name": "shouldValidateIncreaseOrder",
      "outputs": [
        {
          "internalType": "bool",
          "name": "",
          "type": "bool"
        }
      ],
      "stateMutability": "view",
      "type": "function"
    },
    {
      "inputs": [],
      "name": "vault",
      "outputs": [
        {
          "internalType": "address",
          "name": "",
          "type": "address"
        }
      ],
      "stateMutability": "view",
      "type": "function"
    },
    {
      "inputs": [],
      "name": "weth",
      "outputs": [
        {
          "internalType": "address",
          "name": "",
          "type": "address"
        }
      ],
      "stateMutability": "view",
      "type": "function"
    },
    {
      "inputs": [
        {
          "internalType": "address",
          "name": "_token",
          "type": "address"
        },
        {
          "internalType": "address",
          "name": "_receiver",
          "type": "address"
        }
      ],
      "name": "withdrawFees",
      "outputs": [],
      "stateMutability": "nonpayable",
      "type": "function"
    },
    {
      "stateMutability": "payable",
      "type": "receive"
    }
  ],
  "bytecode": "0x60806040526064600855600d805460ff60a81b1916600160a81b17905534801561002857600080fd5b506040516200512538038062005125833981810160405260c081101561004d57600080fd5b508051602082015160408301516060840151608085015160a0909501516001600081905580546001600160a01b031990811633908117909255600380546001600160a01b039889169083161790556005805496881696821696909617909555600680549387169386169390931790925560079590955560048054928516928416929092179091556002805483169091179055600d805492909316911617905561502980620000fc6000396000f3fe6080604052600436106101ef5760003560e01c80626cc35e1461024457806307c7edc3146102755780631045c74e146102b857806311d9444a146102fd578063126082cf1461034057806312d43a51146103555780631b9043591461036a5780631ce9cb8f146103965780631e261538146103c957806321acf65914610404578063233bfe3b1461043f57806324a084df146104695780633039e37f146104a25780633833f5f5146105825780633fc8cef3146105c9578063430ed37c146105de5780634453a3741461063d5780634584bd4b14610678578063490ae2101461068d578063529a356f146106b75780635fc8500e146106ea578063657bc5d0146107ca57806367a52793146107df578063704b6c02146107f4578063776af5ba146108275780638c0f9aac1461083c57806390205d8c1461086f5780639698d25a146108ce57806398d1e03a146109015780639c95332f14610916578063ae4d7f9a14610942578063b32755de14610975578063b7ddc99214610a38578063cfad57a214610b0e578063d38ab51914610b41578063d4ca83f914610b84578063de2ea94814610b99578063e1f21c6714610bee578063ef12c67e14610c31578063f255527814610de3578063f851a44014610e1e578063f887ea4014610e33578063fbfa77cf14610e485761023f565b3661023f576006546001600160a01b0316331461023d5760405162461bcd60e51b8152600401808060200182810382526023815260200180614f826023913960400191505060405180910390fd5b005b600080fd5b34801561025057600080fd5b50610259610e5d565b604080516001600160a01b039092168252519081900360200190f35b34801561028157600080fd5b5061023d6004803603606081101561029857600080fd5b506001600160a01b03813581169160208101359160409091013516610e6c565b3480156102c457600080fd5b506102eb600480360360208110156102db57600080fd5b50356001600160a01b0316610f38565b60408051918252519081900360200190f35b34801561030957600080fd5b5061023d6004803603606081101561032057600080fd5b506001600160a01b03813581169160208101359160409091013516610f4a565b34801561034c57600080fd5b506102eb6113aa565b34801561036157600080fd5b506102596113b0565b34801561037657600080fd5b5061023d6004803603602081101561038d57600080fd5b503515156113bf565b3480156103a257600080fd5b506102eb600480360360208110156103b957600080fd5b50356001600160a01b031661145f565b3480156103d557600080fd5b5061023d600480360360408110156103ec57600080fd5b506001600160a01b0381351690602001351515611471565b34801561041057600080fd5b5061023d6004803603604081101561042757600080fd5b506001600160a01b038135169060200135151561151e565b34801561044b57600080fd5b5061023d6004803603602081101561046257600080fd5b50356115cf565b34801561047557600080fd5b5061023d6004803603604081101561048c57600080fd5b506001600160a01b038135169060200135611657565b3480156104ae57600080fd5b5061023d60048036036101008110156104c657600080fd5b810190602081018135600160201b8111156104e057600080fd5b8201836020820111156104f257600080fd5b803590602001918460208302840111600160201b8311171561051357600080fd5b919080806020026020016040519081016040528093929190818152602001838360200280828437600092019190915250929550505081356001600160a01b0390811693506020830135926040810135925060608101351515916080820135169060a08101359060c001356116bb565b34801561058e57600080fd5b506105b5600480360360208110156105a557600080fd5b50356001600160a01b03166118b6565b604080519115158252519081900360200190f35b3480156105d557600080fd5b506102596118cb565b3480156105ea57600080fd5b5061023d600480360360e081101561060157600080fd5b506001600160a01b0381358116916020810135821691604082013591606081013591608082013515159160a08101359091169060c001356118da565b34801561064957600080fd5b5061023d6004803603604081101561066057600080fd5b506001600160a01b0381351690602001351515611a03565b34801561068457600080fd5b506105b5611ab0565b34801561069957600080fd5b5061023d600480360360208110156106b057600080fd5b5035611ac0565b3480156106c357600080fd5b506105b5600480360360208110156106da57600080fd5b50356001600160a01b0316611b48565b3480156106f657600080fd5b5061023d600480360361010081101561070e57600080fd5b810190602081018135600160201b81111561072857600080fd5b82018360208201111561073a57600080fd5b803590602001918460208302840111600160201b8311171561075b57600080fd5b919080806020026020016040519081016040528093929190818152602001838360200280828437600092019190915250929550505081356001600160a01b0390811693506020830135926040810135925060608101351515916080820135169060a08101359060c00135611b5d565b3480156107d657600080fd5b50610259611c94565b3480156107eb57600080fd5b506102eb611ca3565b34801561080057600080fd5b5061023d6004803603602081101561081757600080fd5b50356001600160a01b0316611ca9565b34801561083357600080fd5b50610259611d4a565b34801561084857600080fd5b506105b56004803603602081101561085f57600080fd5b50356001600160a01b0316611d59565b34801561087b57600080fd5b5061023d600480360360e081101561089257600080fd5b506001600160a01b0381358116916020810135821691604082013591606081013591608082013515159160a08101359091169060c00135611d6e565b3480156108da57600080fd5b506102eb600480360360208110156108f157600080fd5b50356001600160a01b0316611e2e565b34801561090d57600080fd5b506102eb611e40565b34801561092257600080fd5b5061023d6004803603602081101561093957600080fd5b50351515611e46565b34801561094e57600080fd5b5061023d6004803603602081101561096557600080fd5b50356001600160a01b0316611ee6565b61023d600480360360c081101561098b57600080fd5b810190602081018135600160201b8111156109a557600080fd5b8201836020820111156109b757600080fd5b803590602001918460208302840111600160201b831117156109d857600080fd5b919080806020026020016040519081016040528093929190818152602001838360200280828437600092019190915250929550506001600160a01b0383351693505050602081013590604081013590606081013515159060800135611f87565b348015610a4457600080fd5b5061023d600480360360e0811015610a5b57600080fd5b810190602081018135600160201b811115610a7557600080fd5b820183602082011115610a8757600080fd5b803590602001918460208302840111600160201b83111715610aa857600080fd5b919080806020026020016040519081016040528093929190818152602001838360200280828437600092019190915250929550506001600160a01b0383351693505050602081013590604081013590606081013590608081013515159060a001356121a6565b348015610b1a57600080fd5b5061023d60048036036020811015610b3157600080fd5b50356001600160a01b0316612485565b348015610b4d57600080fd5b5061023d60048036036060811015610b6457600080fd5b506001600160a01b038135811691602081013591604090910135166124f4565b348015610b9057600080fd5b506105b5612955565b348015610ba557600080fd5b5061023d600480360360a0811015610bbc57600080fd5b506001600160a01b03813581169160208101358216916040820135811691606081013515159160809091013516612965565b348015610bfa57600080fd5b5061023d60048036036060811015610c1157600080fd5b506001600160a01b03813581169160208101359091169060400135612e0a565b348015610c3d57600080fd5b5061023d60048036036060811015610c5457600080fd5b810190602081018135600160201b811115610c6e57600080fd5b820183602082011115610c8057600080fd5b803590602001918460208302840111600160201b83111715610ca157600080fd5b9190808060200260200160405190810160405280939291908181526020018383602002808284376000920191909152509295949360208101935035915050600160201b811115610cf057600080fd5b820183602082011115610d0257600080fd5b803590602001918460208302840111600160201b83111715610d2357600080fd5b9190808060200260200160405190810160405280939291908181526020018383602002808284376000920191909152509295949360208101935035915050600160201b811115610d7257600080fd5b820183602082011115610d8457600080fd5b803590602001918460208302840111600160201b83111715610da557600080fd5b919080806020026020016040519081016040528093929190818152602001838360200280828437600092019190915250929550612edf945050505050565b348015610def57600080fd5b5061023d60048036036040811015610e0657600080fd5b506001600160a01b03813581169160200135166130ce565b348015610e2a57600080fd5b506102596131b2565b348015610e3f57600080fd5b506102596131c1565b348015610e5457600080fd5b506102596131d0565b6009546001600160a01b031681565b336000908152600e602052604090205460ff16610ebe576040805162461bcd60e51b815260206004820152601a6024820152600080516020614ee9833981519152604482015290519081900360640190fd5b600d54604080516307c7edc360e01b81526001600160a01b038681166004830152602482018690528481166044830152915191909216916307c7edc391606480830192600092919082900301818387803b158015610f1b57600080fd5b505af1158015610f2f573d6000803e3d6000fd5b50505050505050565b600b6020526000908152604090205481565b336000908152600e602052604090205460ff16610f9c576040805162461bcd60e51b815260206004820152601a6024820152600080516020614ee9833981519152604482015290519081900360640190fd5b600354604080516312d43a5160e01b815290516001600160a01b039092169160009183916312d43a5191600480820192602092909190829003018186803b158015610fe657600080fd5b505afa158015610ffa573d6000803e3d6000fd5b505050506040513d602081101561101057600080fd5b5051600d5460408051630130197760e11b81526001600160a01b03898116600483015260248201899052915193945060009384938493849391169163026032ee9160448082019261010092909190829003018186803b15801561107257600080fd5b505afa158015611086573d6000803e3d6000fd5b505050506040513d61010081101561109d57600080fd5b508051604082015160608301516080909301519196509450909250905060008161113f57866001600160a01b031663e124e6d2856040518263ffffffff1660e01b815260040180826001600160a01b0316815260200191505060206040518083038186803b15801561110e57600080fd5b505afa158015611122573d6000803e3d6000fd5b505050506040513d602081101561113857600080fd5b50516111b9565b866001600160a01b03166381a612d6856040518263ffffffff1660e01b815260040180826001600160a01b0316815260200191505060206040518083038186803b15801561118c57600080fd5b505afa1580156111a0573d6000803e3d6000fd5b505050506040513d60208110156111b657600080fd5b50515b6004805460408051633cc8e33b60e21b81526001600160a01b038f8116948201949094528984166024820152888416604482015286151560648201526084810188905260a48101859052600060c482018190529151949550929091169263f3238cec9260e480820193929182900301818387803b15801561123957600080fd5b505af115801561124d573d6000803e3d6000fd5b50505050856001600160a01b0316636d63c1d0886040518263ffffffff1660e01b815260040180826001600160a01b03168152602001915050600060405180830381600087803b1580156112a057600080fd5b505af11580156112b4573d6000803e3d6000fd5b5050600d54604080516308eca22560e11b81526001600160a01b038f81166004830152602482018f90528d8116604483015291519190921693506311d9444a9250606480830192600092919082900301818387803b15801561131557600080fd5b505af1158015611329573d6000803e3d6000fd5b50505050856001600160a01b031663d3c87bbb886040518263ffffffff1660e01b815260040180826001600160a01b03168152602001915050600060405180830381600087803b15801561137c57600080fd5b505af1158015611390573d6000803e3d6000fd5b5050505061139e8a846131df565b50505050505050505050565b61271081565b6001546001600160a01b031681565b6002546001600160a01b0316331461140c576040805162461bcd60e51b815260206004820152601e6024820152600080516020614e28833981519152604482015290519081900360640190fd5b600d8054821515600160a81b810260ff60a81b199092169190911790915560408051918252517fa956222e37fe025ff51e5440ac729a9bd417ff91e485e14dcffa2c0ba8894f409181900360200190a150565b600a6020526000908152604090205481565b6002546001600160a01b031633146114be576040805162461bcd60e51b815260206004820152601e6024820152600080516020614e28833981519152604482015290519081900360640190fd5b6001600160a01b0382166000818152600e6020908152604091829020805460ff1916851515908117909155825190815291517f1d5bc0255b943d6a5b5279e8a55d74d620baccbceecb25e87a3558f14c4c118e9281900390910190a25050565b6002546001600160a01b0316331461156b576040805162461bcd60e51b815260206004820152601e6024820152600080516020614e28833981519152604482015290519081900360640190fd5b6001600160a01b0382166000818152600f6020908152604091829020805460ff191685151590811790915582519384529083015280517fa4e46c70ff429a91de7d1716d736e877c7cca1c22ac850b23d242530dd95e4749281900390910190a15050565b6002546001600160a01b0316331461161c576040805162461bcd60e51b815260206004820152601e6024820152600080516020614e28833981519152604482015290519081900360640190fd5b60088190556040805182815290517f21167d0d4661af93817ebce920f18986eed3d75d5e1c03f2aed05efcbafbc4529181900360200190a150565b6001546001600160a01b031633146116a4576040805162461bcd60e51b81526020600482015260156024820152600080516020614d4d833981519152604482015290519081900360640190fd5b6116b76001600160a01b03831682613368565b5050565b60026000541415611701576040805162461bcd60e51b815260206004820152601f6024820152600080516020614d2d833981519152604482015290519081900360640190fd5b60026000908155338152600f602052604090205460ff168061172c5750600d54600160a01b900460ff165b61176b576040805162461bcd60e51b815260206004820152601a6024820152600080516020614ee9833981519152604482015290519081900360640190fd5b87516002146117ab5760405162461bcd60e51b8152600401808060200182810382526025815260200180614fcf6025913960400191505060405180910390fd5b60065488516001600160a01b0390911690899060001981019081106117cc57fe5b60200260200101516001600160a01b03161461181d576040805162461bcd60e51b815260206004820152601e6024820152600080516020614e48833981519152604482015290519081900360640190fd5b6000611843338a60008151811061183057fe5b60200260200101518a8a8a8a308a613452565b905061188c600360009054906101000a90046001600160a01b0316828b60008151811061186c57fe5b60200260200101516001600160a01b03166138eb9092919063ffffffff16565b60006118998a843061393d565b90506118a581866139c2565b505060016000555050505050505050565b600e6020526000908152604090205460ff1681565b6006546001600160a01b031681565b60026000541415611920576040805162461bcd60e51b815260206004820152601f6024820152600080516020614d2d833981519152604482015290519081900360640190fd5b60026000908155338152600f602052604090205460ff168061194b5750600d54600160a01b900460ff165b61198a576040805162461bcd60e51b815260206004820152601a6024820152600080516020614ee9833981519152604482015290519081900360640190fd5b6006546001600160a01b038881169116146119d65760405162461bcd60e51b8152600401808060200182810382526029815260200180614f596029913960400191505060405180910390fd5b60006119e83389898989893089613452565b90506119f481846139c2565b50506001600055505050505050565b6002546001600160a01b03163314611a50576040805162461bcd60e51b815260206004820152601e6024820152600080516020614e28833981519152604482015290519081900360640190fd5b6001600160a01b038216600081815260106020908152604091829020805460ff1916851515908117909155825190815291517f8c0d56805c3b43d441481229dc64bee168253ffe4305f37ab7cfe63b1c4268c69281900390910190a25050565b600d54600160a81b900460ff1681565b6002546001600160a01b03163314611b0d576040805162461bcd60e51b815260206004820152601e6024820152600080516020614e28833981519152604482015290519081900360640190fd5b60078190556040805182815290517f974fd3c1fcb4653dfc4fb740c4c692cd212d55c28f163f310128cb64d83006759181900360200190a150565b60106020526000908152604090205460ff1681565b60026000541415611ba3576040805162461bcd60e51b815260206004820152601f6024820152600080516020614d2d833981519152604482015290519081900360640190fd5b60026000908155338152600f602052604090205460ff1680611bce5750600d54600160a01b900460ff165b611c0d576040805162461bcd60e51b815260206004820152601a6024820152600080516020614ee9833981519152604482015290519081900360640190fd5b8751600214611c4d5760405162461bcd60e51b8152600401808060200182810382526025815260200180614fcf6025913960400191505060405180910390fd5b6000611c60338a60008151811061183057fe5b9050611c89600360009054906101000a90046001600160a01b0316828b60008151811061186c57fe5b6118a589838661393d565b6004546001600160a01b031681565b60075481565b6001546001600160a01b03163314611cf6576040805162461bcd60e51b81526020600482015260156024820152600080516020614d4d833981519152604482015290519081900360640190fd5b600280546001600160a01b0383166001600160a01b0319909116811790915560408051918252517f5a272403b402d892977df56625f4164ccaf70ca3863991c43ecfe76a6905b0a19181900360200190a150565b600d546001600160a01b031681565b600f6020526000908152604090205460ff1681565b60026000541415611db4576040805162461bcd60e51b815260206004820152601f6024820152600080516020614d2d833981519152604482015290519081900360640190fd5b60026000908155338152600f602052604090205460ff1680611ddf5750600d54600160a01b900460ff165b611e1e576040805162461bcd60e51b815260206004820152601a6024820152600080516020614ee9833981519152604482015290519081900360640190fd5b6119f43388888888888888613452565b600c6020526000908152604090205481565b60085481565b6002546001600160a01b03163314611e93576040805162461bcd60e51b815260206004820152601e6024820152600080516020614e28833981519152604482015290519081900360640190fd5b600d8054821515600160a01b810260ff60a01b199092169190911790915560408051918252517feac6b3611e79ff0d8ea5daa8439f6b1ab7eea4ebf95f1dd360417f712c3fc3049181900360200190a150565b6002546001600160a01b03163314611f33576040805162461bcd60e51b815260206004820152601e6024820152600080516020614e28833981519152604482015290519081900360640190fd5b600980546001600160a01b0383166001600160a01b0319909116811790915560408051918252517f828abcccea18192c21d645e575652c49e20b986dab777906fc473d056b01b6a89181900360200190a150565b60026000541415611fcd576040805162461bcd60e51b815260206004820152601f6024820152600080516020614d2d833981519152604482015290519081900360640190fd5b60026000908155338152600f602052604090205460ff1680611ff85750600d54600160a01b900460ff165b612037576040805162461bcd60e51b815260206004820152601a6024820152600080516020614ee9833981519152604482015290519081900360640190fd5b855160011480612048575085516002145b6120835760405162461bcd60e51b8152600401808060200182810382526025815260200180614fcf6025913960400191505060405180910390fd5b60065486516001600160a01b0390911690879060009061209f57fe5b60200260200101516001600160a01b0316146120f0576040805162461bcd60e51b815260206004820152601e6024820152600080516020614e48833981519152604482015290519081900360640190fd5b3415612174576120fe613a50565b855134906001101561213557600354600654612127916001600160a01b039182169116346138eb565b61213287863061393d565b90505b60006121453389848a888a613abc565b9050612171600360009054906101000a90046001600160a01b0316828a60018c51038151811061186c57fe5b50505b612199338760018951038151811061218857fe5b602002602001015187868686613b9b565b5050600160005550505050565b600260005414156121ec576040805162461bcd60e51b815260206004820152601f6024820152600080516020614d2d833981519152604482015290519081900360640190fd5b60026000908155338152600f602052604090205460ff16806122175750600d54600160a01b900460ff165b612256576040805162461bcd60e51b815260206004820152601a6024820152600080516020614ee9833981519152604482015290519081900360640190fd5b865160011480612267575086516002145b6122a25760405162461bcd60e51b8152600401808060200182810382526025815260200180614fcf6025913960400191505060405180910390fd5b8415612452578651600114156123625760055487516001600160a01b0390911690631b8278789089906000906122d457fe5b60200260200101513330896040518563ffffffff1660e01b815260040180856001600160a01b03168152602001846001600160a01b03168152602001836001600160a01b03168152602001828152602001945050505050600060405180830381600087803b15801561234557600080fd5b505af1158015612359573d6000803e3d6000fd5b50505050612414565b60055487516001600160a01b0390911690631b82787890899060009061238457fe5b6020908102919091010151600354604080516001600160e01b031960e086901b1681526001600160a01b0393841660048201523360248201529290911660448301526064820189905251608480830192600092919082900301818387803b1580156123ee57600080fd5b505af1158015612402573d6000803e3d6000fd5b5050505061241187853061393d565b94505b60006124243389888a8789613abc565b9050612450600360009054906101000a90046001600160a01b0316828a60018c51038151811061186c57fe5b505b612477338860018a51038151811061246657fe5b602002602001015188868686613b9b565b505060016000555050505050565b6001546001600160a01b031633146124d2576040805162461bcd60e51b81526020600482015260156024820152600080516020614d4d833981519152604482015290519081900360640190fd5b600180546001600160a01b0319166001600160a01b0392909216919091179055565b336000908152600e602052604090205460ff16612546576040805162461bcd60e51b815260206004820152601a6024820152600080516020614ee9833981519152604482015290519081900360640190fd5b6125508383613fa3565b600354604080516312d43a5160e01b815290516001600160a01b039092169160009183916312d43a5191600480820192602092909190829003018186803b15801561259a57600080fd5b505afa1580156125ae573d6000803e3d6000fd5b505050506040513d60208110156125c457600080fd5b5051600d546040805163d3bab1d160e01b81526001600160a01b03898116600483015260248201899052915193945060009384938493849391169163d3bab1d19160448082019261012092909190829003018186803b15801561262657600080fd5b505afa15801561263a573d6000803e3d6000fd5b505050506040513d61012081101561265157600080fd5b5060408101516060820151608083015160a090930151919650945090925090506000816126f657866001600160a01b03166381a612d6856040518263ffffffff1660e01b815260040180826001600160a01b0316815260200191505060206040518083038186803b1580156126c557600080fd5b505afa1580156126d9573d6000803e3d6000fd5b505050506040513d60208110156126ef57600080fd5b5051612770565b866001600160a01b031663e124e6d2856040518263ffffffff1660e01b815260040180826001600160a01b0316815260200191505060206040518083038186803b15801561274357600080fd5b505afa158015612757573d6000803e3d6000fd5b505050506040513d602081101561276d57600080fd5b50515b6004805460408051633cc8e33b60e21b81526001600160a01b038f8116948201949094528984166024820152888416604482015286151560648201526084810188905260a48101859052600160c4820152905193945091169163f3238cec9160e48082019260009290919082900301818387803b1580156127f057600080fd5b505af1158015612804573d6000803e3d6000fd5b50505050856001600160a01b0316636d63c1d0886040518263ffffffff1660e01b815260040180826001600160a01b03168152602001915050600060405180830381600087803b15801561285757600080fd5b505af115801561286b573d6000803e3d6000fd5b5050600d546040805163d38ab51960e01b81526001600160a01b038f81166004830152602482018f90528d81166044830152915191909216935063d38ab5199250606480830192600092919082900301818387803b1580156128cc57600080fd5b505af11580156128e0573d6000803e3d6000fd5b50505050856001600160a01b031663d3c87bbb886040518263ffffffff1660e01b815260040180826001600160a01b03168152602001915050600060405180830381600087803b15801561293357600080fd5b505af1158015612947573d6000803e3d6000fd5b5050505061139e8a846142c6565b600d54600160a01b900460ff1681565b600260005414156129ab576040805162461bcd60e51b815260206004820152601f6024820152600080516020614d2d833981519152604482015290519081900360640190fd5b600260009081553381526010602052604090205460ff16612a01576040805162461bcd60e51b815260206004820152601a6024820152600080516020614ee9833981519152604482015290519081900360640190fd5b600354604080516312d43a5160e01b815290516001600160a01b039092169160009183916312d43a5191600480820192602092909190829003018186803b158015612a4b57600080fd5b505afa158015612a5f573d6000803e3d6000fd5b505050506040513d6020811015612a7557600080fd5b505160035460408051634a3f088d60e01b81526001600160a01b038b811660048301528a811660248301528981166044830152881515606483015291519394506000939190921691634a3f088d91608480830192610100929190829003018186803b158015612ae357600080fd5b505afa158015612af7573d6000803e3d6000fd5b505050506040513d610100811015612b0e57600080fd5b50519050600085612b9757836001600160a01b031663e124e6d2886040518263ffffffff1660e01b815260040180826001600160a01b0316815260200191505060206040518083038186803b158015612b6657600080fd5b505afa158015612b7a573d6000803e3d6000fd5b505050506040513d6020811015612b9057600080fd5b5051612c11565b836001600160a01b03166381a612d6886040518263ffffffff1660e01b815260040180826001600160a01b0316815260200191505060206040518083038186803b158015612be457600080fd5b505afa158015612bf8573d6000803e3d6000fd5b505050506040513d6020811015612c0e57600080fd5b50515b6004805460408051633cc8e33b60e21b81526001600160a01b038e8116948201949094528c841660248201528b841660448201528a151560648201526084810187905260a48101859052600060c482018190529151949550929091169263f3238cec9260e480820193929182900301818387803b158015612c9157600080fd5b505af1158015612ca5573d6000803e3d6000fd5b50505050826001600160a01b0316636d63c1d0856040518263ffffffff1660e01b815260040180826001600160a01b03168152602001915050600060405180830381600087803b158015612cf857600080fd5b505af1158015612d0c573d6000803e3d6000fd5b505060408051631bc5d52960e31b81526001600160a01b038d811660048301528c811660248301528b811660448301528a1515606483015289811660848301529151918816935063de2ea948925060a48082019260009290919082900301818387803b158015612d7b57600080fd5b505af1158015612d8f573d6000803e3d6000fd5b50505050826001600160a01b031663d3c87bbb856040518263ffffffff1660e01b815260040180826001600160a01b03168152602001915050600060405180830381600087803b158015612de257600080fd5b505af1158015612df6573d6000803e3d6000fd5b505060016000555050505050505050505050565b6001546001600160a01b03163314612e57576040805162461bcd60e51b81526020600482015260156024820152600080516020614d4d833981519152604482015290519081900360640190fd5b826001600160a01b031663095ea7b383836040518363ffffffff1660e01b815260040180836001600160a01b0316815260200182815260200192505050602060405180830381600087803b158015612eae57600080fd5b505af1158015612ec2573d6000803e3d6000fd5b505050506040513d6020811015612ed857600080fd5b5050505050565b6002546001600160a01b03163314612f2c576040805162461bcd60e51b815260206004820152601e6024820152600080516020614e28833981519152604482015290519081900360640190fd5b60005b8351811015612fc7576000848281518110612f4657fe5b60200260200101519050838281518110612f5c57fe5b6020026020010151600b6000836001600160a01b03166001600160a01b0316815260200190815260200160002081905550828281518110612f9957fe5b6020908102919091018101516001600160a01b039092166000908152600c9091526040902055600101612f2f565b507fae32d569b058895b9620d6552b09aaffedc9a6f396be4d595a224ad09f8b213983838360405180806020018060200180602001848103845287818151815260200191508051906020019060200280838360005b8381101561303457818101518382015260200161301c565b50505050905001848103835286818151815260200191508051906020019060200280838360005b8381101561307357818101518382015260200161305b565b50505050905001848103825285818151815260200191508051906020019060200280838360005b838110156130b257818101518382015260200161309a565b50505050905001965050505050505060405180910390a1505050565b6002546001600160a01b0316331461311b576040805162461bcd60e51b815260206004820152601e6024820152600080516020614e28833981519152604482015290519081900360640190fd5b6001600160a01b0382166000908152600a60205260409020548061313f57506116b7565b6001600160a01b0383166000818152600a60205260408120556131639083836138eb565b604080516001600160a01b0380861682528416602082015280820183905290517f4f1b51dd7a2fcb861aa2670f668be66835c4ee12b4bbbf037e4d0018f39819e49181900360600190a1505050565b6002546001600160a01b031681565b6005546001600160a01b031681565b6003546001600160a01b031681565b6009546001600160a01b0316806131f657506116b7565b600080826001600160a01b031663534ef883866040518263ffffffff1660e01b815260040180826001600160a01b03168152602001915050604080518083038186803b15801561324557600080fd5b505afa158015613259573d6000803e3d6000fd5b505050506040513d604081101561326f57600080fd5b50805160209091015190925090508161328a575050506116b7565b7f474c763ff84bf2c2039a6d9fea955ecd0f724030e3c365b91169c6a16fe751b78585600360009054906101000a90046001600160a01b03166001600160a01b031663318bc6896040518163ffffffff1660e01b815260040160206040518083038186803b1580156132fb57600080fd5b505afa15801561330f573d6000803e3d6000fd5b505050506040513d602081101561332557600080fd5b5051604080516001600160a01b03948516815260208101939093528281019190915260608201869052918416608082015290519081900360a00190a15050505050565b804710156133bd576040805162461bcd60e51b815260206004820152601d60248201527f416464726573733a20696e73756666696369656e742062616c616e6365000000604482015290519081900360640190fd5b6040516000906001600160a01b0384169083908381818185875af1925050503d8060008114613408576040519150601f19603f3d011682016040523d82523d6000602084013e61340d565b606091505b505090508061344d5760405162461bcd60e51b815260040180806020018281038252603a815260200180614d98603a913960400191505060405180910390fd5b505050565b6003546000906001600160a01b031681856134e557816001600160a01b031663e124e6d28a6040518263ffffffff1660e01b815260040180826001600160a01b0316815260200191505060206040518083038186803b1580156134b457600080fd5b505afa1580156134c8573d6000803e3d6000fd5b505050506040513d60208110156134de57600080fd5b505161355f565b816001600160a01b03166381a612d68a6040518263ffffffff1660e01b815260040180826001600160a01b0316815260200191505060206040518083038186803b15801561353257600080fd5b505afa158015613546573d6000803e3d6000fd5b505050506040513d602081101561355c57600080fd5b50515b905085156135ab57838110156135a65760405162461bcd60e51b8152600401808060200182810382526030815260200180614df86030913960400191505060405180910390fd5b6135ea565b838111156135ea5760405162461bcd60e51b8152600401808060200182810382526031815260200180614eb86031913960400191505060405180910390fd5b6000826001600160a01b03166312d43a516040518163ffffffff1660e01b815260040160206040518083038186803b15801561362557600080fd5b505afa158015613639573d6000803e3d6000fd5b505050506040513d602081101561364f57600080fd5b81019080805190602001909291905050509050600460009054906101000a90046001600160a01b03166001600160a01b031663f3238cec8d8d8d8b8d8860006040518863ffffffff1660e01b815260040180886001600160a01b03168152602001876001600160a01b03168152602001866001600160a01b0316815260200185151581526020018481526020018381526020018215158152602001975050505050505050600060405180830381600087803b15801561370d57600080fd5b505af1158015613721573d6000803e3d6000fd5b50505050806001600160a01b0316636d63c1d0846040518263ffffffff1660e01b815260040180826001600160a01b03168152602001915050600060405180830381600087803b15801561377457600080fd5b505af1158015613788573d6000803e3d6000fd5b505050506000600560009054906101000a90046001600160a01b03166001600160a01b0316632662166b8e8e8e8e8e8e8e6040518863ffffffff1660e01b815260040180886001600160a01b03168152602001876001600160a01b03168152602001866001600160a01b031681526020018581526020018481526020018315158152602001826001600160a01b03168152602001975050505050505050602060405180830381600087803b15801561383f57600080fd5b505af1158015613853573d6000803e3d6000fd5b505050506040513d602081101561386957600080fd5b50516040805163d3c87bbb60e01b81526001600160a01b03878116600483015291519293509084169163d3c87bbb9160248082019260009290919082900301818387803b1580156138b957600080fd5b505af11580156138cd573d6000803e3d6000fd5b505050506138db8d8a6131df565b9c9b505050505050505050505050565b604080516001600160a01b038416602482015260448082018490528251808303909101815260649091019091526020810180516001600160e01b031663a9059cbb60e01b17905261344d9084906143cc565b60008351600214156139845761397d8460008151811061395957fe5b60200260200101518560018151811061396e57fe5b6020026020010151858561447d565b90506139bb565b60405162461bcd60e51b8152600401808060200182810382526029815260200180614f306029913960400191505060405180910390fd5b9392505050565b60065460408051632e1a7d4d60e01b81526004810185905290516001600160a01b0390921691632e1a7d4d9160248082019260009290919082900301818387803b158015613a0f57600080fd5b505af1158015613a23573d6000803e3d6000fd5b50506040516001600160a01b038416925084156108fc02915084906000818181858888f150505050505050565b3415613aba57600660009054906101000a90046001600160a01b03166001600160a01b031663d0e30db0346040518263ffffffff1660e01b81526004016000604051808303818588803b158015613aa657600080fd5b505af1158015612ed8573d6000803e3d6000fd5b565b600080613acd888888888888614553565b90508015613b8c576000613b04612710613afe613af760075461271061473090919063ffffffff16565b8a9061477b565b906147d4565b90506000613b128883614730565b905060008960018b510381518110613b2657fe5b60200260200101519050613b6882600a6000846001600160a01b03166001600160a01b031681526020019081526020016000205461481390919063ffffffff16565b6001600160a01b039091166000908152600a6020526040902055509150613b919050565b859150505b9695505050505050565b6003546001600160a01b0316600083613c2c57816001600160a01b03166381a612d6876040518263ffffffff1660e01b815260040180826001600160a01b0316815260200191505060206040518083038186803b158015613bfb57600080fd5b505afa158015613c0f573d6000803e3d6000fd5b505050506040513d6020811015613c2557600080fd5b5051613ca6565b816001600160a01b031663e124e6d2876040518263ffffffff1660e01b815260040180826001600160a01b0316815260200191505060206040518083038186803b158015613c7957600080fd5b505afa158015613c8d573d6000803e3d6000fd5b505050506040513d6020811015613ca357600080fd5b50515b90508315613cf25782811115613ced5760405162461bcd60e51b8152600401808060200182810382526031815260200180614eb86031913960400191505060405180910390fd5b613d31565b82811015613d315760405162461bcd60e51b8152600401808060200182810382526030815260200180614df86030913960400191505060405180910390fd5b613d3c86858761486b565b6000826001600160a01b03166312d43a516040518163ffffffff1660e01b815260040160206040518083038186803b158015613d7757600080fd5b505afa158015613d8b573d6000803e3d6000fd5b505050506040513d6020811015613da157600080fd5b50516004805460408051633cc8e33b60e21b81526001600160a01b038e8116948201949094528c841660248201528b841660448201528915156064820152608481018b905260a48101879052600160c4820152905193945091169163f3238cec9160e48082019260009290919082900301818387803b158015613e2357600080fd5b505af1158015613e37573d6000803e3d6000fd5b50505050806001600160a01b0316636d63c1d0846040518263ffffffff1660e01b815260040180826001600160a01b03168152602001915050600060405180830381600087803b158015613e8a57600080fd5b505af1158015613e9e573d6000803e3d6000fd5b505060055460408051630f8ee8bb60e11b81526001600160a01b038e811660048301528d811660248301528c81166044830152606482018c90528a151560848301529151919092169350631f1dd176925060a480830192600092919082900301818387803b158015613f0f57600080fd5b505af1158015613f23573d6000803e3d6000fd5b50505050806001600160a01b031663d3c87bbb846040518263ffffffff1660e01b815260040180826001600160a01b03168152602001915050600060405180830381600087803b158015613f7657600080fd5b505af1158015613f8a573d6000803e3d6000fd5b50505050613f9889876142c6565b505050505050505050565b600d546040805163d3bab1d160e01b81526001600160a01b03858116600483015260248201859052915160009384938493849384938493169163d3bab1d191604480830192610120929190829003018186803b15801561400257600080fd5b505afa158015614016573d6000803e3d6000fd5b505050506040513d61012081101561402d57600080fd5b508051602082015160408301516060840151608085015160a090950151939a5091985096509450909250905061406483828461486b565b600d54600160a81b900460ff16614080575050505050506116b7565b80614090575050505050506116b7565b600082116140e5576040805162461bcd60e51b815260206004820152601d60248201527f506f736974696f6e4d616e616765723a206c6f6e67206465706f736974000000604482015290519081900360640190fd5b60035460408051634a3f088d60e01b81526001600160a01b038b811660048301528781166024830152868116604483015284151560648301529151919092169160009182918491634a3f088d9160848082019261010092909190829003018186803b15801561415357600080fd5b505afa158015614167573d6000803e3d6000fd5b505050506040513d61010081101561417e57600080fd5b50805160209091015190925090508161419f575050505050505050506116b7565b60006141ab8387614813565b90506000846001600160a01b0316630a48d5a98c8c6040518363ffffffff1660e01b815260040180836001600160a01b031681526020018281526020019250505060206040518083038186803b15801561420457600080fd5b505afa158015614218573d6000803e3d6000fd5b505050506040513d602081101561422e57600080fd5b50519050600061423e8483614813565b9050600061425285613afe8861271061477b565b9050600061427383613afe600854612710018861477b90919063ffffffff16565b9050818110156142b45760405162461bcd60e51b8152600401808060200182810382526027815260200180614f096027913960400191505060405180910390fd5b50505050505050505050505050505050565b6009546001600160a01b0316806142dd57506116b7565b600080826001600160a01b031663534ef883866040518263ffffffff1660e01b815260040180826001600160a01b03168152602001915050604080518083038186803b15801561432c57600080fd5b505afa158015614340573d6000803e3d6000fd5b505050506040513d604081101561435657600080fd5b5080516020918201516003546040805163318bc68960e01b815290519396509194507fc2414023ce7002ee98557d1e7be21e5559073336f2217ee5f9b2e50fd85f71ee93899389936001600160a01b039093169263318bc689926004808301939192829003018186803b1580156132fb57600080fd5b6060614421826040518060400160405280602081526020017f5361666545524332303a206c6f772d6c6576656c2063616c6c206661696c6564815250856001600160a01b0316614a239092919063ffffffff16565b80519091501561344d5780806020019051602081101561444057600080fd5b505161344d5760405162461bcd60e51b815260040180806020018281038252602a815260200180614fa5602a913960400191505060405180910390fd5b60035460408051634998b10960e11b81526001600160a01b03878116600483015286811660248301528481166044830152915160009384931691639331621291606480830192602092919082900301818787803b1580156144dd57600080fd5b505af11580156144f1573d6000803e3d6000fd5b505050506040513d602081101561450757600080fd5b505190508381101561454a5760405162461bcd60e51b815260040180806020018281038252602b815260200180614d6d602b913960400191505060405180910390fd5b95945050505050565b60008261456257506000613b91565b8161456f57506001613b91565b60008660018851038151811061458157fe5b602090810291909101015160035460408051634a3f088d60e01b81526001600160a01b038c81166004830152808516602483015289811660448301528815156064830152915193945091169160009182918491634a3f088d91608480830192610100929190829003018186803b1580156145fa57600080fd5b505afa15801561460e573d6000803e3d6000fd5b505050506040513d61010081101561462557600080fd5b508051602090910151909250905081614645576000945050505050613b91565b60006146518388614813565b90506000846001600160a01b0316630a48d5a9878d6040518363ffffffff1660e01b815260040180836001600160a01b031681526020018281526020019250505060206040518083038186803b1580156146aa57600080fd5b505afa1580156146be573d6000803e3d6000fd5b505050506040513d60208110156146d457600080fd5b5051905060006146e48483614813565b905060006146f885613afe8861271061477b565b9050600061471983613afe600854612710018861477b90919063ffffffff16565b919091109f9e505050505050505050505050505050565b600061477283836040518060400160405280601e81526020017f536166654d6174683a207375627472616374696f6e206f766572666c6f770000815250614a3a565b90505b92915050565b60008261478a57506000614775565b8282028284828161479757fe5b04146147725760405162461bcd60e51b8152600401808060200182810382526021815260200180614e976021913960400191505060405180910390fd5b600061477283836040518060400160405280601a815260200179536166654d6174683a206469766973696f6e206279207a65726f60301b815250614ad1565b600082820183811015614772576040805162461bcd60e51b815260206004820152601b60248201527a536166654d6174683a206164646974696f6e206f766572666c6f7760281b604482015290519081900360640190fd5b806148755761344d565b8115614968576001600160a01b0383166000908152600b6020526040902054801580159061492657506003546040805163783a2b6760e11b81526001600160a01b0387811660048301529151849361492493879391169163f07456ce91602480820192602092909190829003018186803b1580156148f257600080fd5b505afa158015614906573d6000803e3d6000fd5b505050506040513d602081101561491c57600080fd5b505190614813565b115b156149625760405162461bcd60e51b815260040180806020018281038252602e815260200180614cff602e913960400191505060405180910390fd5b5061344d565b6001600160a01b0383166000908152600c602052604090205480158015906149e157506003546040805163114f1b5560e31b81526001600160a01b038781166004830152915184936149df938793911691638a78daa891602480820192602092909190829003018186803b1580156148f257600080fd5b115b15614a1d5760405162461bcd60e51b815260040180806020018281038252602f815260200180614e68602f913960400191505060405180910390fd5b50505050565b6060614a328484600085614b36565b949350505050565b60008184841115614ac95760405162461bcd60e51b81526004018080602001828103825283818151815260200191508051906020019080838360005b83811015614a8e578181015183820152602001614a76565b50505050905090810190601f168015614abb5780820380516001836020036101000a031916815260200191505b509250505060405180910390fd5b505050900390565b60008183614b205760405162461bcd60e51b8152602060048201818152835160248401528351909283926044909101919085019080838360008315614a8e578181015183820152602001614a76565b506000838581614b2c57fe5b0495945050505050565b606082471015614b775760405162461bcd60e51b8152600401808060200182810382526026815260200180614dd26026913960400191505060405180910390fd5b614b8085614c92565b614bd1576040805162461bcd60e51b815260206004820152601d60248201527f416464726573733a2063616c6c20746f206e6f6e2d636f6e7472616374000000604482015290519081900360640190fd5b60006060866001600160a01b031685876040518082805190602001908083835b60208310614c105780518252601f199092019160209182019101614bf1565b6001836020036101000a03801982511681845116808217855250505050505090500191505060006040518083038185875af1925050503d8060008114614c72576040519150601f19603f3d011682016040523d82523d6000602084013e614c77565b606091505b5091509150614c87828286614c98565b979650505050505050565b3b151590565b60608315614ca75750816139bb565b825115614cb75782518084602001fd5b60405162461bcd60e51b8152602060048201818152845160248401528451859391928392604401919085019080838360008315614a8e578181015183820152602001614a7656fe42617365506f736974696f6e4d616e616765723a206d617820676c6f62616c206c6f6e67732065786365656465645265656e7472616e637947756172643a207265656e7472616e742063616c6c00476f7665726e61626c653a20666f7262696464656e000000000000000000000042617365506f736974696f6e4d616e616765723a20696e73756666696369656e7420616d6f756e744f7574416464726573733a20756e61626c6520746f2073656e642076616c75652c20726563697069656e74206d61792068617665207265766572746564416464726573733a20696e73756666696369656e742062616c616e636520666f722063616c6c42617365506f736974696f6e4d616e616765723a206d61726b207072696365206c6f776572207468616e206c696d697442617365506f736974696f6e4d616e616765723a20666f7262696464656e0000506f736974696f6e4d616e616765723a20696e76616c6964205f70617468000042617365506f736974696f6e4d616e616765723a206d617820676c6f62616c2073686f727473206578636565646564536166654d6174683a206d756c7469706c69636174696f6e206f766572666c6f7742617365506f736974696f6e4d616e616765723a206d61726b20707269636520686967686572207468616e206c696d6974506f736974696f6e4d616e616765723a20666f7262696464656e000000000000506f736974696f6e4d616e616765723a206c6f6e67206c6576657261676520646563726561736542617365506f736974696f6e4d616e616765723a20696e76616c6964205f706174682e6c656e677468506f736974696f6e4d616e616765723a20696e76616c6964205f636f6c6c61746572616c546f6b656e42617365506f736974696f6e4d616e616765723a20696e76616c69642073656e6465725361666545524332303a204552433230206f7065726174696f6e20646964206e6f742073756363656564506f736974696f6e4d616e616765723a20696e76616c6964205f706174682e6c656e677468a2646970667358221220c62ffb5054a0aafc599f4dcc9f16c0e70afbb25579a636d75c7ceaef33834bc164736f6c634300060c0033",
  "linkReferences": {},
  "deployedLinkReferences": {}
}